{"abi":[{"type":"constructor","inputs":[],"stateMutability":"nonpayable"},{"type":"function","name":"DEFAULT_ADMIN_ROLE","inputs":[],"outputs":[{"name":"","type":"bytes32","internalType":"bytes32"}],"stateMutability":"view"},{"type":"function","name":"ORGANIZER_ROLE","inputs":[],"outputs":[{"name":"","type":"bytes32","internalType":"bytes32"}],"stateMutability":"view"},{"type":"function","name":"VERIFIER_ROLE","inputs":[],"outputs":[{"name":"","type":"bytes32","internalType":"bytes32"}],"stateMutability":"view"},{"type":"function","name":"acceptedTokens","inputs":[{"name":"","type":"address","internalType":"address"}],"outputs":[{"name":"","type":"bool","internalType":"bool"}],"stateMutability":"view"},{"type":"function","name":"addPaymentToken","inputs":[{"name":"token","type":"address","internalType":"address"}],"outputs":[],"stateMutability":"nonpayable"},{"type":"function","name":"balanceOf","inputs":[{"name":"account","type":"address","internalType":"address"},{"name":"id","type":"uint256","internalType":"uint256"}],"outputs":[{"name":"","type":"uint256","internalType":"uint256"}],"stateMutability":"view"},{"type":"function","name":"balanceOfBatch","inputs":[{"name":"accounts","type":"address[]","internalType":"address[]"},{"name":"ids","type":"uint256[]","internalType":"uint256[]"}],"outputs":[{"name":"","type":"uint256[]","internalType":"uint256[]"}],"stateMutability":"view"},{"type":"function","name":"cancelEvent","inputs":[],"outputs":[],"stateMutability":"nonpayable"},{"type":"function","name":"checkIn","inputs":[{"name":"user","type":"address","internalType":"address"},{"name":"tierId","type":"uint256","internalType":"uint256"}],"outputs":[],"stateMutability":"nonpayable"},{"type":"function","name":"claimRefund","inputs":[{"name":"tierId","type":"uint256","internalType":"uint256"}],"outputs":[],"stateMutability":"nonpayable"},{"type":"function","name":"createTier","inputs":[{"name":"tierId","type":"uint256","internalType":"uint256"},{"name":"maxSupply","type":"uint256","internalType":"uint256"},{"name":"price","type":"uint256","internalType":"uint256"}],"outputs":[],"stateMutability":"nonpayable"},{"type":"function","name":"createTiersBatch","inputs":[{"name":"tierIds","type":"uint256[]","internalType":"uint256[]"},{"name":"maxSupplies","type":"uint256[]","internalType":"uint256[]"},{"name":"prices","type":"uint256[]","internalType":"uint256[]"}],"outputs":[],"stateMutability":"nonpayable"},{"type":"function","name":"endEvent","inputs":[],"outputs":[],"stateMutability":"nonpayable"},{"type":"function","name":"eventDate","inputs":[],"outputs":[{"name":"","type":"uint256","internalType":"uint256"}],"stateMutability":"view"},{"type":"function","name":"eventId","inputs":[],"outputs":[{"name":"","type":"uint256","internalType":"uint256"}],"stateMutability":"view"},{"type":"function","name":"eventManager","inputs":[],"outputs":[{"name":"","type":"address","internalType":"contract IEventManager"}],"stateMutability":"view"},{"type":"function","name":"eventName","inputs":[],"outputs":[{"name":"","type":"string","internalType":"string"}],"stateMutability":"view"},{"type":"function","name":"factory","inputs":[],"outputs":[{"name":"","type":"address","internalType":"address"}],"stateMutability":"view"},{"type":"function","name":"getRoleAdmin","inputs":[{"name":"role","type":"bytes32","internalType":"bytes32"}],"outputs":[{"name":"","type":"bytes32","internalType":"bytes32"}],"stateMutability":"view"},{"type":"function","name":"goLive","inputs":[],"outputs":[],"stateMutability":"nonpayable"},{"type":"function","name":"grantRole","inputs":[{"name":"role","type":"bytes32","internalType":"bytes32"},{"name":"account","type":"address","internalType":"address"}],"outputs":[],"stateMutability":"nonpayable"},{"type":"function","name":"hasRole","inputs":[{"name":"role","type":"bytes32","internalType":"bytes32"},{"name":"account","type":"address","internalType":"address"}],"outputs":[{"name":"","type":"bool","internalType":"bool"}],"stateMutability":"view"},{"type":"function","name":"initialize","inputs":[{"name":"_organizer","type":"address","internalType":"address"},{"name":"_eventId","type":"uint256","internalType":"uint256"},{"name":"_eventDate","type":"uint256","internalType":"uint256"},{"name":"_eventName","type":"string","internalType":"string"},{"name":"baseURI","type":"string","internalType":"string"},{"name":"_marketplace","type":"address","internalType":"address"},{"name":"_eventManager","type":"address","internalType":"address"}],"outputs":[],"stateMutability":"nonpayable"},{"type":"function","name":"initialized","inputs":[],"outputs":[{"name":"","type":"bool","internalType":"bool"}],"stateMutability":"view"},{"type":"function","name":"isApprovedForAll","inputs":[{"name":"account","type":"address","internalType":"address"},{"name":"operator","type":"address","internalType":"address"}],"outputs":[{"name":"","type":"bool","internalType":"bool"}],"stateMutability":"view"},{"type":"function","name":"marketplace","inputs":[],"outputs":[{"name":"","type":"address","internalType":"address"}],"stateMutability":"view"},{"type":"function","name":"organizer","inputs":[],"outputs":[{"name":"","type":"address","internalType":"address"}],"stateMutability":"view"},{"type":"function","name":"pause","inputs":[],"outputs":[],"stateMutability":"nonpayable"},{"type":"function","name":"paused","inputs":[],"outputs":[{"name":"","type":"bool","internalType":"bool"}],"stateMutability":"view"},{"type":"function","name":"purchaseTicket","inputs":[{"name":"tierId","type":"uint256","internalType":"uint256"},{"name":"amount","type":"uint256","internalType":"uint256"}],"outputs":[],"stateMutability":"payable"},{"type":"function","name":"purchaseTicketWithToken","inputs":[{"name":"tierId","type":"uint256","internalType":"uint256"},{"name":"amount","type":"uint256","internalType":"uint256"},{"name":"token","type":"address","internalType":"address"}],"outputs":[],"stateMutability":"nonpayable"},{"type":"function","name":"refundClaims","inputs":[{"name":"","type":"address","internalType":"address"},{"name":"","type":"uint256","internalType":"uint256"}],"outputs":[{"name":"","type":"uint256","internalType":"uint256"}],"stateMutability":"view"},{"type":"function","name":"renounceRole","inputs":[{"name":"role","type":"bytes32","internalType":"bytes32"},{"name":"callerConfirmation","type":"address","internalType":"address"}],"outputs":[],"stateMutability":"nonpayable"},{"type":"function","name":"revokeRole","inputs":[{"name":"role","type":"bytes32","internalType":"bytes32"},{"name":"account","type":"address","internalType":"address"}],"outputs":[],"stateMutability":"nonpayable"},{"type":"function","name":"safeBatchTransferFrom","inputs":[{"name":"from","type":"address","internalType":"address"},{"name":"to","type":"address","internalType":"address"},{"name":"ids","type":"uint256[]","internalType":"uint256[]"},{"name":"values","type":"uint256[]","internalType":"uint256[]"},{"name":"data","type":"bytes","internalType":"bytes"}],"outputs":[],"stateMutability":"nonpayable"},{"type":"function","name":"safeTransferFrom","inputs":[{"name":"from","type":"address","internalType":"address"},{"name":"to","type":"address","internalType":"address"},{"name":"id","type":"uint256","internalType":"uint256"},{"name":"value","type":"uint256","internalType":"uint256"},{"name":"data","type":"bytes","internalType":"bytes"}],"outputs":[],"stateMutability":"nonpayable"},{"type":"function","name":"setApprovalForAll","inputs":[{"name":"operator","type":"address","internalType":"address"},{"name":"approved","type":"bool","internalType":"bool"}],"outputs":[],"stateMutability":"nonpayable"},{"type":"function","name":"supportsInterface","inputs":[{"name":"interfaceId","type":"bytes4","internalType":"bytes4"}],"outputs":[{"name":"","type":"bool","internalType":"bool"}],"stateMutability":"view"},{"type":"function","name":"tiers","inputs":[{"name":"","type":"uint256","internalType":"uint256"}],"outputs":[{"name":"maxSupply","type":"uint256","internalType":"uint256"},{"name":"minted","type":"uint256","internalType":"uint256"},{"name":"price","type":"uint256","internalType":"uint256"},{"name":"exists","type":"bool","internalType":"bool"}],"stateMutability":"view"},{"type":"function","name":"unpause","inputs":[],"outputs":[],"stateMutability":"nonpayable"},{"type":"function","name":"uri","inputs":[{"name":"","type":"uint256","internalType":"uint256"}],"outputs":[{"name":"","type":"string","internalType":"string"}],"stateMutability":"view"},{"type":"function","name":"usedTickets","inputs":[{"name":"","type":"address","internalType":"address"},{"name":"","type":"uint256","internalType":"uint256"}],"outputs":[{"name":"","type":"uint256","internalType":"uint256"}],"stateMutability":"view"},{"type":"function","name":"withdraw","inputs":[],"outputs":[],"stateMutability":"nonpayable"},{"type":"event","name":"ApprovalForAll","inputs":[{"name":"account","type":"address","indexed":true,"internalType":"address"},{"name":"operator","type":"address","indexed":true,"internalType":"address"},{"name":"approved","type":"bool","indexed":false,"internalType":"bool"}],"anonymous":false},{"type":"event","name":"Paused","inputs":[{"name":"account","type":"address","indexed":false,"internalType":"address"}],"anonymous":false},{"type":"event","name":"RefundProcessed","inputs":[{"name":"user","type":"address","indexed":true,"internalType":"address"},{"name":"tierId","type":"uint256","indexed":true,"internalType":"uint256"},{"name":"amount","type":"uint256","indexed":true,"internalType":"uint256"}],"anonymous":false},{"type":"event","name":"RoleAdminChanged","inputs":[{"name":"role","type":"bytes32","indexed":true,"internalType":"bytes32"},{"name":"previousAdminRole","type":"bytes32","indexed":true,"internalType":"bytes32"},{"name":"newAdminRole","type":"bytes32","indexed":true,"internalType":"bytes32"}],"anonymous":false},{"type":"event","name":"RoleGranted","inputs":[{"name":"role","type":"bytes32","indexed":true,"internalType":"bytes32"},{"name":"account","type":"address","indexed":true,"internalType":"address"},{"name":"sender","type":"address","indexed":true,"internalType":"address"}],"anonymous":false},{"type":"event","name":"RoleRevoked","inputs":[{"name":"role","type":"bytes32","indexed":true,"internalType":"bytes32"},{"name":"account","type":"address","indexed":true,"internalType":"address"},{"name":"sender","type":"address","indexed":true,"internalType":"address"}],"anonymous":false},{"type":"event","name":"TicketCheckedIn","inputs":[{"name":"user","type":"address","indexed":true,"internalType":"address"},{"name":"tierId","type":"uint256","indexed":false,"internalType":"uint256"}],"anonymous":false},{"type":"event","name":"TicketPurchased","inputs":[{"name":"buyer","type":"address","indexed":true,"internalType":"address"},{"name":"tierId","type":"uint256","indexed":true,"internalType":"uint256"},{"name":"amount","type":"uint256","indexed":false,"internalType":"uint256"},{"name":"token","type":"address","indexed":false,"internalType":"address"}],"anonymous":false},{"type":"event","name":"TicketTierCreated","inputs":[{"name":"tierId","type":"uint256","indexed":true,"internalType":"uint256"},{"name":"maxSupply","type":"uint256","indexed":false,"internalType":"uint256"},{"name":"price","type":"uint256","indexed":false,"internalType":"uint256"}],"anonymous":false},{"type":"event","name":"TransferBatch","inputs":[{"name":"operator","type":"address","indexed":true,"internalType":"address"},{"name":"from","type":"address","indexed":true,"internalType":"address"},{"name":"to","type":"address","indexed":true,"internalType":"address"},{"name":"ids","type":"uint256[]","indexed":false,"internalType":"uint256[]"},{"name":"values","type":"uint256[]","indexed":false,"internalType":"uint256[]"}],"anonymous":false},{"type":"event","name":"TransferSingle","inputs":[{"name":"operator","type":"address","indexed":true,"internalType":"address"},{"name":"from","type":"address","indexed":true,"internalType":"address"},{"name":"to","type":"address","indexed":true,"internalType":"address"},{"name":"id","type":"uint256","indexed":false,"internalType":"uint256"},{"name":"value","type":"uint256","indexed":false,"internalType":"uint256"}],"anonymous":false},{"type":"event","name":"URI","inputs":[{"name":"value","type":"string","indexed":false,"internalType":"string"},{"name":"id","type":"uint256","indexed":true,"internalType":"uint256"}],"anonymous":false},{"type":"event","name":"Unpaused","inputs":[{"name":"account","type":"address","indexed":false,"internalType":"address"}],"anonymous":false},{"type":"error","name":"AccessControlBadConfirmation","inputs":[]},{"type":"error","name":"AccessControlUnauthorizedAccount","inputs":[{"name":"account","type":"address","internalType":"address"},{"name":"neededRole","type":"bytes32","internalType":"bytes32"}]},{"type":"error","name":"AlreadyInitialized","inputs":[]},{"type":"error","name":"ERC1155InsufficientBalance","inputs":[{"name":"sender","type":"address","internalType":"address"},{"name":"balance","type":"uint256","internalType":"uint256"},{"name":"needed","type":"uint256","internalType":"uint256"},{"name":"tokenId","type":"uint256","internalType":"uint256"}]},{"type":"error","name":"ERC1155InvalidApprover","inputs":[{"name":"approver","type":"address","internalType":"address"}]},{"type":"error","name":"ERC1155InvalidArrayLength","inputs":[{"name":"idsLength","type":"uint256","internalType":"uint256"},{"name":"valuesLength","type":"uint256","internalType":"uint256"}]},{"type":"error","name":"ERC1155InvalidOperator","inputs":[{"name":"operator","type":"address","internalType":"address"}]},{"type":"error","name":"ERC1155InvalidReceiver","inputs":[{"name":"receiver","type":"address","internalType":"address"}]},{"type":"error","name":"ERC1155InvalidSender","inputs":[{"name":"sender","type":"address","internalType":"address"}]},{"type":"error","name":"ERC1155MissingApprovalForAll","inputs":[{"name":"operator","type":"address","internalType":"address"},{"name":"owner","type":"address","internalType":"address"}]},{"type":"error","name":"EnforcedPause","inputs":[]},{"type":"error","name":"EventPassed","inputs":[]},{"type":"error","name":"ExpectedPause","inputs":[]},{"type":"error","name":"InsufficientPayment","inputs":[]},{"type":"error","name":"NoUnusedTickets","inputs":[]},{"type":"error","name":"ReentrancyGuardReentrantCall","inputs":[]},{"type":"error","name":"RefundNotAvailable","inputs":[]},{"type":"error","name":"SafeERC20FailedOperation","inputs":[{"name":"token","type":"address","internalType":"address"}]},{"type":"error","name":"SoldOut","inputs":[]},{"type":"error","name":"TierExists","inputs":[]},{"type":"error","name":"TierNotFound","inputs":[]},{"type":"error","name":"TokenNotAccepted","inputs":[]}],"bytecode":{"object":"0x60803460d75760208101906001600160401b0382118183101760c3575f9160405252600254600181811c9116801560ba575b602082101460a657601f81116078575b5f60025560017f9b779b17422d0df92223018b32b4d1fa46e071723d6817e2486d003becc55f00556040516131bb90816100dc8239f35b801560415760025f52601f60205f20910160051c5f5b818110609a5750506041565b5f83820155600101608e565b634e487b7160e01b5f52602260045260245ffd5b90607f16906031565b634e487b7160e01b5f52604160045260245ffd5b5f80fdfe60806040526004361015610011575f80fd5b5f3560e01c8062fdd58e146102be57806301ffc9a7146102b9578063039af9eb146102b4578063064ed686146102af578063089cdd0c146102aa5780630e89341c146102a557806313cbbcc3146102a0578063158ef93e1461029b578063248a9ca3146102965780632af1b804146102915780632c28f5791461028c5780632e66c69a146102875780632eb2c2d6146102825780632f2ff15d1461027d57806336568abe146102785780633ccfd60b146102735780633f4ba83a1461026e5780634a7dc8e0146102695780634bfbe5df146102645780634e1273f41461025f5780635b7baf641461025a5780635c975abb1461025557806361203265146102505780637909cb591461024b5780638043c9c01461024657806382dc4a05146102415780638456cb591461023c5780638591ed341461023757806386ec6177146101f15780638fd611be1461023257806391d148541461022d578063a217fddf14610228578063a22cb46514610223578063abc8c7af1461021e578063bdb756b914610219578063bdbbb0cb14610214578063c45a01551461020f578063c88371c01461020a578063d547741f14610205578063e7705db614610200578063e985e9c5146101fb578063f242432a146101f65763fb6c9537146101f1575f80fd5b611483565b611a8f565b611a3f565b611a05565b6119c7565b611982565b611956565b611893565b611679565b611621565b611554565b611530565b6114e1565b6114b9565b611332565b6112bb565b61127e565b6111d9565b611167565b61113f565b61111d565b610f79565b610eba565b610e59565b610df7565b610d73565b610cfb565b610cb7565b610c74565b610bea565b610916565b610850565b61080b565b6107d8565b6107b6565b61072c565b610624565b6105cf565b610467565b610416565b61038d565b610333565b600435906001600160a01b03821682036102d957565b5f80fd5b604435906001600160a01b03821682036102d957565b60c435906001600160a01b03821682036102d957565b602435906001600160a01b03821682036102d957565b35906001600160a01b03821682036102d957565b346102d95760403660031901126102d95760206103726103516102c3565b6024355f525f835260405f209060018060a01b03165f5260205260405f2090565b54604051908152f35b6001600160e01b03198116036102d957565b346102d95760203660031901126102d9576004356103aa8161037b565b63ffffffff60e01b16637965db0b60e01b81149081156103d3575b506040519015158152602090f35b636cdb3d1360e11b811491508115610405575b81156103f4575b505f6103c5565b6301ffc9a760e01b1490505f6103ed565b6303a24d0760e21b811491506103e6565b346102d95760203660031901126102d9576004355f52600c602052608060405f2080549060018101549060ff6003600283015492015416916040519384526020840152604083015215156060820152f35b346102d95760603660031901126102d9576024356004356104866102dd565b61048e6122f5565b61049661232d565b6007546104b3906001600160a01b03165b6001600160a01b031690565b6001600160a01b03811615801561055d575b6104cf9150611b78565b6001600160a01b0381165f908152600b602052604090205460ff16156104f4565b1590565b61054e578261051b610536946002610514865f52600c60205260405f2090565b0154611bca565b926105318430336001600160a01b038716612348565b612528565b61054c60015f5160206131665f395f51905f5255565b005b63e51cf7bf60e01b5f5260045ffd5b5060085460405163110f269760e01b8152600481019190915290602090829060249082905afa80156105ca576104cf915f9161059b575b50156104c5565b6105bd915060203d6020116105c3575b6105b58183610ad3565b810190611b58565b5f610594565b503d6105ab565b611b6d565b346102d9575f3660031901126102d9576020600854604051908152f35b805180835260209291819084018484015e5f828201840152601f01601f1916010190565b9060206106219281815201906105ec565b90565b346102d95760203660031901126102d9576040515f600254610645816111a1565b80845290600181169081156106db575060011461067d575b6106798361066d81850382610ad3565b60405191829182610610565b0390f35b60025f9081527f405787fa12a823e0f2b7631cc41b3ba8828b3321ca811111fa75cd3aa3bb5ace939250905b8082106106c15750909150810160200161066d61065d565b9192600181602092548385880101520191019092916106a9565b60ff191660208086019190915291151560051b8401909101915061066d905061065d565b9181601f840112156102d9578235916001600160401b0383116102d957602083818601950101116102d957565b346102d95760e03660031901126102d9576107456102c3565b602435906044356064356001600160401b0381116102d95761076b9036906004016106ff565b906084356001600160401b0381116102d95761078b9036906004016106ff565b60a4359490939192906001600160a01b03861686036102d95761054c976107b06102f3565b97611d80565b346102d9575f3660031901126102d957602060ff600f54166040519015158152f35b346102d95760203660031901126102d95760206108036004355f526003602052600160405f20015490565b604051908152f35b346102d95760403660031901126102d9576108246102c3565b6024359060018060a01b03165f52600d60205260405f20905f52602052602060405f2054604051908152f35b346102d9575f3660031901126102d957335f9081525f5160206131465f395f51905f52602052604090206108899060ff905b5416611eb6565b60075461089e906001600160a01b03166104a7565b6001600160a01b0381161580156108b9575b61054c90611b78565b5060085460405163110f269760e01b8152600481019190915290602090829060249082905afa80156105ca5761054c915f916108f7575b50156108b0565b610910915060203d6020116105c3576105b58183610ad3565b5f6108f0565b346102d95760403660031901126102d95761092f6102c3565b6024359061093b6122f5565b610943612914565b600754610958906001600160a01b03166104a7565b6001600160a01b038116158015610a62575b6109749150611b78565b61099e81610989845f525f60205260405f2090565b9060018060a01b03165f5260205260405f2090565b546001600160a01b0382165f908152600d602052604090206109ca9084905b905f5260205260405f2090565b541015610a5357610a3a81610a14846109bd7f91436f5292e799e10595d7ca27d2cef541b70e42a3b900430d60344be07e3b9a9560018060a01b03165f52600d60205260405f2090565b610a1e8154611ef2565b90556040519384526001600160a01b0316929081906020820190565b0390a261054c60015f5160206131665f395f51905f5255565b63a53c6c4f60e01b5f5260045ffd5b5060085460405163110f269760e01b8152600481019190915290602090829060249082905afa80156105ca57610974915f91610aa0575b501561096a565b610ab9915060203d6020116105c3576105b58183610ad3565b5f610a99565b634e487b7160e01b5f52604160045260245ffd5b90601f801991011681019081106001600160401b03821117610af457604052565b610abf565b60405190610b08608083610ad3565b565b6001600160401b038111610af45760051b60200190565b9080601f830112156102d9578135610b3881610b0a565b92610b466040519485610ad3565b81845260208085019260051b8201019283116102d957602001905b828210610b6e5750505090565b8135815260209182019101610b61565b6001600160401b038111610af457601f01601f191660200190565b929192610ba582610b7e565b91610bb36040519384610ad3565b8294818452818301116102d9578281602093845f960137010152565b9080601f830112156102d95781602061062193359101610b99565b346102d95760a03660031901126102d957610c036102c3565b610c0b610309565b906044356001600160401b0381116102d957610c2b903690600401610b21565b6064356001600160401b0381116102d957610c4a903690600401610b21565b90608435936001600160401b0385116102d957610c6e61054c953690600401610bcf565b93611f00565b346102d95760403660031901126102d95761054c600435610c93610309565b90610cb2610cad825f526003602052600160405f20015490565b612983565b612884565b346102d95760403660031901126102d957600435610cd3610309565b336001600160a01b03821603610cec5761054c91612a23565b63334bd91960e11b5f5260045ffd5b346102d9575f3660031901126102d957335f9081525f5160206131465f395f51905f5260205260409020610d319060ff90610882565b610d396122f5565b5f8080804760018060a01b0360055416828215610d6a575bf1156105ca5760015f5160206131665f395f51905f5255005b506108fc610d51565b346102d9575f3660031901126102d957335f9081525f5160206131465f395f51905f5260205260409020610da99060ff90610882565b60045460ff811615610de85760ff19166004557f5db9ee0a495bf2e6ff9c91a7834c1ba4fdd244a5e8aa4e537bd38aeae4b073aa6020604051338152a1005b638dfc202b60e01b5f5260045ffd5b346102d95760203660031901126102d957610e106102c3565b335f9081525f5160206131465f395f51905f5260205260409020610e369060ff90610882565b6001600160a01b03165f908152600b60205260409020805460ff19166001179055005b346102d9575f3660031901126102d9576020600954604051908152f35b90602080835192838152019201905f5b818110610e935750505090565b8251845260209384019390920191600101610e86565b906020610621928181520190610e76565b346102d95760403660031901126102d9576004356001600160401b0381116102d957366023820112156102d957806004013590610ef682610b0a565b91610f046040519384610ad3565b8083526024602084019160051b830101913683116102d957602401905b828210610f6157836024356001600160401b0381116102d95761067991610f4f610f55923690600401610b21565b906120a2565b60405191829182610ea9565b60208091610f6e8461031f565b815201910190610f21565b346102d95760203660031901126102d957600435610f956122f5565b600754610faa906001600160a01b03166104a7565b6001600160a01b0381161515806110c1575b610fc69150612156565b610fdb33610989835f525f60205260405f2090565b54335f908152600e60205260409020909190610ff89082906109bd565b54808311156110b2576110578161103161101561105e9487612198565b6002611029875f52600c60205260405f2090565b015490611bca565b9480611051866109bd3360018060a01b03165f52600e60205260405f2090565b55612198565b8233612aab565b6110775f80808086335af16110716121b9565b506121e8565b337fa5411d116afcb8415f0019792cccf595f94852ba82886dacbf756d9c3ce85f3f5f80a461054c60015f5160206131665f395f51905f5255565b630b4d698160e01b5f5260045ffd5b5060085460405163110f269760e01b8152600481019190915290602090829060249082905afa80156105ca57610fc6915f916110fe575b50610fbc565b611117915060203d6020116105c3576105b58183610ad3565b5f6110f8565b346102d9575f3660031901126102d957602060ff600454166040519015158152f35b346102d9575f3660031901126102d9576005546040516001600160a01b039091168152602090f35b346102d9575f3660031901126102d95760206040517f5dd10662f89eb5beab8229dc002469949533556d433e73af3981b3939fb8d4368152f35b90600182811c921680156111cf575b60208310146111bb57565b634e487b7160e01b5f52602260045260245ffd5b91607f16916111b0565b346102d9575f3660031901126102d9576040515f600a546111f9816111a1565b80845290600181169081156106db5750600114611220576106798361066d81850382610ad3565b600a5f9081527fc65a7bb8d6351c1cf70c95a316cc6a92839c986682d98bc35f958f4883f9d2a8939250905b8082106112645750909150810160200161066d61065d565b91926001816020925483858801015201910190929161124c565b346102d95760203660031901126102d9576001600160a01b0361129f6102c3565b165f52600b602052602060ff60405f2054166040519015158152f35b346102d9575f3660031901126102d957335f9081525f5160206131465f395f51905f52602052604090206112f19060ff90610882565b6112f961232d565b600160ff1960045416176004557f62e78cea01bee320cd4e420270b5ea74000d11b0c9f74754ebdbfc544b05a2586020604051338152a1005b346102d95760603660031901126102d957600435602435604435335f9081525f5160206131465f395f51905f52602052604090206113729060ff90610882565b6113916003611389855f52600c60205260405f2090565b015460ff1690565b611474577ffa0b139df20a8f84da17e221cbb5c3381654f1dc988d7b9fe7e0015a9435c9df916113f56113c2610af9565b8281525f60208201528360408201526113de6060820160019052565b6113f0865f52600c60205260405f2090565b612224565b6006546001600160a01b03168061141a575b50604080519182526020820192909252a2005b604051636a5f6fb760e11b60208201908152602482018790526044820185905261146e925f92839290839061145c81606481015b03601f198101835282610ad3565b51925af16114686121b9565b5061225b565b5f611407565b63536a109d60e11b5f5260045ffd5b346102d9575f3660031901126102d957335f9081525f5160206131465f395f51905f526020526040902061054c9060ff90610882565b346102d9575f3660031901126102d9576007546040516001600160a01b039091168152602090f35b346102d95760403660031901126102d957602060ff611524600435611504610309565b905f526003845260405f209060018060a01b03165f5260205260405f2090565b54166040519015158152f35b346102d9575f3660031901126102d95760206040515f8152f35b801515036102d957565b346102d95760403660031901126102d95761156d6102c3565b6024356115798161154a565b331561160e576001600160a01b0382169182156115fc57816115b96115ca92335f52600160205260405f209060018060a01b03165f5260205260405f2090565b9060ff801983541691151516179055565b604051901515815233907f17307eab39ab6107e8899845ad3d59bd9653f200f220920489ca2b5937696c3190602090a3005b62ced3e160e81b5f525f60045260245ffd5b631f18c42760e11b5f525f60045260245ffd5b346102d9575f3660031901126102d9576006546040516001600160a01b039091168152602090f35b9181601f840112156102d9578235916001600160401b0383116102d9576020808501948460051b0101116102d957565b346102d95760603660031901126102d9576004356001600160401b0381116102d9576116a9903690600401611649565b6024356001600160401b0381116102d9576116c8903690600401611649565b916044356001600160401b0381116102d9576116e8903690600401611649565b946116f16122f5565b335f9081525f5160206131465f395f51905f52602052604090206117179060ff90610882565b8483148061188a575b611729906122a7565b5f5b8381106117485761054c60015f5160206131665f395f51905f5255565b61176a600361138961175b8488876122e5565b355f52600c60205260405f2090565b61147457806117b761177f60019389896122e5565b3561178b838b886122e5565b35611794610af9565b9182525f60208301526040820152600160608201526113f061175b8489886122e5565b6006548890869085906001600160a01b031687858261182f575b93929150506117e093506122e5565b357ffa0b139df20a8f84da17e221cbb5c3381654f1dc988d7b9fe7e0015a9435c9df61180d838a8a6122e5565b35611819848c896122e5565b604080519283529035602083015290a20161172b565b61144e61145c6118548361187f9961184d5f9a968b9a978b986122e5565b35966122e5565b604051636a5f6fb760e11b602082019081526024820196909652903560448201529182906064820190565b8785845f87856117d1565b50828614611720565b60403660031901126102d9576024356004356118ad6122f5565b6118b561232d565b6007546118ca906001600160a01b03166104a7565b6001600160a01b03811615929083156118f2575b506118eb61053693611b78565b34916123e2565b60085460405163110f269760e01b815260048101919091529350602090849060249082905afa9283156105ca57610536936118eb915f91611937575b501593506118de565b611950915060203d6020116105c3576105b58183610ad3565b5f61192e565b346102d9575f3660031901126102d95760045460405160089190911c6001600160a01b03168152602090f35b346102d95760403660031901126102d95761199b6102c3565b6024359060018060a01b03165f52600e60205260405f20905f52602052602060405f2054604051908152f35b346102d95760403660031901126102d95761054c6004356119e6610309565b90611a00610cad825f526003602052600160405f20015490565b612a23565b346102d9575f3660031901126102d95760206040517fa48c898f5241be426b79d4b5a3c206f9c9a06576e1b72c338c3ec849771d56868152f35b346102d95760403660031901126102d957602060ff611524611a5f6102c3565b611a67610309565b6001600160a01b039182165f9081526001865260408082209290931681526020919091522090565b346102d95760a03660031901126102d957611aa86102c3565b611ab0610309565b60443590606435926084356001600160401b0381116102d957611ad7903690600401610bcf565b92611ae282336129bd565b6001600160a01b03831615611b45576001600160a01b03821615611b335761054c94611b2b60405192600184526020840152604083019160018352606084015260808301604052565b929091612d15565b626a0d4560e21b5f525f60045260245ffd5b632bfa23e760e11b5f525f60045260245ffd5b908160209103126102d957516106218161154a565b6040513d5f823e3d90fd5b15611b7f57565b60405162461bcd60e51b815260206004820152600f60248201526e115d995b9d0818d85b98d95b1b1959608a1b6044820152606490fd5b634e487b7160e01b5f52601160045260245ffd5b81810292918115918404141715611bdd57565b611bb6565b90601f8211611bef575050565b808211611bfa575050565b60025f5260205f206020601f830160051c9210611c39575b81601f9101920160051c03905f5b828110611c2c57505050565b5f82820155600101611c20565b5f9150611c12565b919091601f8311611c52575b505050565b818311611c5e57505050565b5f5260205f206020601f830160051c9210611c97575b81601f9101920160051c03905f5b82811015611c4d575f82820155600101611c82565b5f9150611c74565b91906001600160401b038111610af457611cc581611cbe600a546111a1565b600a611c41565b5f601f8211600114611d03578190611cf393945f92611cf8575b50508160011b915f199060031b1c19161790565b600a55565b013590505f80611cdf565b600a5f52601f198216937fc65a7bb8d6351c1cf70c95a316cc6a92839c986682d98bc35f958f4883f9d2a8915f5b868110611d685750836001959610611d4f575b505050811b01600a55565b01355f19600384901b60f8161c191690555f8080611d44565b90926020600181928686013581550194019101611d31565b969790919592949395600f549860ff8a16611ea85760ff19909916600117600f5560048054610100600160a81b03191633600890811b610100600160a81b031691909117909155600580546001600160a01b0319166001600160a01b038b1617905592909255611e6e97611e5f96611e5a96611e5394611e319392611e0f929091611e0a90600955565b611c9f565b60018060a01b03166bffffffffffffffffffffffff60a01b6006541617600655565b600780546001600160a01b0319166001600160a01b0392909216919091179055565b3691610b99565b612647565b611e6881612727565b506127d6565b505f8052600b602052610b087fdf7de25b7f1fd6d0b5205f0e18f1f35bd7b8d84cce336588d184533ce43a6f76805460ff19166001179055565b62dc149f60e41b5f5260045ffd5b15611ebd57565b60405162461bcd60e51b815260206004820152600d60248201526c2737ba1037b933b0b734bd32b960991b6044820152606490fd5b5f198114611bdd5760010190565b92919094611f0e84336129bd565b6001600160a01b038616948515611b45576001600160a01b038516958615611b335783518551908181036120605750505f5b8451811015611ff5578060051b6020808288010151918801015190611f7089610989835f525f60205260405f2090565b54828110611fbe57611fae8c61098985948d611fa060019998611fb6970391610989845f525f60205260405f2090565b555f525f60205260405f2090565b9182546123d5565b905501611f40565b6040516303dee4c560e01b81526001600160a01b038b16600482015260248101919091526044810183905260648101829052608490fd5b50610b089697929795919560018551145f146120395760208581015187820151604080519283529282015233915f5160206131265f395f51905f5291a45b33613067565b6040515f5160206131065f395f51905f523391806120588a8a83612eab565b0390a4612033565b635b05999160e01b5f5260045260245260445ffd5b634e487b7160e01b5f52603260045260245ffd5b805182101561209d5760209160051b010190565b612075565b919091805183518082036121415750508051906120be82610b0a565b916120cc6040519384610ad3565b8083526120db601f1991610b0a565b013660208401375f5b815181101561213a578061212960019260051b60208082870101519189010151905f918252602082815260408084206001600160a01b03909316845291905290205490565b6121338286612089565b52016120e4565b5090925050565b635b05999160e01b5f5260045260245260445ffd5b1561215d57565b60405162461bcd60e51b8152602060048201526013602482015272115d995b9d081b9bdd0818d85b98d95b1b1959606a1b6044820152606490fd5b91908203918211611bdd57565b604051906121b4602083610ad3565b5f8252565b3d156121e3573d906121ca82610b7e565b916121d86040519384610ad3565b82523d5f602084013e565b606090565b156121ef57565b60405162461bcd60e51b815260206004820152600d60248201526c1499599d5b990819985a5b1959609a1b6044820152606490fd5b60036060610b08938051845560208101516001850155604081015160028501550151151591019060ff801983541691151516179055565b1561226257565b60405162461bcd60e51b815260206004820152601760248201527f4d61726b6574706c6163652063616c6c206661696c65640000000000000000006044820152606490fd5b156122ae57565b60405162461bcd60e51b815260206004820152600f60248201526e098cadccee8d040dad2e6dac2e8c6d608b1b6044820152606490fd5b919081101561209d5760051b0190565b60025f5160206131665f395f51905f52541461231e5760025f5160206131665f395f51905f5255565b633ee5aeb560e01b5f5260045ffd5b60ff6004541661233957565b63d93c066560e01b5f5260045ffd5b6040516323b872dd60e01b5f9081526001600160a01b039384166004529290931660245260449390935260209060648180865af160015f51148116156123b6575b6040919091525f6060521561239b5750565b635274afe760e01b5f526001600160a01b031660045260245ffd5b60018115166123cc573d15833b15151616612389565b503d5f823e3d90fd5b91908201809211611bdd57565b916123fd6104f06003611389865f52600c60205260405f2090565b6125195760095442101561250a5761241d835f52600c60205260405f2090565b6001810180549161242e85846123d5565b8154106124fb57846002612443920154611bca565b918284106124ec5784612455916123d5565b905561246a6124626121a5565b848633612c00565b808211806124e4575b6124b5575b5050604080519182525f602083015233917f4cf695110eb016237150bbbf930c9f2377261d25c912abc9aaf6ae0834ddd3cb91819081015b0390a3565b5f806124c48194938294612198565b8181156124db575b3390f1156105ca575f80612478565b506108fc6124cc565b506001612473565b63cd1c886760e01b5f5260045ffd5b6352df9fe560e01b5f5260045ffd5b633ae6211360e11b5f5260045ffd5b63b4bcd5a960e01b5f5260045ffd5b929190916125466104f06003611389875f52600c60205260405f2090565b6125195760095442101561250a57612566845f52600c60205260405f2090565b906001820180549261257886856123d5565b8154106124fb5785600261258d920154611bca565b928383106124ec578561259f916123d5565b90556125b46125ac6121a5565b858733612c00565b81811180612636575b612608575b5050604080519283526001600160a01b03909116602083015233917f4cf695110eb016237150bbbf930c9f2377261d25c912abc9aaf6ae0834ddd3cb91819081016124b0565b5f8061261681948294612198565b81811561262d575b3390f1156105ca575f806125c2565b506108fc61261e565b506001600160a01b038316156125bd565b9081516001600160401b038111610af45761266c816126676002546111a1565b611be2565b602092601f82116001146126ab5761269b929382915f926126a05750508160011b915f199060031b1c19161790565b600255565b015190505f80611cdf565b60025f52601f198216937f405787fa12a823e0f2b7631cc41b3ba8828b3321ca811111fa75cd3aa3bb5ace915f5b86811061270f57508360019596106126f7575b505050811b01600255565b01515f1960f88460031b161c191690555f80806126ec565b919260206001819286850151815501940192016126d9565b6001600160a01b0381165f9081527f3617319a054d772f909f7c479a2cebe5066e836a939412e32403c99029b92eff602052604090205460ff166127d1576001600160a01b03165f8181527f3617319a054d772f909f7c479a2cebe5066e836a939412e32403c99029b92eff60205260408120805460ff191660011790553391907f2f8788117e7eff1d82e926ec794901d17c78024a50270940304540a733656f0d8180a4600190565b505f90565b6001600160a01b0381165f9081525f5160206131465f395f51905f52602052604090205460ff166127d1576001600160a01b0381165f9081525f5160206131465f395f51905f5260205260409020805460ff1916600117905533906001600160a01b03167f5dd10662f89eb5beab8229dc002469949533556d433e73af3981b3939fb8d4367f2f8788117e7eff1d82e926ec794901d17c78024a50270940304540a733656f0d5f80a4600190565b5f8181526003602090815260408083206001600160a01b038616845290915290205460ff1661290e575f8181526003602090815260408083206001600160a01b03861684529091529020805460ff1916600117905533916001600160a01b0316907f2f8788117e7eff1d82e926ec794901d17c78024a50270940304540a733656f0d5f80a4600190565b50505f90565b335f9081527fe6201b578b12afe10100ceef227ea294fd9f6db11f395517571c215c1f70bed8602052604090205460ff161561294c57565b63e2517d3f60e01b5f52336004527fa48c898f5241be426b79d4b5a3c206f9c9a06576e1b72c338c3ec849771d568660245260445ffd5b5f81815260036020908152604080832033845290915290205460ff16156129a75750565b63e2517d3f60e01b5f523360045260245260445ffd5b6001600160a01b03918216918116908282141590816129f5575b506129e0575050565b63711bec9160e11b5f5260045260245260445ffd5b5f8481526001602090815260408083206001600160a01b0390941683529290522060ff91505416155f6129d7565b5f8181526003602090815260408083206001600160a01b038616845290915290205460ff161561290e575f8181526003602090815260408083206001600160a01b03861684529091529020805460ff1916905533916001600160a01b0316907ff6391f5c32d9c69d2a47ea670b442974b53935d1edc7fd64eb21e047a839171b5f80a4600190565b926001600160a01b038416929091908315611b3357612ae760405192600184526020840152604083019160018352606084015260808301604052565b91906020915f604051612afa8582610ad3565b5281518451908181036120605750505f5b8251811015612b9b578060051b848082860101519187010151612b3989610989845f525f60205260405f2090565b54818110612b6457896109896001959493612b5d9303935f525f60205260405f2090565b5501612b0b565b6040516303dee4c560e01b81526001600160a01b038b16600482015260248101919091526044810182905260648101839052608490fd5b50945090915f939260018351148514612bdf579182015191015160408051928352602083019190915233915f5160206131265f395f51905f5291819081015b0390a4565b50612bda5f5160206131065f395f51905f5291604051918291339583612eab565b92936001600160a01b0384169390929091908415611b4557612c3f60405192600184526020840152604083019160018352606084015260808301604052565b92909485518451908181036120605750505f5b8651811015612c90578087612c88611fae8761098960208060019860051b8097010151958c010151945f525f60205260405f2090565b905501612c52565b5092909460208091610b089660018251145f14612ced575f838301515f5160206131265f395f51905f52612cdc8689015160405191829133958360209093929193604081019481520152565b0390a45b0151910151915f33612f1e565b5f6040515f5160206131065f395f51905f52339180612d0d8a8883612eab565b0390a4612ce0565b94939290919384518251908181036120605750506001600160a01b038681169586151595918516801515939192905f5b8451811015612e1e578060051b90898988602080868b010151958c01015192612d9d575b93600194612d7b575b50505001612d45565b612d9391610989611fae925f525f60205260405f2090565b90555f8981612d72565b50509091612db68d610989835f525f60205260405f2090565b54828110612de7578291898f612dde600197968f950391610989855f525f60205260405f2090565b55909450612d69565b6040516303dee4c560e01b81526001600160a01b038f16600482015260248101919091526044810183905260648101829052608490fd5b5091989593929790965060018851145f14612e845760208881015186820151604080519283529282015233915f5160206131265f395f51905f5291a45b612e67575b5050505050565b602080612e7a9601519201519233612f1e565b5f80808080612e60565b6040515f5160206131065f395f51905f52339180612ea3898d83612eab565b0390a4612e5b565b9091612ec261062193604084526040840190610e76565b916020818403910152610e76565b908160209103126102d957516106218161037b565b6001600160a01b039182168152911660208201526040810191909152606081019190915260a060808201819052610621929101906105ec565b9091949293853b612f32575b505050505050565b602093612f5491604051968795869563f23a6e6160e01b875260048701612ee5565b03815f6001600160a01b0387165af15f9181612fe3575b50612fa55750612f796121b9565b8051919082612f9e57632bfa23e760e11b5f526001600160a01b03821660045260245ffd5b6020915001fd5b6001600160e01b031916630dc5919f60e01b01612fc857505f8080808080612f2a565b632bfa23e760e11b5f526001600160a01b031660045260245ffd5b61300691925060203d60201161300d575b612ffe8183610ad3565b810190612ed0565b905f612f6b565b503d612ff4565b6001600160a01b0391821681529116602082015260a0604082018190526106219491939192613059929161304b9190860190610e76565b908482036060860152610e76565b9160808184039101526105ec565b9091949293853b61307a57505050505050565b60209361309c91604051968795869563bc197c8160e01b875260048701613014565b03815f6001600160a01b0387165af15f91816130e4575b506130c15750612f796121b9565b6001600160e01b0319166343e6837f60e01b01612fc857505f8080808080612f2a565b6130fe91925060203d60201161300d57612ffe8183610ad3565b905f6130b356fe4a39dc06d4c0dbc64b70af90fd698a233a518aa5d07e595d983b8c0526c8f7fbc3d58168c5ae7397731d063d5bbf3d657854427343f4c083240f7aacaa2d0f62468f96d11c191f23f4ba3e37f8d0d5796d22a5250691c44cc50d80d307a534a19b779b17422d0df92223018b32b4d1fa46e071723d6817e2486d003becc55f00a2646970667358221220d5aa90161bb7041edf7b565481987d6205c0a1ed5c6b4b6658f6f477948fc23264736f6c63430008210033","linkReferences":{}},"methodIdentifiers":{"DEFAULT_ADMIN_ROLE()":"a217fddf","ORGANIZER_ROLE()":"7909cb59","VERIFIER_ROLE()":"e7705db6","acceptedTokens(address)":"82dc4a05","addPaymentToken(address)":"4a7dc8e0","balanceOf(address,uint256)":"00fdd58e","balanceOfBatch(address[],uint256[])":"4e1273f4","cancelEvent()":"fb6c9537","checkIn(address,uint256)":"2e66c69a","claimRefund(uint256)":"5b7baf64","createTier(uint256,uint256,uint256)":"8591ed34","createTiersBatch(uint256[],uint256[],uint256[])":"bdb756b9","endEvent()":"86ec6177","eventDate()":"4bfbe5df","eventId()":"089cdd0c","eventManager()":"8fd611be","eventName()":"8043c9c0","factory()":"c45a0155","getRoleAdmin(bytes32)":"248a9ca3","goLive()":"2c28f579","grantRole(bytes32,address)":"2f2ff15d","hasRole(bytes32,address)":"91d14854","initialize(address,uint256,uint256,string,string,address,address)":"13cbbcc3","initialized()":"158ef93e","isApprovedForAll(address,address)":"e985e9c5","marketplace()":"abc8c7af","organizer()":"61203265","pause()":"8456cb59","paused()":"5c975abb","purchaseTicket(uint256,uint256)":"bdbbb0cb","purchaseTicketWithToken(uint256,uint256,address)":"064ed686","refundClaims(address,uint256)":"c88371c0","renounceRole(bytes32,address)":"36568abe","revokeRole(bytes32,address)":"d547741f","safeBatchTransferFrom(address,address,uint256[],uint256[],bytes)":"2eb2c2d6","safeTransferFrom(address,address,uint256,uint256,bytes)":"f242432a","setApprovalForAll(address,bool)":"a22cb465","supportsInterface(bytes4)":"01ffc9a7","tiers(uint256)":"039af9eb","unpause()":"3f4ba83a","uri(uint256)":"0e89341c","usedTickets(address,uint256)":"2af1b804","withdraw()":"3ccfd60b"},"id":49}