{"abi":[{"type":"constructor","inputs":[],"stateMutability":"nonpayable"},{"type":"function","name":"DEFAULT_ADMIN_ROLE","inputs":[],"outputs":[{"name":"","type":"bytes32","internalType":"bytes32"}],"stateMutability":"view"},{"type":"function","name":"METADATA_ADMIN","inputs":[],"outputs":[{"name":"","type":"bytes32","internalType":"bytes32"}],"stateMutability":"view"},{"type":"function","name":"batchSetMetadata","inputs":[{"name":"entityTypes","type":"uint8[]","internalType":"enum MetadataRegistry.MetadataType[]"},{"name":"entityIds","type":"uint256[]","internalType":"uint256[]"},{"name":"ipfsHashes","type":"string[]","internalType":"string[]"},{"name":"contentHashes","type":"bytes32[]","internalType":"bytes32[]"}],"outputs":[],"stateMutability":"nonpayable"},{"type":"function","name":"contentHashExists","inputs":[{"name":"","type":"bytes32","internalType":"bytes32"}],"outputs":[{"name":"","type":"bool","internalType":"bool"}],"stateMutability":"view"},{"type":"function","name":"freezeMetadata","inputs":[{"name":"entityType","type":"uint8","internalType":"enum MetadataRegistry.MetadataType"},{"name":"entityId","type":"uint256","internalType":"uint256"}],"outputs":[],"stateMutability":"nonpayable"},{"type":"function","name":"getMetadata","inputs":[{"name":"entityType","type":"uint8","internalType":"enum MetadataRegistry.MetadataType"},{"name":"entityId","type":"uint256","internalType":"uint256"}],"outputs":[{"name":"","type":"tuple","internalType":"struct MetadataRegistry.Metadata","components":[{"name":"ipfsHash","type":"string","internalType":"string"},{"name":"contentHash","type":"bytes32","internalType":"bytes32"},{"name":"timestamp","type":"uint256","internalType":"uint256"},{"name":"updatedBy","type":"address","internalType":"address"},{"name":"frozen","type":"bool","internalType":"bool"}]}],"stateMutability":"view"},{"type":"function","name":"getMetadataHistory","inputs":[{"name":"entityType","type":"uint8","internalType":"enum MetadataRegistry.MetadataType"},{"name":"entityId","type":"uint256","internalType":"uint256"}],"outputs":[{"name":"","type":"tuple[]","internalType":"struct MetadataRegistry.Metadata[]","components":[{"name":"ipfsHash","type":"string","internalType":"string"},{"name":"contentHash","type":"bytes32","internalType":"bytes32"},{"name":"timestamp","type":"uint256","internalType":"uint256"},{"name":"updatedBy","type":"address","internalType":"address"},{"name":"frozen","type":"bool","internalType":"bool"}]}],"stateMutability":"view"},{"type":"function","name":"getRoleAdmin","inputs":[{"name":"role","type":"bytes32","internalType":"bytes32"}],"outputs":[{"name":"","type":"bytes32","internalType":"bytes32"}],"stateMutability":"view"},{"type":"function","name":"grantRole","inputs":[{"name":"role","type":"bytes32","internalType":"bytes32"},{"name":"account","type":"address","internalType":"address"}],"outputs":[],"stateMutability":"nonpayable"},{"type":"function","name":"hasRole","inputs":[{"name":"role","type":"bytes32","internalType":"bytes32"},{"name":"account","type":"address","internalType":"address"}],"outputs":[{"name":"","type":"bool","internalType":"bool"}],"stateMutability":"view"},{"type":"function","name":"isContentHashUnique","inputs":[{"name":"contentHash","type":"bytes32","internalType":"bytes32"}],"outputs":[{"name":"","type":"bool","internalType":"bool"}],"stateMutability":"view"},{"type":"function","name":"metadata","inputs":[{"name":"","type":"uint8","internalType":"enum MetadataRegistry.MetadataType"},{"name":"","type":"uint256","internalType":"uint256"}],"outputs":[{"name":"ipfsHash","type":"string","internalType":"string"},{"name":"contentHash","type":"bytes32","internalType":"bytes32"},{"name":"timestamp","type":"uint256","internalType":"uint256"},{"name":"updatedBy","type":"address","internalType":"address"},{"name":"frozen","type":"bool","internalType":"bool"}],"stateMutability":"view"},{"type":"function","name":"metadataExists","inputs":[{"name":"entityType","type":"uint8","internalType":"enum MetadataRegistry.MetadataType"},{"name":"entityId","type":"uint256","internalType":"uint256"}],"outputs":[{"name":"","type":"bool","internalType":"bool"}],"stateMutability":"view"},{"type":"function","name":"metadataHistory","inputs":[{"name":"","type":"uint8","internalType":"enum MetadataRegistry.MetadataType"},{"name":"","type":"uint256","internalType":"uint256"},{"name":"","type":"uint256","internalType":"uint256"}],"outputs":[{"name":"ipfsHash","type":"string","internalType":"string"},{"name":"contentHash","type":"bytes32","internalType":"bytes32"},{"name":"timestamp","type":"uint256","internalType":"uint256"},{"name":"updatedBy","type":"address","internalType":"address"},{"name":"frozen","type":"bool","internalType":"bool"}],"stateMutability":"view"},{"type":"function","name":"renounceRole","inputs":[{"name":"role","type":"bytes32","internalType":"bytes32"},{"name":"callerConfirmation","type":"address","internalType":"address"}],"outputs":[],"stateMutability":"nonpayable"},{"type":"function","name":"revokeRole","inputs":[{"name":"role","type":"bytes32","internalType":"bytes32"},{"name":"account","type":"address","internalType":"address"}],"outputs":[],"stateMutability":"nonpayable"},{"type":"function","name":"setMetadata","inputs":[{"name":"entityType","type":"uint8","internalType":"enum MetadataRegistry.MetadataType"},{"name":"entityId","type":"uint256","internalType":"uint256"},{"name":"ipfsHash","type":"string","internalType":"string"},{"name":"contentHash","type":"bytes32","internalType":"bytes32"}],"outputs":[],"stateMutability":"nonpayable"},{"type":"function","name":"supportsInterface","inputs":[{"name":"interfaceId","type":"bytes4","internalType":"bytes4"}],"outputs":[{"name":"","type":"bool","internalType":"bool"}],"stateMutability":"view"},{"type":"event","name":"MetadataFrozen","inputs":[{"name":"entityType","type":"uint8","indexed":true,"internalType":"enum MetadataRegistry.MetadataType"},{"name":"entityId","type":"uint256","indexed":true,"internalType":"uint256"}],"anonymous":false},{"type":"event","name":"MetadataSet","inputs":[{"name":"entityType","type":"uint8","indexed":true,"internalType":"enum MetadataRegistry.MetadataType"},{"name":"entityId","type":"uint256","indexed":true,"internalType":"uint256"},{"name":"ipfsHash","type":"string","indexed":false,"internalType":"string"},{"name":"contentHash","type":"bytes32","indexed":false,"internalType":"bytes32"}],"anonymous":false},{"type":"event","name":"MetadataUpdated","inputs":[{"name":"entityType","type":"uint8","indexed":true,"internalType":"enum MetadataRegistry.MetadataType"},{"name":"entityId","type":"uint256","indexed":true,"internalType":"uint256"},{"name":"oldIpfsHash","type":"string","indexed":false,"internalType":"string"},{"name":"newIpfsHash","type":"string","indexed":false,"internalType":"string"}],"anonymous":false},{"type":"event","name":"RoleAdminChanged","inputs":[{"name":"role","type":"bytes32","indexed":true,"internalType":"bytes32"},{"name":"previousAdminRole","type":"bytes32","indexed":true,"internalType":"bytes32"},{"name":"newAdminRole","type":"bytes32","indexed":true,"internalType":"bytes32"}],"anonymous":false},{"type":"event","name":"RoleGranted","inputs":[{"name":"role","type":"bytes32","indexed":true,"internalType":"bytes32"},{"name":"account","type":"address","indexed":true,"internalType":"address"},{"name":"sender","type":"address","indexed":true,"internalType":"address"}],"anonymous":false},{"type":"event","name":"RoleRevoked","inputs":[{"name":"role","type":"bytes32","indexed":true,"internalType":"bytes32"},{"name":"account","type":"address","indexed":true,"internalType":"address"},{"name":"sender","type":"address","indexed":true,"internalType":"address"}],"anonymous":false},{"type":"error","name":"AccessControlBadConfirmation","inputs":[]},{"type":"error","name":"AccessControlUnauthorizedAccount","inputs":[{"name":"account","type":"address","internalType":"address"},{"name":"neededRole","type":"bytes32","internalType":"bytes32"}]},{"type":"error","name":"InvalidContentHash","inputs":[]},{"type":"error","name":"MetadataAlreadyFrozen","inputs":[]},{"type":"error","name":"MetadataNotFound","inputs":[]}],"bytecode":{"object":"0x60806040523461002c5761001233610030565b5061001c336100a6565b50604051611348908161013a8239f35b5f80fd5b6001600160a01b0381165f9081525f5160206114c25f395f51905f52602052604090205460ff166100a1576001600160a01b03165f8181525f5160206114c25f395f51905f5260205260408120805460ff191660011790553391905f5160206114825f395f51905f528180a4600190565b505f90565b6001600160a01b0381165f9081525f5160206114a25f395f51905f52602052604090205460ff166100a1576001600160a01b03165f8181525f5160206114a25f395f51905f5260205260408120805460ff191660011790553391907ff6e33f9720e4529cb1c710e3344dc00830589a3239198ffa39b07117085d250e905f5160206114825f395f51905f529080a460019056fe6080806040526004361015610012575f80fd5b5f3560e01c90816301ffc9a714610bb957508063248a9ca314610b875780632f2ff15d14610b5857806336568abe14610b22578063456feab214610af45780635f7668ce14610ac557806368664ee014610a3a57806380256043146106ec5780638b19b0ba1461069a5780638c3c54261461064257806391d14854146106075780639468371e1461030b57806399f08ad8146102d45780639d5ffad314610268578063a217fddf1461024e578063b1de303e14610214578063d547741f146101de5763efa731d8146100e2575f80fd5b346101da576100fa6100f336610c32565b9190610c98565b905f5260205260405f208054906001600160401b0382116101c6576040519161012960208260051b0184610d2f565b8083526020830180925f5260205f205f915b8383106101a857848660405191829160208301906020845251809152604083019060408160051b85010192915f905b82821061017957505050500390f35b919360019193955060206101988192603f198a82030186528851610e51565b960192019201859493919261016a565b600460206001926101b885611113565b81520192019201919061013b565b634e487b7160e01b5f52604160045260245ffd5b5f80fd5b346101da576102126101ef36610c0c565b9061020d610208825f525f602052600160405f20015490565b6111d2565b611292565b005b346101da575f3660031901126101da5760206040517ff6e33f9720e4529cb1c710e3344dc00830589a3239198ffa39b07117085d250e8152f35b346101da575f3660031901126101da5760206040515f8152f35b346101da576102a761027936610c32565b91905f608060405161028a81610d14565b606081528260208201528260408201528260608201520152610c81565b905f526020526102d06102bc60405f20611113565b604051918291602083526020830190610e51565b0390f35b346101da576102ec6102e536610c32565b9190610c81565b905f52602052602061030160405f2054610cdc565b1515604051908152f35b346101da5760803660031901126101da57600435600481101590816101da5760243591604435906001600160401b0382116101da57366023830112156101da578160040135906001600160401b0382116101da57602483019036602484860101116101da576064359361037c611163565b61038586610c81565b875f5260205260405f20600381019160ff835460a01c166105f85786156105e9576103b08254610cdc565b6104fa575b6103c9866103c38454610cdc565b84610eaa565b855f91601f821160011461048f576103f7925f9183610481575b50508160011b915f199060031b1c19161790565b81555b60018181018790554260029283015582546001600160a01b03191633179092555f86815260209190915260409020805460ff1916909117905561046d576104687f06d32ef3b0c3334d3a146c58ebb5ff78135ac7d69a6d9e8079a60cad9925fd4593604051938493846110f6565b0390a3005b634e487b7160e01b5f52602160045260245ffd5b602492500101358b806103e3565b9050601f19871691835f528760205f20935f5b8181106104dc5750106104c0575b505050600185811b0181556103fa565b01602401355f19600388901b60f8161c191690558880806104b0565b8484016024013586556001909501946020938401938b9350016104a2565b925061050587610c98565b885f526020526105188160405f20610fe1565b5f928888604051604081525f855461052f81610cdc565b908160408501526001811690815f146105c7575060011461058a575b50908061058283827f71041906b303232d204c04e29e5792c6f31358c94770758a9f0256b0665d4baa950360208401528c8c6110d6565b0390a36103b5565b5f878152602081209092505b8183106105aa57505081016060018161054b565b8054606084860101528e95508d9450602090920191600101610596565b60ff191660608086019190915291151560051b8401909101915082905061054b565b6368e1d61b60e01b5f5260045ffd5b633355c3a160e21b5f5260045ffd5b346101da5761061536610c0c565b905f525f60205260405f209060018060a01b03165f52602052602060ff60405f2054166040519015158152f35b346101da576106536102e536610c32565b905f5260205260405f2061066681610d50565b600182015460028301546003909301546040519384936102d09360a084901c60ff16936001600160a01b0316929186610e14565b346101da5760603660031901126101da5760043560048110156101da576106c360443591610c98565b6024355f5260205260405f209081548110156101da576106e291610caf565b5061066681610d50565b346101da5760803660031901126101da576004356001600160401b0381116101da5761071c903690600401610c51565b906024356001600160401b0381116101da5761073c903690600401610c51565b6044939193356001600160401b0381116101da5761075e903690600401610c51565b90926064356001600160401b0381116101da5761077f903690600401610c51565b91610788611163565b84811480610a31575b80610a28575b156109f1575f5b8181106107a757005b6107b281838a610e9a565b3560048110156101da576107c590610c81565b6107d082888c610e9a565b355f5260205260405f20600381019060ff825460a01c1615806109dd575b6107fd575b505060010161079e565b6108078154610cdc565b61099b575b61081783888b611095565b906001600160401b0382116101c65761083a826108348554610cdc565b85610eaa565b5f90601f83116001146109375761086792915f918361092c5750508160011b915f199060031b1c19161790565b81555b610875838787610e9a565b3560018201554260029091015580546001600160a01b0319163317905561089d818585610e9a565b355f52600260205260405f20600160ff198254161790556108bf81838a610e9a565b359060048210156101da576001916108d882898d610e9a565b35907f06d32ef3b0c3334d3a146c58ebb5ff78135ac7d69a6d9e8079a60cad9925fd45610906848a8d611095565b90610922610915878c8c610e9a565b35604051938493846110f6565b0390a3908a6107f3565b013590508e806103e3565b601f19831691845f5260205f20925f5b818110610983575090846001959493921061096a575b505050811b01815561086a565b01355f19600384901b60f8161c191690558d808061095d565b83830135855560019094019360209283019201610947565b6109a683858c610e9a565b3560048110156101da576109c5848a6109bf8f94610c98565b93610e9a565b355f526020526109d88160405f20610fe1565b61080c565b506109e9838787610e9a565b3515156107ee565b60405162461bcd60e51b815260206004820152600f60248201526e098cadccee8d040dad2e6dac2e8c6d608b1b6044820152606490fd5b50828114610797565b50838114610791565b346101da57610a4836610c32565b90610a51611163565b610a5a81610c81565b825f5260205260405f20610a6e8154610cdc565b15610ab657600301805460ff60a01b1916600160a01b179055600481101561046d577f86082ccb5c55fc99f814477c1c6e7756d0dac6cf331de64d4cce92f03de187d35f80a3005b63199224f160e31b5f5260045ffd5b346101da5760203660031901126101da576004355f526002602052602060ff60405f2054166040519015158152f35b346101da5760203660031901126101da576004355f526002602052602060ff60405f20541615604051908152f35b346101da57610b3036610c0c565b336001600160a01b03821603610b495761021291611292565b63334bd91960e11b5f5260045ffd5b346101da57610212610b6936610c0c565b90610b82610208825f525f602052600160405f20015490565b61120a565b346101da5760203660031901126101da576020610bb16004355f525f602052600160405f20015490565b604051908152f35b346101da5760203660031901126101da576004359063ffffffff60e01b82168092036101da57602091637965db0b60e01b8114908115610bfb575b5015158152f35b6301ffc9a760e01b14905083610bf4565b60409060031901126101da57600435906024356001600160a01b03811681036101da5790565b60409060031901126101da5760043560048110156101da579060243590565b9181601f840112156101da578235916001600160401b0383116101da576020808501948460051b0101116101da57565b600481101561046d575f52600160205260405f2090565b600481101561046d575f52600360205260405f2090565b8054821015610cc8575f5260205f209060021b01905f90565b634e487b7160e01b5f52603260045260245ffd5b90600182811c92168015610d0a575b6020831014610cf657565b634e487b7160e01b5f52602260045260245ffd5b91607f1691610ceb565b60a081019081106001600160401b038211176101c657604052565b90601f801991011681019081106001600160401b038211176101c657604052565b9060405191825f825492610d6384610cdc565b8084529360018116908115610dce5750600114610d8a575b50610d8892500383610d2f565b565b90505f9291925260205f20905f915b818310610db2575050906020610d88928201015f610d7b565b6020919350806001915483858901015201910190918492610d99565b905060209250610d8894915060ff191682840152151560051b8201015f610d7b565b805180835260209291819084018484015e5f828201840152601f01601f1916010190565b939092610e2f6080949796939760a0875260a0870190610df0565b602086019790975260408501526001600160a01b031660608401521515910152565b90608080610e68845160a0855260a0850190610df0565b60208086015190850152604080860151908501526060808601516001600160a01b031690850152930151151591015290565b9190811015610cc85760051b0190565b919091601f8311610ebb575b505050565b818311610ec757505050565b5f5260205f206020601f830160051c9210610f00575b81601f9101920160051c03905f5b82811015610eb6575f82820155600101610eeb565b5f9150610edd565b919091828114610fdc57610f1c8354610cdc565b6001600160401b0381116101c657610f38816103c38454610cdc565b5f93601f8211600114610f7657610f6792939482915f92610f6b5750508160011b915f199060031b1c19161790565b9055565b015490505f806103e3565b601f198216905f5260205f2094835f5260205f20915f5b818110610fc457509583600195969710610fac575b505050811b019055565b01545f1960f88460031b161c191690555f8080610fa2565b9192600180602092868b015481550194019201610f8d565b509050565b8054680100000000000000008110156101c65761100391600182018155610caf565b61108257818103611012575050565b600380826110228560ff95610f08565b600185015460018201556002850154600282015501920160018060a01b0360018060a01b03825416166bffffffffffffffffffffffff60a01b8454161783555460a01c16151581549060ff60a01b9060a01b169060ff60a01b1916179055565b634e487b7160e01b5f525f60045260245ffd5b9190811015610cc85760051b81013590601e19813603018212156101da5701908135916001600160401b0383116101da5760200182360381136101da579190565b908060209392818452848401375f828201840152601f01601f1916010190565b93929160209161110e916040875260408701916110d6565b930152565b9060405161112081610d14565b608060ff6003839561113181610d50565b8552600181015460208601526002810154604086015201546001600160a01b038116606085015260a01c161515910152565b335f9081527f29d3bf7c3aa5cc9ac17e8c33d5caa7aa6dc1a324adbc0acd230ecde1e241e647602052604090205460ff161561119b57565b63e2517d3f60e01b5f52336004527ff6e33f9720e4529cb1c710e3344dc00830589a3239198ffa39b07117085d250e60245260445ffd5b5f8181526020818152604080832033845290915290205460ff16156111f45750565b63e2517d3f60e01b5f523360045260245260445ffd5b5f818152602081815260408083206001600160a01b038616845290915290205460ff1661128c575f818152602081815260408083206001600160a01b0395909516808452949091528120805460ff19166001179055339291907f2f8788117e7eff1d82e926ec794901d17c78024a50270940304540a733656f0d9080a4600190565b50505f90565b5f818152602081815260408083206001600160a01b038616845290915290205460ff161561128c575f818152602081815260408083206001600160a01b0395909516808452949091528120805460ff19169055339291907ff6391f5c32d9c69d2a47ea670b442974b53935d1edc7fd64eb21e047a839171b9080a460019056fea26469706673582212203a96049c7959d792c347a04587c73e04cd0618505ed52aa4cc20e4bab3c5e68264736f6c634300082100332f8788117e7eff1d82e926ec794901d17c78024a50270940304540a733656f0d29d3bf7c3aa5cc9ac17e8c33d5caa7aa6dc1a324adbc0acd230ecde1e241e647ad3228b676f7d3cd4284a5443f17f1962b36e491b30a40b2405849e597ba5fb5","linkReferences":{}},"methodIdentifiers":{"DEFAULT_ADMIN_ROLE()":"a217fddf","METADATA_ADMIN()":"b1de303e","batchSetMetadata(uint8[],uint256[],string[],bytes32[])":"80256043","contentHashExists(bytes32)":"5f7668ce","freezeMetadata(uint8,uint256)":"68664ee0","getMetadata(uint8,uint256)":"9d5ffad3","getMetadataHistory(uint8,uint256)":"efa731d8","getRoleAdmin(bytes32)":"248a9ca3","grantRole(bytes32,address)":"2f2ff15d","hasRole(bytes32,address)":"91d14854","isContentHashUnique(bytes32)":"456feab2","metadata(uint8,uint256)":"8c3c5426","metadataExists(uint8,uint256)":"99f08ad8","metadataHistory(uint8,uint256,uint256)":"8b19b0ba","renounceRole(bytes32,address)":"36568abe","revokeRole(bytes32,address)":"d547741f","setMetadata(uint8,uint256,string,bytes32)":"9468371e","supportsInterface(bytes4)":"01ffc9a7"},"id":46}