{"abi":[{"type":"constructor","inputs":[],"stateMutability":"nonpayable"},{"type":"function","name":"DEFAULT_ADMIN_ROLE","inputs":[],"outputs":[{"name":"","type":"bytes32","internalType":"bytes32"}],"stateMutability":"view"},{"type":"function","name":"VERIFIER_ROLE","inputs":[],"outputs":[{"name":"","type":"bytes32","internalType":"bytes32"}],"stateMutability":"view"},{"type":"function","name":"approve","inputs":[{"name":"to","type":"address","internalType":"address"},{"name":"tokenId","type":"uint256","internalType":"uint256"}],"outputs":[],"stateMutability":"nonpayable"},{"type":"function","name":"awardPOAP","inputs":[{"name":"eventId","type":"uint256","internalType":"uint256"},{"name":"attendee","type":"address","internalType":"address"},{"name":"_metadataHash","type":"bytes32","internalType":"bytes32"}],"outputs":[],"stateMutability":"nonpayable"},{"type":"function","name":"awardPOAPBatch","inputs":[{"name":"eventId","type":"uint256","internalType":"uint256"},{"name":"attendees","type":"address[]","internalType":"address[]"},{"name":"metadataHashes","type":"bytes32[]","internalType":"bytes32[]"}],"outputs":[],"stateMutability":"nonpayable"},{"type":"function","name":"balanceOf","inputs":[{"name":"owner","type":"address","internalType":"address"}],"outputs":[{"name":"","type":"uint256","internalType":"uint256"}],"stateMutability":"view"},{"type":"function","name":"claimed","inputs":[{"name":"","type":"uint256","internalType":"uint256"},{"name":"","type":"address","internalType":"address"}],"outputs":[{"name":"","type":"bool","internalType":"bool"}],"stateMutability":"view"},{"type":"function","name":"getApproved","inputs":[{"name":"tokenId","type":"uint256","internalType":"uint256"}],"outputs":[{"name":"","type":"address","internalType":"address"}],"stateMutability":"view"},{"type":"function","name":"getRoleAdmin","inputs":[{"name":"role","type":"bytes32","internalType":"bytes32"}],"outputs":[{"name":"","type":"bytes32","internalType":"bytes32"}],"stateMutability":"view"},{"type":"function","name":"grantRole","inputs":[{"name":"role","type":"bytes32","internalType":"bytes32"},{"name":"account","type":"address","internalType":"address"}],"outputs":[],"stateMutability":"nonpayable"},{"type":"function","name":"hasRole","inputs":[{"name":"role","type":"bytes32","internalType":"bytes32"},{"name":"account","type":"address","internalType":"address"}],"outputs":[{"name":"","type":"bool","internalType":"bool"}],"stateMutability":"view"},{"type":"function","name":"isApprovedForAll","inputs":[{"name":"owner","type":"address","internalType":"address"},{"name":"operator","type":"address","internalType":"address"}],"outputs":[{"name":"","type":"bool","internalType":"bool"}],"stateMutability":"view"},{"type":"function","name":"metadataHash","inputs":[{"name":"","type":"uint256","internalType":"uint256"}],"outputs":[{"name":"","type":"bytes32","internalType":"bytes32"}],"stateMutability":"view"},{"type":"function","name":"name","inputs":[],"outputs":[{"name":"","type":"string","internalType":"string"}],"stateMutability":"view"},{"type":"function","name":"ownerOf","inputs":[{"name":"tokenId","type":"uint256","internalType":"uint256"}],"outputs":[{"name":"","type":"address","internalType":"address"}],"stateMutability":"view"},{"type":"function","name":"renounceRole","inputs":[{"name":"role","type":"bytes32","internalType":"bytes32"},{"name":"callerConfirmation","type":"address","internalType":"address"}],"outputs":[],"stateMutability":"nonpayable"},{"type":"function","name":"revokeRole","inputs":[{"name":"role","type":"bytes32","internalType":"bytes32"},{"name":"account","type":"address","internalType":"address"}],"outputs":[],"stateMutability":"nonpayable"},{"type":"function","name":"safeTransferFrom","inputs":[{"name":"from","type":"address","internalType":"address"},{"name":"to","type":"address","internalType":"address"},{"name":"tokenId","type":"uint256","internalType":"uint256"}],"outputs":[],"stateMutability":"nonpayable"},{"type":"function","name":"safeTransferFrom","inputs":[{"name":"from","type":"address","internalType":"address"},{"name":"to","type":"address","internalType":"address"},{"name":"tokenId","type":"uint256","internalType":"uint256"},{"name":"data","type":"bytes","internalType":"bytes"}],"outputs":[],"stateMutability":"nonpayable"},{"type":"function","name":"setApprovalForAll","inputs":[{"name":"operator","type":"address","internalType":"address"},{"name":"approved","type":"bool","internalType":"bool"}],"outputs":[],"stateMutability":"nonpayable"},{"type":"function","name":"supportsInterface","inputs":[{"name":"interfaceId","type":"bytes4","internalType":"bytes4"}],"outputs":[{"name":"","type":"bool","internalType":"bool"}],"stateMutability":"view"},{"type":"function","name":"symbol","inputs":[],"outputs":[{"name":"","type":"string","internalType":"string"}],"stateMutability":"view"},{"type":"function","name":"tokenEvent","inputs":[{"name":"","type":"uint256","internalType":"uint256"}],"outputs":[{"name":"","type":"uint256","internalType":"uint256"}],"stateMutability":"view"},{"type":"function","name":"tokenURI","inputs":[{"name":"tokenId","type":"uint256","internalType":"uint256"}],"outputs":[{"name":"","type":"string","internalType":"string"}],"stateMutability":"view"},{"type":"function","name":"transferFrom","inputs":[{"name":"from","type":"address","internalType":"address"},{"name":"to","type":"address","internalType":"address"},{"name":"tokenId","type":"uint256","internalType":"uint256"}],"outputs":[],"stateMutability":"nonpayable"},{"type":"event","name":"Approval","inputs":[{"name":"owner","type":"address","indexed":true,"internalType":"address"},{"name":"approved","type":"address","indexed":true,"internalType":"address"},{"name":"tokenId","type":"uint256","indexed":true,"internalType":"uint256"}],"anonymous":false},{"type":"event","name":"ApprovalForAll","inputs":[{"name":"owner","type":"address","indexed":true,"internalType":"address"},{"name":"operator","type":"address","indexed":true,"internalType":"address"},{"name":"approved","type":"bool","indexed":false,"internalType":"bool"}],"anonymous":false},{"type":"event","name":"POAPAwarded","inputs":[{"name":"tokenId","type":"uint256","indexed":true,"internalType":"uint256"},{"name":"eventId","type":"uint256","indexed":true,"internalType":"uint256"},{"name":"attendee","type":"address","indexed":true,"internalType":"address"},{"name":"metadataHash","type":"bytes32","indexed":false,"internalType":"bytes32"}],"anonymous":false},{"type":"event","name":"RoleAdminChanged","inputs":[{"name":"role","type":"bytes32","indexed":true,"internalType":"bytes32"},{"name":"previousAdminRole","type":"bytes32","indexed":true,"internalType":"bytes32"},{"name":"newAdminRole","type":"bytes32","indexed":true,"internalType":"bytes32"}],"anonymous":false},{"type":"event","name":"RoleGranted","inputs":[{"name":"role","type":"bytes32","indexed":true,"internalType":"bytes32"},{"name":"account","type":"address","indexed":true,"internalType":"address"},{"name":"sender","type":"address","indexed":true,"internalType":"address"}],"anonymous":false},{"type":"event","name":"RoleRevoked","inputs":[{"name":"role","type":"bytes32","indexed":true,"internalType":"bytes32"},{"name":"account","type":"address","indexed":true,"internalType":"address"},{"name":"sender","type":"address","indexed":true,"internalType":"address"}],"anonymous":false},{"type":"event","name":"Transfer","inputs":[{"name":"from","type":"address","indexed":true,"internalType":"address"},{"name":"to","type":"address","indexed":true,"internalType":"address"},{"name":"tokenId","type":"uint256","indexed":true,"internalType":"uint256"}],"anonymous":false},{"type":"error","name":"AccessControlBadConfirmation","inputs":[]},{"type":"error","name":"AccessControlUnauthorizedAccount","inputs":[{"name":"account","type":"address","internalType":"address"},{"name":"neededRole","type":"bytes32","internalType":"bytes32"}]},{"type":"error","name":"AlreadyClaimed","inputs":[]},{"type":"error","name":"ERC721IncorrectOwner","inputs":[{"name":"sender","type":"address","internalType":"address"},{"name":"tokenId","type":"uint256","internalType":"uint256"},{"name":"owner","type":"address","internalType":"address"}]},{"type":"error","name":"ERC721InsufficientApproval","inputs":[{"name":"operator","type":"address","internalType":"address"},{"name":"tokenId","type":"uint256","internalType":"uint256"}]},{"type":"error","name":"ERC721InvalidApprover","inputs":[{"name":"approver","type":"address","internalType":"address"}]},{"type":"error","name":"ERC721InvalidOperator","inputs":[{"name":"operator","type":"address","internalType":"address"}]},{"type":"error","name":"ERC721InvalidOwner","inputs":[{"name":"owner","type":"address","internalType":"address"}]},{"type":"error","name":"ERC721InvalidReceiver","inputs":[{"name":"receiver","type":"address","internalType":"address"}]},{"type":"error","name":"ERC721InvalidSender","inputs":[{"name":"sender","type":"address","internalType":"address"}]},{"type":"error","name":"ERC721NonexistentToken","inputs":[{"name":"tokenId","type":"uint256","internalType":"uint256"}]},{"type":"error","name":"Unauthorized","inputs":[]}],"bytecode":{"object":"0x60806040523461033657604080519081016001600160401b03811182821017610241576040908152600f82526e04576656e74566572736520504f415608c1b602083015280519081016001600160401b0381118282101761024157604052600681526504556504f41560d41b602082015281516001600160401b038111610241575f54600181811c9116801561032c575b602082101461022357601f81116102bf575b50602092601f821160011461026057928192935f92610255575b50508160011b915f199060031b1c1916175f555b80516001600160401b03811161024157600154600181811c91168015610237575b602082101461022357601f81116101b5575b50602091601f8211600114610155579181925f9261014a575b50508160011b915f199060031b1c1916176001555b61013a3361033a565b5060405161152890816103c48239f35b015190505f8061011c565b601f1982169260015f52805f20915f5b85811061019d57508360019510610185575b505050811b01600155610131565b01515f1960f88460031b161c191690555f8080610177565b91926020600181928685015181550194019201610165565b818111156101035760015f52601f820160051c7fb10e2d527612073b26eecdfd717e6a320cf44b4afac2b0732d9fcbe2b7fa0cf66020841061021b575b81601f9101920160051c03905f5b82811061020e575050610103565b5f82820155600101610200565b5f91506101f2565b634e487b7160e01b5f52602260045260245ffd5b90607f16906100f1565b634e487b7160e01b5f52604160045260245ffd5b015190505f806100bc565b601f198216935f8052805f20915f5b8681106102a7575083600195961061028f575b505050811b015f556100d0565b01515f1960f88460031b161c191690555f8080610282565b9192602060018192868501518155019401920161026f565b818111156100a2575f8052601f820160051c7f290decd9548b62a8d60345a988386fc84ba6bc95484008f6362f93160ef3e56360208410610324575b81601f9101920160051c03905f5b8281106103175750506100a2565b5f82820155600101610309565b5f91506102fb565b90607f1690610090565b5f80fd5b6001600160a01b0381165f9081525f5160206118ec5f395f51905f52602052604090205460ff166103be576001600160a01b03165f8181525f5160206118ec5f395f51905f5260205260408120805460ff191660011790553391907f2f8788117e7eff1d82e926ec794901d17c78024a50270940304540a733656f0d8180a4600190565b505f9056fe6080806040526004361015610012575f80fd5b5f905f3560e01c90816301ffc9a714610b995750806306fdde0314610ae1578063081812fc14610aa5578063095ea7b3146109bb578063120aa87714610972578063127a529814610948578063219cc8bc1461091e57806323b872dd14610907578063248a9ca3146108d45780632f2ff15d14610896578063332c2aa21461070557806336568abe146106c157806342842e0e146106925780636352211e146106625780636583a78f1461057157806370a082311461052057806391d14854146104d757806395d89b41146103cf578063a217fddf146103b5578063a22cb46514610301578063b88d4fde1461026b578063c87b56dd1461020e578063d547741f146101c6578063e7705db61461018b5763e985e9c514610131575f80fd5b3461018857604036600319011261018857604061014c610c42565b91610155610c58565b9260018060a01b031681526005602052209060018060a01b03165f52602052602060ff60405f2054166040519015158152f35b80fd5b503461018857806003193601126101885760206040517fa48c898f5241be426b79d4b5a3c206f9c9a06576e1b72c338c3ec849771d56868152f35b50346101885760403660031901126101885761020a6004356101e6610c58565b90610205610200825f526006602052600160405f20015490565b611016565b61134a565b5080f35b346102675760203660031901126102675761022a600435610f73565b505f60405161023a602082610cd9565b5261026360405161024c602082610cd9565b5f8152604051918291602083526020830190610c1e565b0390f35b5f80fd5b3461026757608036600319011261026757610284610c42565b61028c610c58565b906044356064359267ffffffffffffffff84116102675736602385011215610267578360040135926102bd84610d0f565b936102cb6040519586610cd9565b8085523660248288010111610267576020815f9260246102ff990183890137860101526102f9838383610d2b565b336113ce565b005b346102675760403660031901126102675761031a610c42565b602435908115158092036102675733156103a2576001600160a01b031690811561038f57335f52600560205260405f20825f5260205260405f2060ff1981541660ff83161790556040519081527f17307eab39ab6107e8899845ad3d59bd9653f200f220920489ca2b5937696c3160203392a3005b50630b61174360e31b5f5260045260245ffd5b63a9fbf51f60e01b5f525f60045260245ffd5b34610267575f3660031901126102675760206040515f8152f35b34610267575f366003190112610267576040515f6001548060011c906001811680156104cd575b6020831081146104b9578285529081156104955750600114610437575b6102638361042381850382610cd9565b604051918291602083526020830190610c1e565b91905060015f527fb10e2d527612073b26eecdfd717e6a320cf44b4afac2b0732d9fcbe2b7fa0cf6915f905b80821061047b57509091508101602001610423610413565b919260018160209254838588010152019101909291610463565b60ff191660208086019190915291151560051b840190910191506104239050610413565b634e487b7160e01b5f52602260045260245ffd5b91607f16916103f6565b34610267576040366003190112610267576104f0610c58565b6004355f52600660205260405f209060018060a01b03165f52602052602060ff60405f2054166040519015158152f35b34610267576020366003190112610267576001600160a01b03610541610c42565b16801561055e575f526003602052602060405f2054604051908152f35b6322718ad960e21b5f525f60045260245ffd5b346102675760603660031901126102675760043561058d610c58565b906044359161059a610fa7565b815f52600860205260405f2060018060a01b0382165f5260205260ff60405f20541661065357815f52600860205260405f2060018060a01b0382165f5260205260405f20600160ff198254161790557f9dd2fcffb76d5762f643b1659e5d84e84b6da0e09ad76102c1c2868e162dd0686020610617600754610f51565b9283600755835f52600982528460405f2055835f52600a82528560405f205561064084826110dc565b6040519586526001600160a01b031694a4005b630c8d9eab60e31b5f5260045ffd5b34610267576020366003190112610267576020610680600435610f73565b6040516001600160a01b039091168152f35b34610267576102ff6106a336610c6e565b90604051926106b3602085610cd9565b5f84526102f9838383610d2b565b34610267576040366003190112610267576106da610c58565b336001600160a01b038216036106f6576102ff9060043561134a565b63334bd91960e11b5f5260045ffd5b346102675760603660031901126102675760043560243567ffffffffffffffff811161026757610739903690600401610ca8565b60443567ffffffffffffffff811161026757610759903690600401610ca8565b939091610764610fa7565b84810361085f575f5b81811061077657005b610781818387610f2d565b35906001600160a01b038216808303610267578482600194825f52600860205260405f20845f526020528a60ff60405f2054166108555761081891845f52600860205260405f20865f5260205260405f208860ff198254161790556108056107ea600754610f51565b94859384600755845f5260096020528760405f20558d610f2d565b35825f52600a60205260405f20556110dc565b7f9dd2fcffb76d5762f643b1659e5d84e84b6da0e09ad76102c1c2868e162dd0686020610846868d8c610f2d565b35604051908152a45b0161076d565b505050505061084f565b60405162461bcd60e51b815260206004820152600f60248201526e0988a9c8ea890be9a92a69a82a8869608b1b6044820152606490fd5b34610267576040366003190112610267576102ff6004356108b5610c58565b906108cf610200825f526006602052600160405f20015490565b611050565b346102675760203660031901126102675760206108ff6004355f526006602052600160405f20015490565b604051908152f35b34610267576102ff61091836610c6e565b91610d2b565b34610267576020366003190112610267576004355f52600a602052602060405f2054604051908152f35b34610267576020366003190112610267576004355f526009602052602060405f2054604051908152f35b346102675760403660031901126102675761098b610c58565b6004355f52600860205260405f209060018060a01b03165f52602052602060ff60405f2054166040519015158152f35b34610267576040366003190112610267576109d4610c42565b6024356109e081610f73565b33151580610a92575b80610a65575b610a525781906001600160a01b0384811691167f8c5be1e5ebec7d5bd14f71427d1e84f3dd0314c0f7b2291e5b200ac8c7c3b9255f80a45f90815260046020526040902080546001600160a01b0319166001600160a01b03909216919091179055005b63a9fbf51f60e01b5f523360045260245ffd5b506001600160a01b0381165f90815260056020908152604080832033845290915290205460ff16156109ef565b506001600160a01b0381163314156109e9565b3461026757602036600319011261026757600435610ac281610f73565b505f526004602052602060018060a01b0360405f205416604051908152f35b34610267575f366003190112610267576040515f5f548060011c90600181168015610b8f575b6020831081146104b9578285529081156104955750600114610b33576102638361042381850382610cd9565b5f8080527f290decd9548b62a8d60345a988386fc84ba6bc95484008f6362f93160ef3e563939250905b808210610b7557509091508101602001610423610413565b919260018160209254838588010152019101909291610b5d565b91607f1691610b07565b34610267576020366003190112610267576004359063ffffffff60e01b821680920361026757602091637965db0b60e01b8114908115610bdb575b5015158152f35b6380ac58cd60e01b811491508115610c0d575b8115610bfc575b5083610bd4565b6301ffc9a760e01b14905083610bf5565b635b5e139f60e01b81149150610bee565b805180835260209291819084018484015e5f828201840152601f01601f1916010190565b600435906001600160a01b038216820361026757565b602435906001600160a01b038216820361026757565b6060906003190112610267576004356001600160a01b038116810361026757906024356001600160a01b0381168103610267579060443590565b9181601f840112156102675782359167ffffffffffffffff8311610267576020808501948460051b01011161026757565b90601f8019910116810190811067ffffffffffffffff821117610cfb57604052565b634e487b7160e01b5f52604160045260245ffd5b67ffffffffffffffff8111610cfb57601f01601f191660200190565b6001600160a01b0390911691908215610f1a575f828152600260205260409020546001600160a01b0316158015610f13575b15610edc575f828152600260205260409020546001600160a01b031692829033151580610e47575b5084610e14575b805f52600360205260405f2060018154019055815f52600260205260405f20816bffffffffffffffffffffffff60a01b825416179055847fddf252ad1be2c89b69c2b068fc378daa952ba7f163c4a11628f55a4df523b3ef5f80a46001600160a01b0316808303610dfc57505050565b6364283d7b60e01b5f5260045260245260445260645ffd5b5f82815260046020526040902080546001600160a01b0319169055845f52600360205260405f205f198154019055610d8c565b90915080610e8b575b15610e5d5782905f610d85565b8284610e7557637e27328960e01b5f5260045260245ffd5b63177e802f60e01b5f523360045260245260445ffd5b503384148015610eba575b80610e5057505f838152600460205260409020546001600160a01b03163314610e50565b505f84815260056020908152604080832033845290915290205460ff16610e96565b60405162461bcd60e51b815260206004820152600f60248201526e1413d0540e881cdbdd5b189bdd5b99608a1b6044820152606490fd5b505f610d5d565b633250574960e11b5f525f60045260245ffd5b9190811015610f3d5760051b0190565b634e487b7160e01b5f52603260045260245ffd5b5f198114610f5f5760010190565b634e487b7160e01b5f52601160045260245ffd5b5f818152600260205260409020546001600160a01b0316908115610f95575090565b637e27328960e01b5f5260045260245ffd5b335f9081527f76ca73d63639c05b4a11c48355e49b5dbca41eef0372280e4d42c3fba4b9ff97602052604090205460ff1615610fdf57565b63e2517d3f60e01b5f52336004527fa48c898f5241be426b79d4b5a3c206f9c9a06576e1b72c338c3ec849771d568660245260445ffd5b5f81815260066020908152604080832033845290915290205460ff161561103a5750565b63e2517d3f60e01b5f523360045260245260445ffd5b5f8181526006602090815260408083206001600160a01b038616845290915290205460ff166110d6575f8181526006602090815260408083206001600160a01b0395909516808452949091528120805460ff19166001179055339291907f2f8788117e7eff1d82e926ec794901d17c78024a50270940304540a733656f0d9080a4600190565b50505f90565b90602090604051906110ee8383610cd9565b5f82526001600160a01b038416938415610f1a575f8281526002855260409020546001600160a01b0316158015611343575b1561130c575f8281526002855260409020546001600160a01b031680151590816112db575b865f526003865260405f2060018154019055835f526002865260405f20876bffffffffffffffffffffffff60a01b8254161790558387827fddf252ad1be2c89b69c2b068fc378daa952ba7f163c4a11628f55a4df523b3ef5f80a4506112c8573b6111b1575b50505050565b916111ee91819495936040519384928392630a85bd0160e11b84523360048501525f60248501526044840152608060648401526084830190610c1e565b03815f885af15f9181611288575b506112515750503d15611249573d9061121482610d0f565b916112226040519384610cd9565b82523d5f8284013e5b815191826112465783633250574960e11b5f5260045260245ffd5b01fd5b60609061122b565b909291506001600160e01b03191663757a42ff60e11b0161127657505f8080806111ab565b633250574960e11b5f5260045260245ffd5b9091508381813d83116112c1575b6112a08183610cd9565b8101031261026757516001600160e01b03198116810361026757905f6111fc565b503d611296565b6339e3563760e11b5f525f60045260245ffd5b5f8481526004602052604080822080546001600160a01b031916905582825260038852902080545f19019055611145565b60405162461bcd60e51b815260048101859052600f60248201526e1413d0540e881cdbdd5b189bdd5b99608a1b6044820152606490fd5b505f611120565b5f8181526006602090815260408083206001600160a01b038616845290915290205460ff16156110d6575f8181526006602090815260408083206001600160a01b0395909516808452949091528120805460ff19169055339291907ff6391f5c32d9c69d2a47ea670b442974b53935d1edc7fd64eb21e047a839171b9080a4600190565b823b6113dc575b5050505050565b604051630a85bd0160e11b81526001600160a01b039182166004820152918116602483015260448201939093526080606482015291169160209082908190611428906084830190610c1e565b03815f865af15f91816114ad575b5061148b57503d15611484573d61144c81610d0f565b9061145a6040519283610cd9565b81523d5f602083013e5b8051908161147f5782633250574960e11b5f5260045260245ffd5b602001fd5b6060611464565b6001600160e01b03191663757a42ff60e11b0161127657505f808080806113d5565b9091506020813d6020116114ea575b816114c960209383610cd9565b8101031261026757516001600160e01b03198116810361026757905f611436565b3d91506114bc56fea2646970667358221220bcfb5903b6b00cab78e7cf614e12228bf645775e944d127f04f84b29f0593a5364736f6c6343000821003354cdd369e4e8a8515e52ca72ec816c2101831ad1f18bf44102ed171459c9b4f8","linkReferences":{}},"methodIdentifiers":{"DEFAULT_ADMIN_ROLE()":"a217fddf","VERIFIER_ROLE()":"e7705db6","approve(address,uint256)":"095ea7b3","awardPOAP(uint256,address,bytes32)":"6583a78f","awardPOAPBatch(uint256,address[],bytes32[])":"332c2aa2","balanceOf(address)":"70a08231","claimed(uint256,address)":"120aa877","getApproved(uint256)":"081812fc","getRoleAdmin(bytes32)":"248a9ca3","grantRole(bytes32,address)":"2f2ff15d","hasRole(bytes32,address)":"91d14854","isApprovedForAll(address,address)":"e985e9c5","metadataHash(uint256)":"219cc8bc","name()":"06fdde03","ownerOf(uint256)":"6352211e","renounceRole(bytes32,address)":"36568abe","revokeRole(bytes32,address)":"d547741f","safeTransferFrom(address,address,uint256)":"42842e0e","safeTransferFrom(address,address,uint256,bytes)":"b88d4fde","setApprovalForAll(address,bool)":"a22cb465","supportsInterface(bytes4)":"01ffc9a7","symbol()":"95d89b41","tokenEvent(uint256)":"127a5298","tokenURI(uint256)":"c87b56dd","transferFrom(address,address,uint256)":"23b872dd"},"id":47}