{"abi":[{"type":"constructor","inputs":[{"name":"_treasury","type":"address","internalType":"address"}],"stateMutability":"nonpayable"},{"type":"function","name":"DEFAULT_ADMIN_ROLE","inputs":[],"outputs":[{"name":"","type":"bytes32","internalType":"bytes32"}],"stateMutability":"view"},{"type":"function","name":"LOCK_PERIOD","inputs":[],"outputs":[{"name":"","type":"uint256","internalType":"uint256"}],"stateMutability":"view"},{"type":"function","name":"MAX_MARKUP_BPS","inputs":[],"outputs":[{"name":"","type":"uint256","internalType":"uint256"}],"stateMutability":"view"},{"type":"function","name":"MAX_RESALES","inputs":[],"outputs":[{"name":"","type":"uint256","internalType":"uint256"}],"stateMutability":"view"},{"type":"function","name":"PLATFORM_ADMIN","inputs":[],"outputs":[{"name":"","type":"bytes32","internalType":"bytes32"}],"stateMutability":"view"},{"type":"function","name":"buyTicket","inputs":[{"name":"listingId","type":"uint256","internalType":"uint256"}],"outputs":[],"stateMutability":"payable"},{"type":"function","name":"cancelListing","inputs":[{"name":"listingId","type":"uint256","internalType":"uint256"}],"outputs":[],"stateMutability":"nonpayable"},{"type":"function","name":"getRoleAdmin","inputs":[{"name":"role","type":"bytes32","internalType":"bytes32"}],"outputs":[{"name":"","type":"bytes32","internalType":"bytes32"}],"stateMutability":"view"},{"type":"function","name":"grantRole","inputs":[{"name":"role","type":"bytes32","internalType":"bytes32"},{"name":"account","type":"address","internalType":"address"}],"outputs":[],"stateMutability":"nonpayable"},{"type":"function","name":"hasRole","inputs":[{"name":"role","type":"bytes32","internalType":"bytes32"},{"name":"account","type":"address","internalType":"address"}],"outputs":[{"name":"","type":"bool","internalType":"bool"}],"stateMutability":"view"},{"type":"function","name":"listTicket","inputs":[{"name":"ticketContract","type":"address","internalType":"address"},{"name":"tierId","type":"uint256","internalType":"uint256"},{"name":"amount","type":"uint256","internalType":"uint256"},{"name":"price","type":"uint256","internalType":"uint256"}],"outputs":[{"name":"listingId","type":"uint256","internalType":"uint256"}],"stateMutability":"nonpayable"},{"type":"function","name":"listings","inputs":[{"name":"","type":"uint256","internalType":"uint256"}],"outputs":[{"name":"seller","type":"address","internalType":"address"},{"name":"ticketContract","type":"address","internalType":"address"},{"name":"tierId","type":"uint256","internalType":"uint256"},{"name":"amount","type":"uint256","internalType":"uint256"},{"name":"price","type":"uint256","internalType":"uint256"},{"name":"listedAt","type":"uint256","internalType":"uint256"},{"name":"active","type":"bool","internalType":"bool"}],"stateMutability":"view"},{"type":"function","name":"nextListingId","inputs":[],"outputs":[{"name":"","type":"uint256","internalType":"uint256"}],"stateMutability":"view"},{"type":"function","name":"onERC1155BatchReceived","inputs":[{"name":"","type":"address","internalType":"address"},{"name":"","type":"address","internalType":"address"},{"name":"","type":"uint256[]","internalType":"uint256[]"},{"name":"","type":"uint256[]","internalType":"uint256[]"},{"name":"","type":"bytes","internalType":"bytes"}],"outputs":[{"name":"","type":"bytes4","internalType":"bytes4"}],"stateMutability":"nonpayable"},{"type":"function","name":"onERC1155Received","inputs":[{"name":"","type":"address","internalType":"address"},{"name":"","type":"address","internalType":"address"},{"name":"","type":"uint256","internalType":"uint256"},{"name":"","type":"uint256","internalType":"uint256"},{"name":"","type":"bytes","internalType":"bytes"}],"outputs":[{"name":"","type":"bytes4","internalType":"bytes4"}],"stateMutability":"nonpayable"},{"type":"function","name":"originalPrices","inputs":[{"name":"","type":"address","internalType":"address"},{"name":"","type":"uint256","internalType":"uint256"}],"outputs":[{"name":"","type":"uint256","internalType":"uint256"}],"stateMutability":"view"},{"type":"function","name":"pause","inputs":[],"outputs":[],"stateMutability":"nonpayable"},{"type":"function","name":"paused","inputs":[],"outputs":[{"name":"","type":"bool","internalType":"bool"}],"stateMutability":"view"},{"type":"function","name":"platformFeeBps","inputs":[],"outputs":[{"name":"","type":"uint256","internalType":"uint256"}],"stateMutability":"view"},{"type":"function","name":"renounceRole","inputs":[{"name":"role","type":"bytes32","internalType":"bytes32"},{"name":"callerConfirmation","type":"address","internalType":"address"}],"outputs":[],"stateMutability":"nonpayable"},{"type":"function","name":"resaleCount","inputs":[{"name":"","type":"address","internalType":"address"},{"name":"","type":"uint256","internalType":"uint256"},{"name":"","type":"uint256","internalType":"uint256"}],"outputs":[{"name":"","type":"uint256","internalType":"uint256"}],"stateMutability":"view"},{"type":"function","name":"revokeRole","inputs":[{"name":"role","type":"bytes32","internalType":"bytes32"},{"name":"account","type":"address","internalType":"address"}],"outputs":[],"stateMutability":"nonpayable"},{"type":"function","name":"royaltyBps","inputs":[],"outputs":[{"name":"","type":"uint256","internalType":"uint256"}],"stateMutability":"view"},{"type":"function","name":"setOriginalPrice","inputs":[{"name":"tierId","type":"uint256","internalType":"uint256"},{"name":"price","type":"uint256","internalType":"uint256"}],"outputs":[],"stateMutability":"nonpayable"},{"type":"function","name":"setPlatformFee","inputs":[{"name":"_feeBps","type":"uint256","internalType":"uint256"}],"outputs":[],"stateMutability":"nonpayable"},{"type":"function","name":"setRoyaltyBps","inputs":[{"name":"_royaltyBps","type":"uint256","internalType":"uint256"}],"outputs":[],"stateMutability":"nonpayable"},{"type":"function","name":"supportsInterface","inputs":[{"name":"interfaceId","type":"bytes4","internalType":"bytes4"}],"outputs":[{"name":"","type":"bool","internalType":"bool"}],"stateMutability":"view"},{"type":"function","name":"treasury","inputs":[],"outputs":[{"name":"","type":"address","internalType":"address"}],"stateMutability":"view"},{"type":"function","name":"unpause","inputs":[],"outputs":[],"stateMutability":"nonpayable"},{"type":"function","name":"updatePrice","inputs":[{"name":"listingId","type":"uint256","internalType":"uint256"},{"name":"newPrice","type":"uint256","internalType":"uint256"}],"outputs":[],"stateMutability":"nonpayable"},{"type":"event","name":"Listed","inputs":[{"name":"listingId","type":"uint256","indexed":true,"internalType":"uint256"},{"name":"seller","type":"address","indexed":true,"internalType":"address"},{"name":"ticketContract","type":"address","indexed":false,"internalType":"address"},{"name":"tierId","type":"uint256","indexed":false,"internalType":"uint256"},{"name":"amount","type":"uint256","indexed":false,"internalType":"uint256"},{"name":"price","type":"uint256","indexed":false,"internalType":"uint256"}],"anonymous":false},{"type":"event","name":"ListingCancelled","inputs":[{"name":"listingId","type":"uint256","indexed":true,"internalType":"uint256"}],"anonymous":false},{"type":"event","name":"Paused","inputs":[{"name":"account","type":"address","indexed":false,"internalType":"address"}],"anonymous":false},{"type":"event","name":"PriceUpdated","inputs":[{"name":"listingId","type":"uint256","indexed":true,"internalType":"uint256"},{"name":"oldPrice","type":"uint256","indexed":false,"internalType":"uint256"},{"name":"newPrice","type":"uint256","indexed":false,"internalType":"uint256"}],"anonymous":false},{"type":"event","name":"RoleAdminChanged","inputs":[{"name":"role","type":"bytes32","indexed":true,"internalType":"bytes32"},{"name":"previousAdminRole","type":"bytes32","indexed":true,"internalType":"bytes32"},{"name":"newAdminRole","type":"bytes32","indexed":true,"internalType":"bytes32"}],"anonymous":false},{"type":"event","name":"RoleGranted","inputs":[{"name":"role","type":"bytes32","indexed":true,"internalType":"bytes32"},{"name":"account","type":"address","indexed":true,"internalType":"address"},{"name":"sender","type":"address","indexed":true,"internalType":"address"}],"anonymous":false},{"type":"event","name":"RoleRevoked","inputs":[{"name":"role","type":"bytes32","indexed":true,"internalType":"bytes32"},{"name":"account","type":"address","indexed":true,"internalType":"address"},{"name":"sender","type":"address","indexed":true,"internalType":"address"}],"anonymous":false},{"type":"event","name":"Sold","inputs":[{"name":"listingId","type":"uint256","indexed":true,"internalType":"uint256"},{"name":"buyer","type":"address","indexed":true,"internalType":"address"},{"name":"seller","type":"address","indexed":true,"internalType":"address"},{"name":"price","type":"uint256","indexed":false,"internalType":"uint256"}],"anonymous":false},{"type":"event","name":"Unpaused","inputs":[{"name":"account","type":"address","indexed":false,"internalType":"address"}],"anonymous":false},{"type":"error","name":"AccessControlBadConfirmation","inputs":[]},{"type":"error","name":"AccessControlUnauthorizedAccount","inputs":[{"name":"account","type":"address","internalType":"address"},{"name":"neededRole","type":"bytes32","internalType":"bytes32"}]},{"type":"error","name":"EnforcedPause","inputs":[]},{"type":"error","name":"ExpectedPause","inputs":[]},{"type":"error","name":"InsufficientPayment","inputs":[]},{"type":"error","name":"InvalidAmount","inputs":[]},{"type":"error","name":"ListingNotActive","inputs":[]},{"type":"error","name":"LockPeriodActive","inputs":[]},{"type":"error","name":"MaxResalesReached","inputs":[]},{"type":"error","name":"PriceExceedsCap","inputs":[]},{"type":"error","name":"ReentrancyGuardReentrantCall","inputs":[]},{"type":"error","name":"Unauthorized","inputs":[]}],"bytecode":{"object":"0x6080346100b657601f61176738819003918201601f19168301916001600160401b038311848410176100ba578084926020946040528339810103126100b657516001600160a01b038116908190036100b65760017f9b779b17422d0df92223018b32b4d1fa46e071723d6817e2486d003becc55f005560fa6004556096600555600680546001600160a01b03191691909117905561009c336100ce565b506100a633610144565b5060405161152f90816101d88239f35b5f80fd5b634e487b7160e01b5f52604160045260245ffd5b6001600160a01b0381165f9081525f5160206117275f395f51905f52602052604090205460ff1661013f576001600160a01b03165f8181525f5160206117275f395f51905f5260205260408120805460ff191660011790553391905f5160206117075f395f51905f528180a4600190565b505f90565b6001600160a01b0381165f9081525f5160206117475f395f51905f52602052604090205460ff1661013f576001600160a01b03165f8181525f5160206117475f395f51905f5260205260408120805460ff191660011790553391907f4ff52032f36e32ac782042a01802e20394d4255c84a3c046490be98ab632691b905f5160206117075f395f51905f529080a460019056fe6080806040526004361015610012575f80fd5b5f905f3560e01c90816301ffc9a7146110765750806312e8e2c3146110185780631820cabb14610ffb5780631f72d83114610f9957806322dcd13e14610f7c578063248a9ca314610f495780632c069cad14610f2e5780632f2ff15d14610eee578063305a67a814610dcd57806336568abe14610d885780633f4ba83a14610d225780635c975abb14610d0057806361d027b314610cd757806367dd74ca14610904578063821029981461064d57806382367b2d146105345780638456cb59146104db57806388cda66a1461049857806391d148541461044e578063a217fddf14610432578063aaccf1ec14610414578063b226421a146103c7578063bc197c811461032e578063c1d0a7d8146102f3578063c63adb2b146102d5578063d4bedf6e146102ab578063d547741f14610263578063de74e57b146101e2578063f23a6e61146101875763fc90fea314610168575f80fd5b346101845780600319360112610184576020604051612ee08152f35b80fd5b50346101845760a0366003190112610184576101a16110f9565b506101aa6110e3565b5060843567ffffffffffffffff81116101de576101cb9036906004016111df565b5060405163f23a6e6160e01b8152602090f35b5080fd5b503461018457602036600319011261018457604060e091600435815260036020522060018060a01b038154169060018060a01b03600182015416906002810154600382015460048301549160ff600660058601549501541694604051968752602087015260408601526060850152608084015260a0830152151560c0820152f35b5034610184576040366003190112610184576102a76004356102836110e3565b906102a261029d825f526001602052600160405f20015490565b61133d565b61143b565b5080f35b5034610184576102ba3661110f565b90338352600760205260408320908352602052604082205580f35b50346101845780600319360112610184576020600554604051908152f35b503461018457806003193601126101845760206040517f4ff52032f36e32ac782042a01802e20394d4255c84a3c046490be98ab632691b8152f35b50346101845760a0366003190112610184576103486110f9565b506103516110e3565b5060443567ffffffffffffffff81116101de5761037290369060040161115b565b5060643567ffffffffffffffff81116101de5761039390369060040161115b565b5060843567ffffffffffffffff81116101de576103b49036906004016111df565b5060405163bc197c8160e01b8152602090f35b5034610184576060366003190112610184576020906040906001600160a01b036103ef6110f9565b1681526008835281812060243582528352818120604435825283522054604051908152f35b50346101845780600319360112610184576020600254604051908152f35b5034610184578060031936011261018457602090604051908152f35b503461018457604036600319011261018457604061046a6110e3565b9160043581526001602052209060018060a01b03165f52602052602060ff60405f2054166040519015158152f35b5034610184576040366003190112610184576020906040906001600160a01b036104c06110f9565b16815260078352818120602435825283522054604051908152f35b50346101845780600319360112610184576104f46112ce565b6104fc6114bf565b600160ff198254161781557f62e78cea01bee320cd4e420270b5ea74000d11b0c9f74754ebdbfc544b05a2586020604051338152a180f35b5034610184576105433661110f565b81835260036020526040832080546001600160a01b0316330361063f5760ff600682015416156106305760018101546001600160a01b0316845260076020908152604080862060028401548752909152842054806105d9575b507f15819dd2fd9f6418b142e798d08a18d0bf06ea368f4480b7b0d3f75bd966bc489160046040920190808254925582519182526020820152a280f35b60038201546105e79161125d565b612ee0810290808204612ee0149015171561061c576127109004821161060d575f61059c565b6364cb15f160e01b8452600484fd5b634e487b7160e01b85526011600452602485fd5b6366cb03e960e01b8452600484fd5b6282b42960e81b8452600484fd5b5034610184576080366003190112610184576106676110f9565b60243590604435906064359061067b611403565b6106836114bf565b82156108f55760018060a01b031691828552600860205260408520848652602052604085203386526020526003604086205410156108e65782855260076020526040852084865260205260408520548181610893575b5050823b1561088457604051637921219560e11b81528590818180610704868a303360048601611225565b038183895af180156108885761086f575b50506107226002546112c0565b938460025560405160e0810181811067ffffffffffffffff82111761085b57869160209860069260405233825289820188815260408301868152606084019088825260808501928a8452604060a087019542875260c088019960018b5281528f60039052209560018060a01b039060018060a01b03905116166bffffffffffffffffffffffff60a01b87541617865560018060a01b03905116600186019060018060a01b03166bffffffffffffffffffffffff60a01b825416179055516002850155516003840155516004830155516005820155019051151560ff801983541691161790556040519384528584015260408301526060820152817f1d2286580411f12056775bf9e0fd10101148b09a6fca67c9f426fb113a28d1f860803393a360015f5160206114da5f395f51905f5255604051908152f35b634e487b7160e01b88526041600452602488fd5b8161087991611125565b61088457845f610715565b8480fd5b6040513d84823e3d90fd5b61089c9161125d565b612ee0810290808204612ee014901517156108d257612710900482116108c3575f816106d9565b6364cb15f160e01b8552600485fd5b634e487b7160e01b86526011600452602486fd5b63010cf5b360e61b8552600485fd5b63162908e360e11b8552600485fd5b50602036600319011261018457610919611403565b6109216114bf565b6004358152600360205260408120906006820180549260ff841615610cc8576005810154620151808101809111610cb4574210610ca5576004810191825490813410610c96576109a9949560ff19169055848080806127106109856004548761125d565b049788956109a461271061099b6005548461125d565b049a8b92611284565b611284565b6006549095906001600160a01b03165af16109c2611291565b5015610c51578460018301946004602060018060a01b0388541660405192838092636120326560e01b82525afa8015610c465783918291610bfb575b50909182918291906001600160a01b03165af1610a19611291565b5015610bb657815485918291829182916001600160a01b03165af1610a3c611291565b5015610b785782546002820180546003840154879692936001600160a01b03169190823b15610b7457610a8a92889283604051809681958294637921219560e11b8452333060048601611225565b03925af1908115610b69578691610b54575b5050546001600160a01b03908116855260086020908152604080872093548752928152828620935490911685529190915282208054610ada906112c0565b905554803411610afa575b5060015f5160206114da5f395f51905f525580f35b8180610b07819334611284565b335af1610b12611291565b5015610b1f57805f610ae5565b60405162461bcd60e51b815260206004820152600d60248201526c1499599d5b990819985a5b1959609a1b6044820152606490fd5b81610b5e91611125565b61088457845f610a9c565b6040513d88823e3d90fd5b8780fd5b60405162461bcd60e51b815260206004820152601660248201527514d95b1b195c881d1c985b9cd9995c8819985a5b195960521b6044820152606490fd5b60405162461bcd60e51b815260206004820152601760248201527f526f79616c7479207472616e73666572206661696c65640000000000000000006044820152606490fd5b9150506020813d602011610c3e575b81610c1760209383611125565b81010312610c3a5751906001600160a01b0382168203610c3a57908290816109fe565b8280fd5b3d9150610c0a565b6040513d85823e3d90fd5b60405162461bcd60e51b815260206004820152601860248201527f5472656173757279207472616e73666572206661696c656400000000000000006044820152606490fd5b63cd1c886760e01b8552600485fd5b635573445160e11b8352600483fd5b634e487b7160e01b84526011600452602484fd5b6366cb03e960e01b8352600483fd5b50346101845780600319360112610184576006546040516001600160a01b039091168152602090f35b503461018457806003193601126101845760ff60209154166040519015158152f35b5034610184578060031936011261018457610d3b6112ce565b805460ff811615610d795760ff191681557f5db9ee0a495bf2e6ff9c91a7834c1ba4fdd244a5e8aa4e537bd38aeae4b073aa6020604051338152a180f35b638dfc202b60e01b8252600482fd5b503461018457604036600319011261018457610da26110e3565b336001600160a01b03821603610dbe576102a79060043561143b565b63334bd91960e11b8252600482fd5b5034610ecd576020366003190112610ecd57600435610dea611403565b5f81815260036020526040902080546001600160a01b031633819003610ee05760068201805460ff811615610ed15760ff1916905560018201546002830154600390930154906001600160a01b0316803b15610ecd57610e65935f809460405196879586948593637921219560e11b85523060048601611225565b03925af18015610ec257610ead575b507f411aee90354c51b1b04cd563fcab2617142a9d50da19232d888547c8a1b7fd8a8280a260015f5160206114da5f395f51905f525580f35b610eba9192505f90611125565b5f905f610e74565b6040513d5f823e3d90fd5b5f80fd5b6366cb03e960e01b5f5260045ffd5b6282b42960e81b5f5260045ffd5b34610ecd576040366003190112610ecd57610f2c600435610f0d6110e3565b90610f2761029d825f526001602052600160405f20015490565b611377565b005b34610ecd575f366003190112610ecd57602060405160038152f35b34610ecd576020366003190112610ecd576020610f746004355f526001602052600160405f20015490565b604051908152f35b34610ecd575f366003190112610ecd576020600454604051908152f35b34610ecd576020366003190112610ecd57600435610fb56112ce565b6101f48111610fc357600555005b60405162461bcd60e51b815260206004820152601060248201526f0a4def2c2d8e8f240e8dede40d0d2ced60831b6044820152606490fd5b34610ecd575f366003190112610ecd576020604051620151808152f35b34610ecd576020366003190112610ecd576004356110346112ce565b6103e8811161104257600455005b60405162461bcd60e51b815260206004820152600c60248201526b08ccaca40e8dede40d0d2ced60a31b6044820152606490fd5b34610ecd576020366003190112610ecd576004359063ffffffff60e01b8216809203610ecd57602091637965db0b60e01b81149081156110b8575b5015158152f35b630271189760e51b8114915081156110d2575b50836110b1565b6301ffc9a760e01b149050836110cb565b602435906001600160a01b0382168203610ecd57565b600435906001600160a01b0382168203610ecd57565b6040906003190112610ecd576004359060243590565b90601f8019910116810190811067ffffffffffffffff82111761114757604052565b634e487b7160e01b5f52604160045260245ffd5b9080601f83011215610ecd5781359167ffffffffffffffff8311611147578260051b906040519361118f6020840186611125565b8452602080850192820101928311610ecd57602001905b8282106111b35750505090565b81358152602091820191016111a6565b67ffffffffffffffff811161114757601f01601f191660200190565b81601f82011215610ecd578035906111f6826111c3565b926112046040519485611125565b82845260208383010111610ecd57815f926020809301838601378301015290565b6001600160a01b039182168152911660208201526040810191909152606081019190915260a0608082018190525f9082015260c00190565b8181029291811591840414171561127057565b634e487b7160e01b5f52601160045260245ffd5b9190820391821161127057565b3d156112bb573d906112a2826111c3565b916112b06040519384611125565b82523d5f602084013e565b606090565b5f1981146112705760010190565b335f9081527f6c6746439175be9d65ee036dd6459ab0aaa575fbfcb50169861733a151cd793a602052604090205460ff161561130657565b63e2517d3f60e01b5f52336004527f4ff52032f36e32ac782042a01802e20394d4255c84a3c046490be98ab632691b60245260445ffd5b5f81815260016020908152604080832033845290915290205460ff16156113615750565b63e2517d3f60e01b5f523360045260245260445ffd5b5f8181526001602090815260408083206001600160a01b038616845290915290205460ff166113fd575f8181526001602081815260408084206001600160a01b0396909616808552959091528220805460ff19169091179055339291907f2f8788117e7eff1d82e926ec794901d17c78024a50270940304540a733656f0d9080a4600190565b50505f90565b60025f5160206114da5f395f51905f52541461142c5760025f5160206114da5f395f51905f5255565b633ee5aeb560e01b5f5260045ffd5b5f8181526001602090815260408083206001600160a01b038616845290915290205460ff16156113fd575f8181526001602090815260408083206001600160a01b0395909516808452949091528120805460ff19169055339291907ff6391f5c32d9c69d2a47ea670b442974b53935d1edc7fd64eb21e047a839171b9080a4600190565b60ff5f54166114ca57565b63d93c066560e01b5f5260045ffdfe9b779b17422d0df92223018b32b4d1fa46e071723d6817e2486d003becc55f00a264697066735822122067028f8efc026d5af4b0b39260f974d6c37414a8035ce8365aaf9cd423c66ac264736f6c634300082100332f8788117e7eff1d82e926ec794901d17c78024a50270940304540a733656f0da6eef7e35abe7026729641147f7915573c7e97b47efa546f5f6e3230263bcb496c6746439175be9d65ee036dd6459ab0aaa575fbfcb50169861733a151cd793a","linkReferences":{}},"methodIdentifiers":{"DEFAULT_ADMIN_ROLE()":"a217fddf","LOCK_PERIOD()":"1820cabb","MAX_MARKUP_BPS()":"fc90fea3","MAX_RESALES()":"2c069cad","PLATFORM_ADMIN()":"c1d0a7d8","buyTicket(uint256)":"67dd74ca","cancelListing(uint256)":"305a67a8","getRoleAdmin(bytes32)":"248a9ca3","grantRole(bytes32,address)":"2f2ff15d","hasRole(bytes32,address)":"91d14854","listTicket(address,uint256,uint256,uint256)":"82102998","listings(uint256)":"de74e57b","nextListingId()":"aaccf1ec","onERC1155BatchReceived(address,address,uint256[],uint256[],bytes)":"bc197c81","onERC1155Received(address,address,uint256,uint256,bytes)":"f23a6e61","originalPrices(address,uint256)":"88cda66a","pause()":"8456cb59","paused()":"5c975abb","platformFeeBps()":"22dcd13e","renounceRole(bytes32,address)":"36568abe","resaleCount(address,uint256,uint256)":"b226421a","revokeRole(bytes32,address)":"d547741f","royaltyBps()":"c63adb2b","setOriginalPrice(uint256,uint256)":"d4bedf6e","setPlatformFee(uint256)":"12e8e2c3","setRoyaltyBps(uint256)":"1f72d831","supportsInterface(bytes4)":"01ffc9a7","treasury()":"61d027b3","unpause()":"3f4ba83a","updatePrice(uint256,uint256)":"82367b2d"},"id":26}