{"abi":[{"type":"constructor","inputs":[{"name":"_treasury","type":"address","internalType":"address"}],"stateMutability":"nonpayable"},{"type":"function","name":"DEFAULT_ADMIN_ROLE","inputs":[],"outputs":[{"name":"","type":"bytes32","internalType":"bytes32"}],"stateMutability":"view"},{"type":"function","name":"LOCK_PERIOD","inputs":[],"outputs":[{"name":"","type":"uint256","internalType":"uint256"}],"stateMutability":"view"},{"type":"function","name":"MAX_MARKUP_BPS","inputs":[],"outputs":[{"name":"","type":"uint256","internalType":"uint256"}],"stateMutability":"view"},{"type":"function","name":"MAX_RESALES","inputs":[],"outputs":[{"name":"","type":"uint256","internalType":"uint256"}],"stateMutability":"view"},{"type":"function","name":"PLATFORM_ADMIN","inputs":[],"outputs":[{"name":"","type":"bytes32","internalType":"bytes32"}],"stateMutability":"view"},{"type":"function","name":"buyTicket","inputs":[{"name":"listingId","type":"uint256","internalType":"uint256"}],"outputs":[],"stateMutability":"payable"},{"type":"function","name":"cancelListing","inputs":[{"name":"listingId","type":"uint256","internalType":"uint256"}],"outputs":[],"stateMutability":"nonpayable"},{"type":"function","name":"getRoleAdmin","inputs":[{"name":"role","type":"bytes32","internalType":"bytes32"}],"outputs":[{"name":"","type":"bytes32","internalType":"bytes32"}],"stateMutability":"view"},{"type":"function","name":"grantRole","inputs":[{"name":"role","type":"bytes32","internalType":"bytes32"},{"name":"account","type":"address","internalType":"address"}],"outputs":[],"stateMutability":"nonpayable"},{"type":"function","name":"hasRole","inputs":[{"name":"role","type":"bytes32","internalType":"bytes32"},{"name":"account","type":"address","internalType":"address"}],"outputs":[{"name":"","type":"bool","internalType":"bool"}],"stateMutability":"view"},{"type":"function","name":"listTicket","inputs":[{"name":"ticketContract","type":"address","internalType":"address"},{"name":"tierId","type":"uint256","internalType":"uint256"},{"name":"amount","type":"uint256","internalType":"uint256"},{"name":"price","type":"uint256","internalType":"uint256"}],"outputs":[{"name":"listingId","type":"uint256","internalType":"uint256"}],"stateMutability":"nonpayable"},{"type":"function","name":"listings","inputs":[{"name":"","type":"uint256","internalType":"uint256"}],"outputs":[{"name":"seller","type":"address","internalType":"address"},{"name":"ticketContract","type":"address","internalType":"address"},{"name":"tierId","type":"uint256","internalType":"uint256"},{"name":"amount","type":"uint256","internalType":"uint256"},{"name":"price","type":"uint256","internalType":"uint256"},{"name":"listedAt","type":"uint256","internalType":"uint256"},{"name":"active","type":"bool","internalType":"bool"}],"stateMutability":"view"},{"type":"function","name":"nextListingId","inputs":[],"outputs":[{"name":"","type":"uint256","internalType":"uint256"}],"stateMutability":"view"},{"type":"function","name":"onERC1155BatchReceived","inputs":[{"name":"","type":"address","internalType":"address"},{"name":"","type":"address","internalType":"address"},{"name":"","type":"uint256[]","internalType":"uint256[]"},{"name":"","type":"uint256[]","internalType":"uint256[]"},{"name":"","type":"bytes","internalType":"bytes"}],"outputs":[{"name":"","type":"bytes4","internalType":"bytes4"}],"stateMutability":"nonpayable"},{"type":"function","name":"onERC1155Received","inputs":[{"name":"","type":"address","internalType":"address"},{"name":"","type":"address","internalType":"address"},{"name":"","type":"uint256","internalType":"uint256"},{"name":"","type":"uint256","internalType":"uint256"},{"name":"","type":"bytes","internalType":"bytes"}],"outputs":[{"name":"","type":"bytes4","internalType":"bytes4"}],"stateMutability":"nonpayable"},{"type":"function","name":"originalPrices","inputs":[{"name":"","type":"address","internalType":"address"},{"name":"","type":"uint256","internalType":"uint256"}],"outputs":[{"name":"","type":"uint256","internalType":"uint256"}],"stateMutability":"view"},{"type":"function","name":"pause","inputs":[],"outputs":[],"stateMutability":"nonpayable"},{"type":"function","name":"paused","inputs":[],"outputs":[{"name":"","type":"bool","internalType":"bool"}],"stateMutability":"view"},{"type":"function","name":"platformFeeBps","inputs":[],"outputs":[{"name":"","type":"uint256","internalType":"uint256"}],"stateMutability":"view"},{"type":"function","name":"renounceRole","inputs":[{"name":"role","type":"bytes32","internalType":"bytes32"},{"name":"callerConfirmation","type":"address","internalType":"address"}],"outputs":[],"stateMutability":"nonpayable"},{"type":"function","name":"resaleCount","inputs":[{"name":"","type":"address","internalType":"address"},{"name":"","type":"uint256","internalType":"uint256"},{"name":"","type":"uint256","internalType":"uint256"}],"outputs":[{"name":"","type":"uint256","internalType":"uint256"}],"stateMutability":"view"},{"type":"function","name":"revokeRole","inputs":[{"name":"role","type":"bytes32","internalType":"bytes32"},{"name":"account","type":"address","internalType":"address"}],"outputs":[],"stateMutability":"nonpayable"},{"type":"function","name":"royaltyBps","inputs":[],"outputs":[{"name":"","type":"uint256","internalType":"uint256"}],"stateMutability":"view"},{"type":"function","name":"setOriginalPrice","inputs":[{"name":"tierId","type":"uint256","internalType":"uint256"},{"name":"price","type":"uint256","internalType":"uint256"}],"outputs":[],"stateMutability":"nonpayable"},{"type":"function","name":"setPlatformFee","inputs":[{"name":"_feeBps","type":"uint256","internalType":"uint256"}],"outputs":[],"stateMutability":"nonpayable"},{"type":"function","name":"setRoyaltyBps","inputs":[{"name":"_royaltyBps","type":"uint256","internalType":"uint256"}],"outputs":[],"stateMutability":"nonpayable"},{"type":"function","name":"supportsInterface","inputs":[{"name":"interfaceId","type":"bytes4","internalType":"bytes4"}],"outputs":[{"name":"","type":"bool","internalType":"bool"}],"stateMutability":"view"},{"type":"function","name":"treasury","inputs":[],"outputs":[{"name":"","type":"address","internalType":"address"}],"stateMutability":"view"},{"type":"function","name":"unpause","inputs":[],"outputs":[],"stateMutability":"nonpayable"},{"type":"function","name":"updatePrice","inputs":[{"name":"listingId","type":"uint256","internalType":"uint256"},{"name":"newPrice","type":"uint256","internalType":"uint256"}],"outputs":[],"stateMutability":"nonpayable"},{"type":"event","name":"Listed","inputs":[{"name":"listingId","type":"uint256","indexed":true,"internalType":"uint256"},{"name":"seller","type":"address","indexed":true,"internalType":"address"},{"name":"ticketContract","type":"address","indexed":false,"internalType":"address"},{"name":"tierId","type":"uint256","indexed":false,"internalType":"uint256"},{"name":"amount","type":"uint256","indexed":false,"internalType":"uint256"},{"name":"price","type":"uint256","indexed":false,"internalType":"uint256"}],"anonymous":false},{"type":"event","name":"ListingCancelled","inputs":[{"name":"listingId","type":"uint256","indexed":true,"internalType":"uint256"}],"anonymous":false},{"type":"event","name":"Paused","inputs":[{"name":"account","type":"address","indexed":false,"internalType":"address"}],"anonymous":false},{"type":"event","name":"PriceUpdated","inputs":[{"name":"listingId","type":"uint256","indexed":true,"internalType":"uint256"},{"name":"oldPrice","type":"uint256","indexed":false,"internalType":"uint256"},{"name":"newPrice","type":"uint256","indexed":false,"internalType":"uint256"}],"anonymous":false},{"type":"event","name":"RoleAdminChanged","inputs":[{"name":"role","type":"bytes32","indexed":true,"internalType":"bytes32"},{"name":"previousAdminRole","type":"bytes32","indexed":true,"internalType":"bytes32"},{"name":"newAdminRole","type":"bytes32","indexed":true,"internalType":"bytes32"}],"anonymous":false},{"type":"event","name":"RoleGranted","inputs":[{"name":"role","type":"bytes32","indexed":true,"internalType":"bytes32"},{"name":"account","type":"address","indexed":true,"internalType":"address"},{"name":"sender","type":"address","indexed":true,"internalType":"address"}],"anonymous":false},{"type":"event","name":"RoleRevoked","inputs":[{"name":"role","type":"bytes32","indexed":true,"internalType":"bytes32"},{"name":"account","type":"address","indexed":true,"internalType":"address"},{"name":"sender","type":"address","indexed":true,"internalType":"address"}],"anonymous":false},{"type":"event","name":"Sold","inputs":[{"name":"listingId","type":"uint256","indexed":true,"internalType":"uint256"},{"name":"buyer","type":"address","indexed":true,"internalType":"address"},{"name":"seller","type":"address","indexed":true,"internalType":"address"},{"name":"price","type":"uint256","indexed":false,"internalType":"uint256"}],"anonymous":false},{"type":"event","name":"Unpaused","inputs":[{"name":"account","type":"address","indexed":false,"internalType":"address"}],"anonymous":false},{"type":"error","name":"AccessControlBadConfirmation","inputs":[]},{"type":"error","name":"AccessControlUnauthorizedAccount","inputs":[{"name":"account","type":"address","internalType":"address"},{"name":"neededRole","type":"bytes32","internalType":"bytes32"}]},{"type":"error","name":"EnforcedPause","inputs":[]},{"type":"error","name":"ExpectedPause","inputs":[]},{"type":"error","name":"InsufficientPayment","inputs":[]},{"type":"error","name":"InvalidAmount","inputs":[]},{"type":"error","name":"ListingNotActive","inputs":[]},{"type":"error","name":"LockPeriodActive","inputs":[]},{"type":"error","name":"MaxResalesReached","inputs":[]},{"type":"error","name":"PriceExceedsCap","inputs":[]},{"type":"error","name":"ReentrancyGuardReentrantCall","inputs":[]},{"type":"error","name":"Unauthorized","inputs":[]}],"bytecode":{"object":"0x6080346100b657601f61167238819003918201601f19168301916001600160401b038311848410176100ba578084926020946040528339810103126100b657516001600160a01b038116908190036100b65760017f9b779b17422d0df92223018b32b4d1fa46e071723d6817e2486d003becc55f005560fa6004556096600555600680546001600160a01b03191691909117905561009c336100ce565b506100a633610144565b5060405161143a90816101d88239f35b5f80fd5b634e487b7160e01b5f52604160045260245ffd5b6001600160a01b0381165f9081525f5160206116325f395f51905f52602052604090205460ff1661013f576001600160a01b03165f8181525f5160206116325f395f51905f5260205260408120805460ff191660011790553391905f5160206116125f395f51905f528180a4600190565b505f90565b6001600160a01b0381165f9081525f5160206116525f395f51905f52602052604090205460ff1661013f576001600160a01b03165f8181525f5160206116525f395f51905f5260205260408120805460ff191660011790553391907f4ff52032f36e32ac782042a01802e20394d4255c84a3c046490be98ab632691b905f5160206116125f395f51905f529080a460019056fe6080806040526004361015610012575f80fd5b5f905f3560e01c90816301ffc9a714610fbc5750806312e8e2c314610f5e5780631820cabb14610f415780631f72d83114610edf57806322dcd13e14610ec2578063248a9ca314610e8f5780632c069cad14610e745780632f2ff15d14610e34578063305a67a814610d1357806336568abe14610cce5780633f4ba83a14610c685780635c975abb14610c4657806361d027b314610c1d57806367dd74ca14610904578063821029981461064d57806382367b2d146105345780638456cb59146104db57806388cda66a1461049857806391d148541461044e578063a217fddf14610432578063aaccf1ec14610414578063b226421a146103c7578063bc197c811461032e578063c1d0a7d8146102f3578063c63adb2b146102d5578063d4bedf6e146102ab578063d547741f14610263578063de74e57b146101e2578063f23a6e61146101875763fc90fea314610168575f80fd5b346101845780600319360112610184576020604051612ee08152f35b80fd5b50346101845760a0366003190112610184576101a161103f565b506101aa611029565b5060843567ffffffffffffffff81116101de576101cb903690600401611109565b5060405163f23a6e6160e01b8152602090f35b5080fd5b503461018457602036600319011261018457604060e091600435815260036020522060018060a01b038154169060018060a01b03600182015416906002810154600382015460048301549160ff600660058601549501541694604051968752602087015260408601526060850152608084015260a0830152151560c0820152f35b5034610184576040366003190112610184576102a7600435610283611029565b906102a261029d825f526001602052600160405f20015490565b611248565b611346565b5080f35b5034610184576102ba36611055565b90338352600760205260408320908352602052604082205580f35b50346101845780600319360112610184576020600554604051908152f35b503461018457806003193601126101845760206040517f4ff52032f36e32ac782042a01802e20394d4255c84a3c046490be98ab632691b8152f35b50346101845760a03660031901126101845761034861103f565b50610351611029565b5060443567ffffffffffffffff81116101de576103729036906004016110a1565b5060643567ffffffffffffffff81116101de576103939036906004016110a1565b5060843567ffffffffffffffff81116101de576103b4903690600401611109565b5060405163bc197c8160e01b8152602090f35b5034610184576060366003190112610184576020906040906001600160a01b036103ef61103f565b1681526008835281812060243582528352818120604435825283522054604051908152f35b50346101845780600319360112610184576020600254604051908152f35b5034610184578060031936011261018457602090604051908152f35b503461018457604036600319011261018457604061046a611029565b9160043581526001602052209060018060a01b03165f52602052602060ff60405f2054166040519015158152f35b5034610184576040366003190112610184576020906040906001600160a01b036104c061103f565b16815260078352818120602435825283522054604051908152f35b50346101845780600319360112610184576104f46111d9565b6104fc6113ca565b600160ff198254161781557f62e78cea01bee320cd4e420270b5ea74000d11b0c9f74754ebdbfc544b05a2586020604051338152a180f35b50346101845761054336611055565b81835260036020526040832080546001600160a01b0316330361063f5760ff600682015416156106305760018101546001600160a01b0316845260076020908152604080862060028401548752909152842054806105d9575b507f15819dd2fd9f6418b142e798d08a18d0bf06ea368f4480b7b0d3f75bd966bc489160046040920190808254925582519182526020820152a280f35b60038201546105e791611197565b612ee0810290808204612ee0149015171561061c576127109004821161060d575f61059c565b6364cb15f160e01b8452600484fd5b634e487b7160e01b85526011600452602485fd5b6366cb03e960e01b8452600484fd5b6282b42960e81b8452600484fd5b50346101845760803660031901126101845761066761103f565b60243590604435906064359061067b61130e565b6106836113ca565b82156108f55760018060a01b031691828552600860205260408520848652602052604085203386526020526003604086205410156108e65782855260076020526040852084865260205260408520548181610893575b5050823b1561088457604051637921219560e11b81528590818180610704868a30336004860161115f565b038183895af180156108885761086f575b50506107226002546111cb565b938460025560405160e0810181811067ffffffffffffffff82111761085b57869160209860069260405233825289820188815260408301868152606084019088825260808501928a8452604060a087019542875260c088019960018b5281528f60039052209560018060a01b039060018060a01b03905116166bffffffffffffffffffffffff60a01b87541617865560018060a01b03905116600186019060018060a01b03166bffffffffffffffffffffffff60a01b825416179055516002850155516003840155516004830155516005820155019051151560ff801983541691161790556040519384528584015260408301526060820152817f1d2286580411f12056775bf9e0fd10101148b09a6fca67c9f426fb113a28d1f860803393a360015f5160206113e55f395f51905f5255604051908152f35b634e487b7160e01b88526041600452602488fd5b816108799161106b565b61088457845f610715565b8480fd5b6040513d84823e3d90fd5b61089c91611197565b612ee0810290808204612ee014901517156108d257612710900482116108c3575f816106d9565b6364cb15f160e01b8552600485fd5b634e487b7160e01b86526011600452602486fd5b63010cf5b360e61b8552600485fd5b63162908e360e11b8552600485fd5b5060203660031901126101845761091961130e565b6109216113ca565b6004358152600360205260408120906006820180549260ff841615610c0e576005810154620151808101809111610bfa574210610beb576004810191825494853410610bdc57946109ab91859660ff191690558480808061271061098760045487611197565b049586956109a661271061099d60055484611197565b049889926111be565b6111be565b6006549095906001600160a01b0316828215610bd3575bf115610b6a57600183018054604051636120326560e01b815291939190602090829060049082906001600160a01b03165afa8015610bc85787918291610b7f575b50818093819282908215610b75575b6001600160a01b031690f115610b6a57825485918291829182916001600160a01b0316828215610b61575bf115610b5657805460028301805460038501549193926001600160a01b031691823b15610b5257610a8992889283604051809681958294637921219560e11b845233306004860161115f565b03925af1908115610b47578691610b32575b5050546001600160a01b03908116855260086020908152604080872093548752928152828620935490911685529190915282208054610ad9906111cb565b905554803411610af9575b5060015f5160206113e55f395f51905f525580f35b8180610b068193346111be565b818115610b29575b3390f115610b1d57805f610ae4565b604051903d90823e3d90fd5b506108fc610b0e565b81610b3c9161106b565b61088457845f610a9b565b6040513d88823e3d90fd5b8780fd5b6040513d85823e3d90fd5b506108fc610a3d565b6040513d86823e3d90fd5b6108fc9150610a12565b9150506020813d602011610bc0575b81610b9b6020938361106b565b81010312610bbc57516001600160a01b0381168103610bbc57869081610a03565b8680fd5b3d9150610b8e565b6040513d89823e3d90fd5b506108fc6109c2565b63cd1c886760e01b8552600485fd5b635573445160e11b8352600483fd5b634e487b7160e01b84526011600452602484fd5b6366cb03e960e01b8352600483fd5b50346101845780600319360112610184576006546040516001600160a01b039091168152602090f35b503461018457806003193601126101845760ff60209154166040519015158152f35b5034610184578060031936011261018457610c816111d9565b805460ff811615610cbf5760ff191681557f5db9ee0a495bf2e6ff9c91a7834c1ba4fdd244a5e8aa4e537bd38aeae4b073aa6020604051338152a180f35b638dfc202b60e01b8252600482fd5b503461018457604036600319011261018457610ce8611029565b336001600160a01b03821603610d04576102a790600435611346565b63334bd91960e11b8252600482fd5b5034610e13576020366003190112610e1357600435610d3061130e565b5f81815260036020526040902080546001600160a01b031633819003610e265760068201805460ff811615610e175760ff1916905560018201546002830154600390930154906001600160a01b0316803b15610e1357610dab935f809460405196879586948593637921219560e11b8552306004860161115f565b03925af18015610e0857610df3575b507f411aee90354c51b1b04cd563fcab2617142a9d50da19232d888547c8a1b7fd8a8280a260015f5160206113e55f395f51905f525580f35b610e009192505f9061106b565b5f905f610dba565b6040513d5f823e3d90fd5b5f80fd5b6366cb03e960e01b5f5260045ffd5b6282b42960e81b5f5260045ffd5b34610e13576040366003190112610e1357610e72600435610e53611029565b90610e6d61029d825f526001602052600160405f20015490565b611282565b005b34610e13575f366003190112610e1357602060405160038152f35b34610e13576020366003190112610e13576020610eba6004355f526001602052600160405f20015490565b604051908152f35b34610e13575f366003190112610e13576020600454604051908152f35b34610e13576020366003190112610e1357600435610efb6111d9565b6101f48111610f0957600555005b60405162461bcd60e51b815260206004820152601060248201526f0a4def2c2d8e8f240e8dede40d0d2ced60831b6044820152606490fd5b34610e13575f366003190112610e13576020604051620151808152f35b34610e13576020366003190112610e1357600435610f7a6111d9565b6103e88111610f8857600455005b60405162461bcd60e51b815260206004820152600c60248201526b08ccaca40e8dede40d0d2ced60a31b6044820152606490fd5b34610e13576020366003190112610e13576004359063ffffffff60e01b8216809203610e1357602091637965db0b60e01b8114908115610ffe575b5015158152f35b630271189760e51b811491508115611018575b5083610ff7565b6301ffc9a760e01b14905083611011565b602435906001600160a01b0382168203610e1357565b600435906001600160a01b0382168203610e1357565b6040906003190112610e13576004359060243590565b90601f8019910116810190811067ffffffffffffffff82111761108d57604052565b634e487b7160e01b5f52604160045260245ffd5b9080601f83011215610e135781359167ffffffffffffffff831161108d578260051b90604051936110d5602084018661106b565b8452602080850192820101928311610e1357602001905b8282106110f95750505090565b81358152602091820191016110ec565b81601f82011215610e135780359067ffffffffffffffff821161108d576040519261113e601f8401601f19166020018561106b565b82845260208383010111610e1357815f926020809301838601378301015290565b6001600160a01b039182168152911660208201526040810191909152606081019190915260a0608082018190525f9082015260c00190565b818102929181159184041417156111aa57565b634e487b7160e01b5f52601160045260245ffd5b919082039182116111aa57565b5f1981146111aa5760010190565b335f9081527f6c6746439175be9d65ee036dd6459ab0aaa575fbfcb50169861733a151cd793a602052604090205460ff161561121157565b63e2517d3f60e01b5f52336004527f4ff52032f36e32ac782042a01802e20394d4255c84a3c046490be98ab632691b60245260445ffd5b5f81815260016020908152604080832033845290915290205460ff161561126c5750565b63e2517d3f60e01b5f523360045260245260445ffd5b5f8181526001602090815260408083206001600160a01b038616845290915290205460ff16611308575f8181526001602081815260408084206001600160a01b0396909616808552959091528220805460ff19169091179055339291907f2f8788117e7eff1d82e926ec794901d17c78024a50270940304540a733656f0d9080a4600190565b50505f90565b60025f5160206113e55f395f51905f5254146113375760025f5160206113e55f395f51905f5255565b633ee5aeb560e01b5f5260045ffd5b5f8181526001602090815260408083206001600160a01b038616845290915290205460ff1615611308575f8181526001602090815260408083206001600160a01b0395909516808452949091528120805460ff19169055339291907ff6391f5c32d9c69d2a47ea670b442974b53935d1edc7fd64eb21e047a839171b9080a4600190565b60ff5f54166113d557565b63d93c066560e01b5f5260045ffdfe9b779b17422d0df92223018b32b4d1fa46e071723d6817e2486d003becc55f00a2646970667358221220a0168659d954cc78b4b49e4f0e69e077575ad0e310f25cd4e80fd4a80163d51764736f6c634300082100332f8788117e7eff1d82e926ec794901d17c78024a50270940304540a733656f0da6eef7e35abe7026729641147f7915573c7e97b47efa546f5f6e3230263bcb496c6746439175be9d65ee036dd6459ab0aaa575fbfcb50169861733a151cd793a","linkReferences":{}},"methodIdentifiers":{"DEFAULT_ADMIN_ROLE()":"a217fddf","LOCK_PERIOD()":"1820cabb","MAX_MARKUP_BPS()":"fc90fea3","MAX_RESALES()":"2c069cad","PLATFORM_ADMIN()":"c1d0a7d8","buyTicket(uint256)":"67dd74ca","cancelListing(uint256)":"305a67a8","getRoleAdmin(bytes32)":"248a9ca3","grantRole(bytes32,address)":"2f2ff15d","hasRole(bytes32,address)":"91d14854","listTicket(address,uint256,uint256,uint256)":"82102998","listings(uint256)":"de74e57b","nextListingId()":"aaccf1ec","onERC1155BatchReceived(address,address,uint256[],uint256[],bytes)":"bc197c81","onERC1155Received(address,address,uint256,uint256,bytes)":"f23a6e61","originalPrices(address,uint256)":"88cda66a","pause()":"8456cb59","paused()":"5c975abb","platformFeeBps()":"22dcd13e","renounceRole(bytes32,address)":"36568abe","resaleCount(address,uint256,uint256)":"b226421a","revokeRole(bytes32,address)":"d547741f","royaltyBps()":"c63adb2b","setOriginalPrice(uint256,uint256)":"d4bedf6e","setPlatformFee(uint256)":"12e8e2c3","setRoyaltyBps(uint256)":"1f72d831","supportsInterface(bytes4)":"01ffc9a7","treasury()":"61d027b3","unpause()":"3f4ba83a","updatePrice(uint256,uint256)":"82367b2d"},"id":45}