{"abi":[{"type":"constructor","inputs":[{"name":"_ticketImplementation","type":"address","internalType":"address"},{"name":"_treasury","type":"address","internalType":"address"},{"name":"_eventManager","type":"address","internalType":"address"},{"name":"_marketplace","type":"address","internalType":"address"}],"stateMutability":"nonpayable"},{"type":"function","name":"DEFAULT_ADMIN_ROLE","inputs":[],"outputs":[{"name":"","type":"bytes32","internalType":"bytes32"}],"stateMutability":"view"},{"type":"function","name":"PLATFORM_ADMIN","inputs":[],"outputs":[{"name":"","type":"bytes32","internalType":"bytes32"}],"stateMutability":"view"},{"type":"function","name":"createEvent","inputs":[{"name":"eventDate","type":"uint256","internalType":"uint256"},{"name":"eventEndDate","type":"uint256","internalType":"uint256"},{"name":"eventName","type":"string","internalType":"string"},{"name":"baseURI","type":"string","internalType":"string"}],"outputs":[{"name":"eventId","type":"uint256","internalType":"uint256"}],"stateMutability":"nonpayable"},{"type":"function","name":"createEventBatch","inputs":[{"name":"eventDates","type":"uint256[]","internalType":"uint256[]"},{"name":"eventEndDates","type":"uint256[]","internalType":"uint256[]"},{"name":"eventNames","type":"string[]","internalType":"string[]"},{"name":"baseURIs","type":"string[]","internalType":"string[]"}],"outputs":[{"name":"eventIds","type":"uint256[]","internalType":"uint256[]"}],"stateMutability":"nonpayable"},{"type":"function","name":"eventManager","inputs":[],"outputs":[{"name":"","type":"address","internalType":"contract IEventManager"}],"stateMutability":"view"},{"type":"function","name":"eventTicket","inputs":[{"name":"","type":"uint256","internalType":"uint256"}],"outputs":[{"name":"","type":"address","internalType":"address"}],"stateMutability":"view"},{"type":"function","name":"getRoleAdmin","inputs":[{"name":"role","type":"bytes32","internalType":"bytes32"}],"outputs":[{"name":"","type":"bytes32","internalType":"bytes32"}],"stateMutability":"view"},{"type":"function","name":"grantRole","inputs":[{"name":"role","type":"bytes32","internalType":"bytes32"},{"name":"account","type":"address","internalType":"address"}],"outputs":[],"stateMutability":"nonpayable"},{"type":"function","name":"hasRole","inputs":[{"name":"role","type":"bytes32","internalType":"bytes32"},{"name":"account","type":"address","internalType":"address"}],"outputs":[{"name":"","type":"bool","internalType":"bool"}],"stateMutability":"view"},{"type":"function","name":"marketplace","inputs":[],"outputs":[{"name":"","type":"address","internalType":"address"}],"stateMutability":"view"},{"type":"function","name":"nextEventId","inputs":[],"outputs":[{"name":"","type":"uint256","internalType":"uint256"}],"stateMutability":"view"},{"type":"function","name":"organizerEventCount","inputs":[{"name":"","type":"address","internalType":"address"}],"outputs":[{"name":"","type":"uint256","internalType":"uint256"}],"stateMutability":"view"},{"type":"function","name":"pause","inputs":[],"outputs":[],"stateMutability":"nonpayable"},{"type":"function","name":"paused","inputs":[],"outputs":[{"name":"","type":"bool","internalType":"bool"}],"stateMutability":"view"},{"type":"function","name":"platformFeeBps","inputs":[],"outputs":[{"name":"","type":"uint256","internalType":"uint256"}],"stateMutability":"view"},{"type":"function","name":"renounceRole","inputs":[{"name":"role","type":"bytes32","internalType":"bytes32"},{"name":"callerConfirmation","type":"address","internalType":"address"}],"outputs":[],"stateMutability":"nonpayable"},{"type":"function","name":"revokeRole","inputs":[{"name":"role","type":"bytes32","internalType":"bytes32"},{"name":"account","type":"address","internalType":"address"}],"outputs":[],"stateMutability":"nonpayable"},{"type":"function","name":"setPlatformFee","inputs":[{"name":"_feeBps","type":"uint256","internalType":"uint256"}],"outputs":[],"stateMutability":"nonpayable"},{"type":"function","name":"setTreasury","inputs":[{"name":"_treasury","type":"address","internalType":"address"}],"outputs":[],"stateMutability":"nonpayable"},{"type":"function","name":"supportsInterface","inputs":[{"name":"interfaceId","type":"bytes4","internalType":"bytes4"}],"outputs":[{"name":"","type":"bool","internalType":"bool"}],"stateMutability":"view"},{"type":"function","name":"ticketImplementation","inputs":[],"outputs":[{"name":"","type":"address","internalType":"address"}],"stateMutability":"view"},{"type":"function","name":"treasury","inputs":[],"outputs":[{"name":"","type":"address","internalType":"address"}],"stateMutability":"view"},{"type":"function","name":"unpause","inputs":[],"outputs":[],"stateMutability":"nonpayable"},{"type":"event","name":"EventCreated","inputs":[{"name":"eventId","type":"uint256","indexed":true,"internalType":"uint256"},{"name":"organizer","type":"address","indexed":true,"internalType":"address"},{"name":"ticketContract","type":"address","indexed":false,"internalType":"address"},{"name":"eventDate","type":"uint256","indexed":false,"internalType":"uint256"}],"anonymous":false},{"type":"event","name":"Paused","inputs":[{"name":"account","type":"address","indexed":false,"internalType":"address"}],"anonymous":false},{"type":"event","name":"PlatformFeeUpdated","inputs":[{"name":"oldFee","type":"uint256","indexed":false,"internalType":"uint256"},{"name":"newFee","type":"uint256","indexed":false,"internalType":"uint256"}],"anonymous":false},{"type":"event","name":"RoleAdminChanged","inputs":[{"name":"role","type":"bytes32","indexed":true,"internalType":"bytes32"},{"name":"previousAdminRole","type":"bytes32","indexed":true,"internalType":"bytes32"},{"name":"newAdminRole","type":"bytes32","indexed":true,"internalType":"bytes32"}],"anonymous":false},{"type":"event","name":"RoleGranted","inputs":[{"name":"role","type":"bytes32","indexed":true,"internalType":"bytes32"},{"name":"account","type":"address","indexed":true,"internalType":"address"},{"name":"sender","type":"address","indexed":true,"internalType":"address"}],"anonymous":false},{"type":"event","name":"RoleRevoked","inputs":[{"name":"role","type":"bytes32","indexed":true,"internalType":"bytes32"},{"name":"account","type":"address","indexed":true,"internalType":"address"},{"name":"sender","type":"address","indexed":true,"internalType":"address"}],"anonymous":false},{"type":"event","name":"TreasuryUpdated","inputs":[{"name":"oldTreasury","type":"address","indexed":true,"internalType":"address"},{"name":"newTreasury","type":"address","indexed":true,"internalType":"address"}],"anonymous":false},{"type":"event","name":"Unpaused","inputs":[{"name":"account","type":"address","indexed":false,"internalType":"address"}],"anonymous":false},{"type":"error","name":"AccessControlBadConfirmation","inputs":[]},{"type":"error","name":"AccessControlUnauthorizedAccount","inputs":[{"name":"account","type":"address","internalType":"address"},{"name":"neededRole","type":"bytes32","internalType":"bytes32"}]},{"type":"error","name":"EnforcedPause","inputs":[]},{"type":"error","name":"EventDateInPast","inputs":[]},{"type":"error","name":"ExpectedPause","inputs":[]},{"type":"error","name":"FailedDeployment","inputs":[]},{"type":"error","name":"FeeTooHigh","inputs":[]},{"type":"error","name":"InsufficientBalance","inputs":[{"name":"balance","type":"uint256","internalType":"uint256"},{"name":"needed","type":"uint256","internalType":"uint256"}]},{"type":"error","name":"InvalidEventDuration","inputs":[]},{"type":"error","name":"InvalidImplementation","inputs":[]},{"type":"error","name":"InvalidTreasury","inputs":[]}],"bytecode":{"object":"0x60a03461013957601f61120d38819003918201601f19168301916001600160401b0383118484101761013d578084926080946040528339810103126101395761004781610151565b9061005460208201610151565b61006c606061006560408501610151565b9301610151565b60fa600555926001600160a01b0381161561012a576001600160a01b0382161561011b5760805260018054610100600160a81b03191660089290921b610100600160a81b0316919091179055600380546001600160a01b03199081166001600160a01b039384161790915560028054909116929091169190911790556100f133610165565b506100fb336101db565b50604051610f3e908161026f82396080518181816106ce015261089c0152f35b6302979eb960e31b5f5260045ffd5b63340aafcd60e11b5f5260045ffd5b5f80fd5b634e487b7160e01b5f52604160045260245ffd5b51906001600160a01b038216820361013957565b6001600160a01b0381165f9081525f5160206111ed5f395f51905f52602052604090205460ff166101d6576001600160a01b03165f8181525f5160206111ed5f395f51905f5260205260408120805460ff191660011790553391905f5160206111ad5f395f51905f528180a4600190565b505f90565b6001600160a01b0381165f9081525f5160206111cd5f395f51905f52602052604090205460ff166101d6576001600160a01b03165f8181525f5160206111cd5f395f51905f5260205260408120805460ff191660011790553391907f4ff52032f36e32ac782042a01802e20394d4255c84a3c046490be98ab632691b905f5160206111ad5f395f51905f529080a460019056fe6080806040526004361015610012575f80fd5b5f905f3560e01c90816301ffc9a714610b6a575080630b086a8b14610b3257806312e8e2c314610ac55780631aa819581461080457806322dcd13e146107e6578063248a9ca3146107b35780632f2ff15d14610775578063363e11231461074257806336568abe146106fd5780633a72eeab146106b85780633f4ba83a146106505780635c975abb1461062d57806361d027b3146106005780638456cb59146105a657806384b9c5e81461030b5780638fd611be146102e257806391d14854146102995780639f9d903a1461027b578063a217fddf1461025f578063abc8c7af14610236578063c1d0a7d8146101fb578063d547741f146101b45763f0f442601461011b575f80fd5b346101b15760203660031901126101b157610134610bbd565b61013c610d3e565b6001600160a01b0381169081156101a25760018054610100600160a81b03198116600893841b610100600160a81b031617909155901c6001600160a01b03167f4ab5be82436d353e61ca18726e984e561f5c1cc7c6d38b29d2553c790434705a8380a380f35b6302979eb960e31b8352600483fd5b80fd5b50346101b15760403660031901126101b1576101f76004356101d4610bd3565b906101f26101ed825f525f602052600160405f20015490565b610dad565b610e88565b5080f35b50346101b157806003193601126101b15760206040517f4ff52032f36e32ac782042a01802e20394d4255c84a3c046490be98ab632691b8152f35b50346101b157806003193601126101b1576002546040516001600160a01b039091168152602090f35b50346101b157806003193601126101b157602090604051908152f35b50346101b157806003193601126101b1576020600454604051908152f35b50346101b15760403660031901126101b15760406102b5610bd3565b91600435815280602052209060018060a01b03165f52602052602060ff60405f2054166040519015158152f35b50346101b157806003193601126101b1576003546040516001600160a01b039091168152602090f35b50346101b15760803660031901126101b15760043567ffffffffffffffff81116105a25761033d903690600401610c17565b9060243567ffffffffffffffff811161059e5761035e903690600401610c17565b919060443567ffffffffffffffff811161059a57610380903690600401610c17565b9160643567ffffffffffffffff8111610596576103a1903690600401610c17565b936103aa610de5565b8688148061058d575b80610584575b1561053f576103c788610cc0565b966103d56040519889610c6a565b8888526103e189610cc0565b602089019990601f1901368b378a5b8b82821061043b578a8c604051928392602084019060208552518091526040840192915b818110610422575050500390f35b8251845285945060209384019390920191600101610414565b60208987928a8a6104bb8f8861046f818e6104688f8f906104618580936104779a610cd8565b3599610cd8565b3597610cfc565b979099610cfc565b6104a9604051998a9889978897630355032b60e31b895260048901526024880152608060448801526084870191610ca0565b84810360031901606486015291610ca0565b0391305af1908115610534578d916104ff575b508a518210156104eb57600582901b8b01602001526001016103f0565b634e487b7160e01b8d52603260045260248dfd5b90506020813d821161052c575b8161051960209383610c6a565b8101031261052857515f6104ce565b8c80fd5b3d915061050c565b6040513d8f823e3d90fd5b60405162461bcd60e51b815260206004820152601f60248201527f43616c6c2064617461204172726179206c656e677468206d69736d61746368006044820152606490fd5b508488146103b9565b508088146103b3565b8780fd5b8580fd5b8380fd5b5080fd5b50346101b157806003193601126101b1576105bf610d3e565b6105c7610de5565b600160ff19815416176001557f62e78cea01bee320cd4e420270b5ea74000d11b0c9f74754ebdbfc544b05a2586020604051338152a180f35b50346101b157806003193601126101b15760015460405160089190911c6001600160a01b03168152602090f35b50346101b157806003193601126101b157602060ff600154166040519015158152f35b50346101b157806003193601126101b157610669610d3e565b60015460ff8116156106a95760ff19166001557f5db9ee0a495bf2e6ff9c91a7834c1ba4fdd244a5e8aa4e537bd38aeae4b073aa6020604051338152a180f35b638dfc202b60e01b8252600482fd5b50346101b157806003193601126101b1576040517f00000000000000000000000000000000000000000000000000000000000000006001600160a01b03168152602090f35b50346101b15760403660031901126101b157610717610bd3565b336001600160a01b03821603610733576101f790600435610e88565b63334bd91960e11b8252600482fd5b50346101b15760203660031901126101b157602090600435815260068252604060018060a01b0391205416604051908152f35b50346101b15760403660031901126101b1576101f7600435610795610bd3565b906107ae6101ed825f525f602052600160405f20015490565b610e00565b50346101b15760203660031901126101b15760206107de6004355f525f602052600160405f20015490565b604051908152f35b50346101b157806003193601126101b1576020600554604051908152f35b5034610a94576080366003190112610a945760043560243560443567ffffffffffffffff8111610a945761083c903690600401610be9565b92909160643567ffffffffffffffff8111610a945761085f903690600401610be9565b61086a949194610de5565b42841115610ab65783831115610aa757610885600454610c48565b95866004556e5af43d82803e903d91602b57fd5bf37f0000000000000000000000000000000000000000000000000000000000000000763d602d80600a3d3981f3363d3d373d3d3d363d7300000062ffffff8260881c16175f5260781b1760205260018060a01b03603760095ff016958615610a98576002546003546001600160a01b039182169116883b15610a94576109658a935f96610953604051998a9889986313cbbcc360e01b8a523360048b015260248a01528d60448a015260e060648a015260e4890191610ca0565b86810360031901608488015291610ca0565b9160a484015260c4830152038183885af18015610a8957610a74575b508490848252600660205260408220846bffffffffffffffffffffffff60a01b8254161790553382526007602052604082206109bd8154610c48565b90556003546001600160a01b0316803b15610a705760a4839260405194859384926342ab17a760e11b84528a600485015233602485015289604485015288606485015260848401525af18015610a6557610a50575b506020935060405191825283820152817fcdcc5e76ef2815ee3d62c351fc4b1daf2bfae2ea6e479fa98247769aaebb8b7f60403393a3604051908152f35b610a5b858092610c6a565b61059e5783610a12565b6040513d87823e3d90fd5b8280fd5b610a819195505f90610c6a565b5f935f610981565b6040513d5f823e3d90fd5b5f80fd5b63b06ebf3d60e01b5f5260045ffd5b630d282bc960e01b5f5260045ffd5b63043169c160e41b5f5260045ffd5b34610a94576020366003190112610a9457600435610ae1610d3e565b6103e88111610b235760407fd347e206f25a89b917fc9482f1a2d294d749baa4dc9bde7fb495ee11fe49164391600554908060055582519182526020820152a1005b63cd4e616760e01b5f5260045ffd5b34610a94576020366003190112610a94576001600160a01b03610b53610bbd565b165f526007602052602060405f2054604051908152f35b34610a94576020366003190112610a94576004359063ffffffff60e01b8216809203610a9457602091637965db0b60e01b8114908115610bac575b5015158152f35b6301ffc9a760e01b14905083610ba5565b600435906001600160a01b0382168203610a9457565b602435906001600160a01b0382168203610a9457565b9181601f84011215610a945782359167ffffffffffffffff8311610a945760208381860195010111610a9457565b9181601f84011215610a945782359167ffffffffffffffff8311610a94576020808501948460051b010111610a9457565b5f198114610c565760010190565b634e487b7160e01b5f52601160045260245ffd5b90601f8019910116810190811067ffffffffffffffff821117610c8c57604052565b634e487b7160e01b5f52604160045260245ffd5b908060209392818452848401375f828201840152601f01601f1916010190565b67ffffffffffffffff8111610c8c5760051b60200190565b9190811015610ce85760051b0190565b634e487b7160e01b5f52603260045260245ffd5b9190811015610ce85760051b81013590601e1981360301821215610a9457019081359167ffffffffffffffff8311610a94576020018236038113610a94579190565b335f9081527f25521907a94bc5990fa896a45ffbc9d26dbb0bdeae5336c7f61298623f4efac3602052604090205460ff1615610d7657565b63e2517d3f60e01b5f52336004527f4ff52032f36e32ac782042a01802e20394d4255c84a3c046490be98ab632691b60245260445ffd5b5f8181526020818152604080832033845290915290205460ff1615610dcf5750565b63e2517d3f60e01b5f523360045260245260445ffd5b60ff60015416610df157565b63d93c066560e01b5f5260045ffd5b5f818152602081815260408083206001600160a01b038616845290915290205460ff16610e82575f818152602081815260408083206001600160a01b0395909516808452949091528120805460ff19166001179055339291907f2f8788117e7eff1d82e926ec794901d17c78024a50270940304540a733656f0d9080a4600190565b50505f90565b5f818152602081815260408083206001600160a01b038616845290915290205460ff1615610e82575f818152602081815260408083206001600160a01b0395909516808452949091528120805460ff19169055339291907ff6391f5c32d9c69d2a47ea670b442974b53935d1edc7fd64eb21e047a839171b9080a460019056fea26469706673582212203d4cfca08079fa2e223dbcf9d4bd810fb9312e085ffa8c64c04cc44629e16c1e64736f6c634300082100332f8788117e7eff1d82e926ec794901d17c78024a50270940304540a733656f0d25521907a94bc5990fa896a45ffbc9d26dbb0bdeae5336c7f61298623f4efac3ad3228b676f7d3cd4284a5443f17f1962b36e491b30a40b2405849e597ba5fb5","linkReferences":{}},"methodIdentifiers":{"DEFAULT_ADMIN_ROLE()":"a217fddf","PLATFORM_ADMIN()":"c1d0a7d8","createEvent(uint256,uint256,string,string)":"1aa81958","createEventBatch(uint256[],uint256[],string[],string[])":"84b9c5e8","eventManager()":"8fd611be","eventTicket(uint256)":"363e1123","getRoleAdmin(bytes32)":"248a9ca3","grantRole(bytes32,address)":"2f2ff15d","hasRole(bytes32,address)":"91d14854","marketplace()":"abc8c7af","nextEventId()":"9f9d903a","organizerEventCount(address)":"0b086a8b","pause()":"8456cb59","paused()":"5c975abb","platformFeeBps()":"22dcd13e","renounceRole(bytes32,address)":"36568abe","revokeRole(bytes32,address)":"d547741f","setPlatformFee(uint256)":"12e8e2c3","setTreasury(address)":"f0f44260","supportsInterface(bytes4)":"01ffc9a7","ticketImplementation()":"3a72eeab","treasury()":"61d027b3","unpause()":"3f4ba83a"},"id":43}