{"abi":[{"type":"constructor","inputs":[],"stateMutability":"nonpayable"},{"type":"function","name":"DEFAULT_ADMIN_ROLE","inputs":[],"outputs":[{"name":"","type":"bytes32","internalType":"bytes32"}],"stateMutability":"view"},{"type":"function","name":"EVENT_ADMIN","inputs":[],"outputs":[{"name":"","type":"bytes32","internalType":"bytes32"}],"stateMutability":"view"},{"type":"function","name":"activateEvent","inputs":[{"name":"eventId","type":"uint256","internalType":"uint256"}],"outputs":[],"stateMutability":"nonpayable"},{"type":"function","name":"cancelEvent","inputs":[{"name":"eventId","type":"uint256","internalType":"uint256"}],"outputs":[],"stateMutability":"nonpayable"},{"type":"function","name":"endEvent","inputs":[{"name":"eventId","type":"uint256","internalType":"uint256"}],"outputs":[],"stateMutability":"nonpayable"},{"type":"function","name":"events","inputs":[{"name":"","type":"uint256","internalType":"uint256"}],"outputs":[{"name":"eventId","type":"uint256","internalType":"uint256"},{"name":"organizer","type":"address","internalType":"address"},{"name":"ticketContract","type":"address","internalType":"address"},{"name":"startTime","type":"uint256","internalType":"uint256"},{"name":"endTime","type":"uint256","internalType":"uint256"},{"name":"createdAt","type":"uint256","internalType":"uint256"},{"name":"state","type":"uint8","internalType":"enum EventManager.EventState"},{"name":"exists","type":"bool","internalType":"bool"}],"stateMutability":"view"},{"type":"function","name":"getEventDetails","inputs":[{"name":"eventId","type":"uint256","internalType":"uint256"}],"outputs":[{"name":"","type":"tuple","internalType":"struct EventManager.EventDetails","components":[{"name":"eventId","type":"uint256","internalType":"uint256"},{"name":"organizer","type":"address","internalType":"address"},{"name":"ticketContract","type":"address","internalType":"address"},{"name":"startTime","type":"uint256","internalType":"uint256"},{"name":"endTime","type":"uint256","internalType":"uint256"},{"name":"createdAt","type":"uint256","internalType":"uint256"},{"name":"state","type":"uint8","internalType":"enum EventManager.EventState"},{"name":"exists","type":"bool","internalType":"bool"}]}],"stateMutability":"view"},{"type":"function","name":"getOrganizerEvents","inputs":[{"name":"organizer","type":"address","internalType":"address"}],"outputs":[{"name":"","type":"uint256[]","internalType":"uint256[]"}],"stateMutability":"view"},{"type":"function","name":"getRoleAdmin","inputs":[{"name":"role","type":"bytes32","internalType":"bytes32"}],"outputs":[{"name":"","type":"bytes32","internalType":"bytes32"}],"stateMutability":"view"},{"type":"function","name":"grantRole","inputs":[{"name":"role","type":"bytes32","internalType":"bytes32"},{"name":"account","type":"address","internalType":"address"}],"outputs":[],"stateMutability":"nonpayable"},{"type":"function","name":"hasRole","inputs":[{"name":"role","type":"bytes32","internalType":"bytes32"},{"name":"account","type":"address","internalType":"address"}],"outputs":[{"name":"","type":"bool","internalType":"bool"}],"stateMutability":"view"},{"type":"function","name":"isEventCancelled","inputs":[{"name":"eventId","type":"uint256","internalType":"uint256"}],"outputs":[{"name":"","type":"bool","internalType":"bool"}],"stateMutability":"view"},{"type":"function","name":"isEventEnded","inputs":[{"name":"eventId","type":"uint256","internalType":"uint256"}],"outputs":[{"name":"","type":"bool","internalType":"bool"}],"stateMutability":"view"},{"type":"function","name":"organizerEvents","inputs":[{"name":"","type":"address","internalType":"address"},{"name":"","type":"uint256","internalType":"uint256"}],"outputs":[{"name":"","type":"uint256","internalType":"uint256"}],"stateMutability":"view"},{"type":"function","name":"pause","inputs":[],"outputs":[],"stateMutability":"nonpayable"},{"type":"function","name":"paused","inputs":[],"outputs":[{"name":"","type":"bool","internalType":"bool"}],"stateMutability":"view"},{"type":"function","name":"registerEvent","inputs":[{"name":"eventId","type":"uint256","internalType":"uint256"},{"name":"organizer","type":"address","internalType":"address"},{"name":"ticketContract","type":"address","internalType":"address"},{"name":"startTime","type":"uint256","internalType":"uint256"},{"name":"endTime","type":"uint256","internalType":"uint256"}],"outputs":[],"stateMutability":"nonpayable"},{"type":"function","name":"renounceRole","inputs":[{"name":"role","type":"bytes32","internalType":"bytes32"},{"name":"callerConfirmation","type":"address","internalType":"address"}],"outputs":[],"stateMutability":"nonpayable"},{"type":"function","name":"revokeRole","inputs":[{"name":"role","type":"bytes32","internalType":"bytes32"},{"name":"account","type":"address","internalType":"address"}],"outputs":[],"stateMutability":"nonpayable"},{"type":"function","name":"stateTransitions","inputs":[{"name":"","type":"uint256","internalType":"uint256"},{"name":"","type":"uint8","internalType":"enum EventManager.EventState"}],"outputs":[{"name":"","type":"uint256","internalType":"uint256"}],"stateMutability":"view"},{"type":"function","name":"supportsInterface","inputs":[{"name":"interfaceId","type":"bytes4","internalType":"bytes4"}],"outputs":[{"name":"","type":"bool","internalType":"bool"}],"stateMutability":"view"},{"type":"function","name":"totalEvents","inputs":[],"outputs":[{"name":"","type":"uint256","internalType":"uint256"}],"stateMutability":"view"},{"type":"function","name":"unpause","inputs":[],"outputs":[],"stateMutability":"nonpayable"},{"type":"function","name":"updateEventMetadata","inputs":[{"name":"eventId","type":"uint256","internalType":"uint256"},{"name":"newStartTime","type":"uint256","internalType":"uint256"},{"name":"newEndTime","type":"uint256","internalType":"uint256"}],"outputs":[],"stateMutability":"nonpayable"},{"type":"function","name":"verifyEventState","inputs":[{"name":"eventId","type":"uint256","internalType":"uint256"},{"name":"requiredState","type":"uint8","internalType":"enum EventManager.EventState"}],"outputs":[{"name":"","type":"bool","internalType":"bool"}],"stateMutability":"view"},{"type":"event","name":"EventMetadataUpdated","inputs":[{"name":"eventId","type":"uint256","indexed":true,"internalType":"uint256"},{"name":"startTime","type":"uint256","indexed":false,"internalType":"uint256"},{"name":"endTime","type":"uint256","indexed":false,"internalType":"uint256"}],"anonymous":false},{"type":"event","name":"EventRegistered","inputs":[{"name":"eventId","type":"uint256","indexed":true,"internalType":"uint256"},{"name":"organizer","type":"address","indexed":true,"internalType":"address"},{"name":"ticketContract","type":"address","indexed":false,"internalType":"address"},{"name":"startTime","type":"uint256","indexed":false,"internalType":"uint256"},{"name":"endTime","type":"uint256","indexed":false,"internalType":"uint256"}],"anonymous":false},{"type":"event","name":"EventStateChanged","inputs":[{"name":"eventId","type":"uint256","indexed":true,"internalType":"uint256"},{"name":"previousState","type":"uint8","indexed":false,"internalType":"enum EventManager.EventState"},{"name":"newState","type":"uint8","indexed":false,"internalType":"enum EventManager.EventState"}],"anonymous":false},{"type":"event","name":"Paused","inputs":[{"name":"account","type":"address","indexed":false,"internalType":"address"}],"anonymous":false},{"type":"event","name":"RoleAdminChanged","inputs":[{"name":"role","type":"bytes32","indexed":true,"internalType":"bytes32"},{"name":"previousAdminRole","type":"bytes32","indexed":true,"internalType":"bytes32"},{"name":"newAdminRole","type":"bytes32","indexed":true,"internalType":"bytes32"}],"anonymous":false},{"type":"event","name":"RoleGranted","inputs":[{"name":"role","type":"bytes32","indexed":true,"internalType":"bytes32"},{"name":"account","type":"address","indexed":true,"internalType":"address"},{"name":"sender","type":"address","indexed":true,"internalType":"address"}],"anonymous":false},{"type":"event","name":"RoleRevoked","inputs":[{"name":"role","type":"bytes32","indexed":true,"internalType":"bytes32"},{"name":"account","type":"address","indexed":true,"internalType":"address"},{"name":"sender","type":"address","indexed":true,"internalType":"address"}],"anonymous":false},{"type":"event","name":"Unpaused","inputs":[{"name":"account","type":"address","indexed":false,"internalType":"address"}],"anonymous":false},{"type":"error","name":"AccessControlBadConfirmation","inputs":[]},{"type":"error","name":"AccessControlUnauthorizedAccount","inputs":[{"name":"account","type":"address","internalType":"address"},{"name":"neededRole","type":"bytes32","internalType":"bytes32"}]},{"type":"error","name":"EnforcedPause","inputs":[]},{"type":"error","name":"EventAlreadyExists","inputs":[]},{"type":"error","name":"EventNotFound","inputs":[]},{"type":"error","name":"ExpectedPause","inputs":[]},{"type":"error","name":"InvalidTimestamp","inputs":[]},{"type":"error","name":"InvalidTransition","inputs":[]},{"type":"error","name":"Unauthorized","inputs":[]}],"bytecode":{"object":"0x60806040523461002c5761001233610030565b5061001c336100a6565b506040516110be908161013a8239f35b5f80fd5b6001600160a01b0381165f9081525f5160206112385f395f51905f52602052604090205460ff166100a1576001600160a01b03165f8181525f5160206112385f395f51905f5260205260408120805460ff191660011790553391905f5160206111f85f395f51905f528180a4600190565b505f90565b6001600160a01b0381165f9081525f5160206112185f395f51905f52602052604090205460ff166100a1576001600160a01b03165f8181525f5160206112185f395f51905f5260205260408120805460ff191660011790553391907fb5b47644c905f9c9f971bbb9c430fe3b99fe3674e04e8312af23bbb168c5deb0905f5160206111f85f395f51905f529080a460019056fe6080806040526004361015610012575f80fd5b5f3560e01c90816301ffc9a714610e08575080630b79143014610d75578063110f269714610d38578063248a9ca314610d065780632f2ff15d14610cc9578063330a347b14610bdf578063361445c614610b3557806336568abe14610af15780633f4ba83a14610a8b5780633f69babd146109925780634c3d6bf51461095a5780635c975abb146109385780636ac59497146108fb5780638456cb591461089257806385562f4e1461060a57806391d14854146105c257806393e1d09814610558578063a217fddf1461053e578063b501ec9714610504578063ba870686146104e7578063d547741f146104a3578063e4aa47e31461044b578063ebf03feb14610380578063ec38d5a0146102105763ff9f59701461012f575f80fd5b3461020c57602036600319011261020c576001600160a01b03610150610e7e565b165f52600360205260405f2060405190816020825491828152019081925f5260205f20905f5b8181106101f657505050829003601f01601f1916820167ffffffffffffffff8111838210176101e25760408181526020808352845190830181905291928392918301915f5b8181106101c9575050500390f35b82518452859450602093840193909201916001016101bb565b634e487b7160e01b5f52604160045260245ffd5b8254845260209093019260019283019201610176565b5f80fd5b3461020c57602036600319011261020c576004355f60e060405161023381610edc565b8281528260208201528260408201528260608201528260808201528260a08201528260c08201520152805f52600260205260ff600660405f20015460081c1615610371575f52600260205260405f2060405161028e81610edc565b8154815260018201546001600160a01b039081166020830190815260028401549091166040830190815260038401546060840190815260048086015460808601908152600587015460a08701908152600690970154949660ff86169460c0880194919386101561035d576101009861035396865260ff60e08a019860081c16151588526040519851895260018060a01b03905116602089015260018060a01b0390511660408801525160608701525160808601525160a08501525160c0840190610e5b565b51151560e0820152f35b634e487b7160e01b5f52602160045260245ffd5b635add554360e01b5f5260045ffd5b3461020c57602036600319011261020c57600435805f52600260205260405f20600681019081549060ff8260081c161561037157600101546001600160a01b0316330361043d5760ff16600481101561035d5761042e57600160ff19825416179055805f52600560205260405f2060015f5260205260405f204290557f1b09e6ca83808e9d69247118ab5eb5ad0579b24739d50297147f5489d2dcd8ee604080515f815260016020820152a2005b63a6532e5d60e01b5f5260045ffd5b6282b42960e81b5f5260045ffd5b3461020c57604036600319011261020c57610464610e7e565b6001600160a01b03165f9081526003602052604090208054602435919082101561020c5760209161049491610eb3565b90549060031b1c604051908152f35b3461020c57604036600319011261020c576104e56004356104c2610e68565b906104e06104db825f525f602052600160405f20015490565b610f48565b611008565b005b3461020c575f36600319011261020c576020600454604051908152f35b3461020c575f36600319011261020c5760206040517fb5b47644c905f9c9f971bbb9c430fe3b99fe3674e04e8312af23bbb168c5deb08152f35b3461020c575f36600319011261020c5760206040515f8152f35b3461020c5761056636610e94565b90805f52600260205260ff600660405f20015460081c169081610591575b6020826040519015158152f35b90505f52600260205260ff600660405f2001541690600481101561035d57600482101561035d576020911482610584565b3461020c57604036600319011261020c576105db610e68565b6004355f525f60205260405f209060018060a01b03165f52602052602060ff60405f2054166040519015158152f35b3461020c5760a036600319011261020c57600435610626610e68565b906044356001600160a01b0381169081900361020c57335f9081527f98d5eb94ef595559086d06064c5daead304c6018af9ea5d71aed54de1ad8d6096020526040902054606435916084359160ff161561085b57835f52600260205260ff600660405f20015460081c1661084c578183101561083d574282111561083d576040516106b081610edc565b848152602081019560018060a01b03169586815260066040830192848452606081018781526080820187815260a083019142835260c08401965f885260e0850196600188528c5f52600260205260405f209551865560018060a01b03905116600186019060018060a01b03166bffffffffffffffffffffffff60a01b82541617905560018060a01b03905116600285019060018060a01b03166bffffffffffffffffffffffff60a01b825416179055516003840155516004830155516005820155019151600481101561035d578254915161ffff1990921660ff919091161790151560081b61ff00161790555f8581526003602052604090208054680100000000000000008110156101e2576107cb91600182018155610eb3565b81549060031b9086821b915f19901b1916179055600454915f198314610829577f473a52ad531801c2a16516aa47c08182d0c98b2fb2523a22207c88bc30703fb69360016060940160045560405192835260208301526040820152a3005b634e487b7160e01b5f52601160045260245ffd5b63b7d0949760e01b5f5260045ffd5b63232cdbe760e11b5f5260045ffd5b63e2517d3f60e01b5f52336004527fb5b47644c905f9c9f971bbb9c430fe3b99fe3674e04e8312af23bbb168c5deb060245260445ffd5b3461020c575f36600319011261020c576108aa610ef9565b60015460ff81166108ec5760019060ff1916176001557f62e78cea01bee320cd4e420270b5ea74000d11b0c9f74754ebdbfc544b05a2586020604051338152a1005b63d93c066560e01b5f5260045ffd5b3461020c57602036600319011261020c576004355f52600260205260ff600660405f20015416600481101561035d57602090600260405191148152f35b3461020c575f36600319011261020c57602060ff600154166040519015158152f35b3461020c5761096836610e94565b905f52600560205260405f2090600481101561035d575f52602052602060405f2054604051908152f35b3461020c57602036600319011261020c57600435805f52600260205260405f20600681019081549060ff8260081c161561037157600101546001600160a01b031633141580610a53575b61043d5760ff1690600482101561035d576002821461042e577f1b09e6ca83808e9d69247118ab5eb5ad0579b24739d50297147f5489d2dcd8ee91604091600360ff19825416179055835f526005602052815f2060035f52602052815f20429055610a4982518092610e5b565b60036020820152a2005b50335f9081527f98d5eb94ef595559086d06064c5daead304c6018af9ea5d71aed54de1ad8d609602052604090205460ff16156109dc565b3461020c575f36600319011261020c57610aa3610ef9565b60015460ff811615610ae25760ff19166001557f5db9ee0a495bf2e6ff9c91a7834c1ba4fdd244a5e8aa4e537bd38aeae4b073aa6020604051338152a1005b638dfc202b60e01b5f5260045ffd5b3461020c57604036600319011261020c57610b0a610e68565b336001600160a01b03821603610b26576104e590600435611008565b63334bd91960e11b5f5260045ffd5b3461020c57606036600319011261020c5760043560243560443590825f52600260205260405f2090600682015460ff8160081c16156103715760018301546001600160a01b0316330361043d5760ff16600481101561035d5761042e578281101561083d574283111561083d57827f59410b17ecf522a0e341a74bfcc375ef3a1a455c92cfaf7bfb3efee4e69bbd8a936004848460036040970155015582519182526020820152a2005b3461020c57602036600319011261020c57600435805f52600260205260405f2060018060a01b0360018201541633141580610c91575b61043d5760060160ff81541690600482101561035d576001820361042e577f1b09e6ca83808e9d69247118ab5eb5ad0579b24739d50297147f5489d2dcd8ee91604091600260ff19825416179055835f526005602052815f2060025f52602052815f20429055610c8782518092610e5b565b60026020820152a2005b50335f9081527f98d5eb94ef595559086d06064c5daead304c6018af9ea5d71aed54de1ad8d609602052604090205460ff1615610c15565b3461020c57604036600319011261020c576104e5600435610ce8610e68565b90610d016104db825f525f602052600160405f20015490565b610f80565b3461020c57602036600319011261020c576020610d306004355f525f602052600160405f20015490565b604051908152f35b3461020c57602036600319011261020c576004355f52600260205260ff600660405f20015416600481101561035d57602090600360405191148152f35b3461020c57602036600319011261020c576004355f52600260205261010060405f2060ff81549160018060a01b036001820154169060018060a01b0360028201541660038201546004830154916006600585015494015494604051978852602088015260408701526060860152608085015260a0840152610dfb60c08401838316610e5b565b60081c16151560e0820152f35b3461020c57602036600319011261020c576004359063ffffffff60e01b821680920361020c57602091637965db0b60e01b8114908115610e4a575b5015158152f35b6301ffc9a760e01b14905083610e43565b90600482101561035d5752565b602435906001600160a01b038216820361020c57565b600435906001600160a01b038216820361020c57565b604090600319011261020c5760043590602435600481101561020c5790565b8054821015610ec8575f5260205f2001905f90565b634e487b7160e01b5f52603260045260245ffd5b610100810190811067ffffffffffffffff8211176101e257604052565b335f9081527fad3228b676f7d3cd4284a5443f17f1962b36e491b30a40b2405849e597ba5fb5602052604090205460ff1615610f3157565b63e2517d3f60e01b5f52336004525f60245260445ffd5b5f8181526020818152604080832033845290915290205460ff1615610f6a5750565b63e2517d3f60e01b5f523360045260245260445ffd5b5f818152602081815260408083206001600160a01b038616845290915290205460ff16611002575f818152602081815260408083206001600160a01b0395909516808452949091528120805460ff19166001179055339291907f2f8788117e7eff1d82e926ec794901d17c78024a50270940304540a733656f0d9080a4600190565b50505f90565b5f818152602081815260408083206001600160a01b038616845290915290205460ff1615611002575f818152602081815260408083206001600160a01b0395909516808452949091528120805460ff19169055339291907ff6391f5c32d9c69d2a47ea670b442974b53935d1edc7fd64eb21e047a839171b9080a460019056fea2646970667358221220bcd0e6c5db3bd11524e235cee3fb59be897da57ffb52fdacc7f34307d2bb9df564736f6c634300082100332f8788117e7eff1d82e926ec794901d17c78024a50270940304540a733656f0d98d5eb94ef595559086d06064c5daead304c6018af9ea5d71aed54de1ad8d609ad3228b676f7d3cd4284a5443f17f1962b36e491b30a40b2405849e597ba5fb5","linkReferences":{}},"methodIdentifiers":{"DEFAULT_ADMIN_ROLE()":"a217fddf","EVENT_ADMIN()":"b501ec97","activateEvent(uint256)":"ebf03feb","cancelEvent(uint256)":"3f69babd","endEvent(uint256)":"330a347b","events(uint256)":"0b791430","getEventDetails(uint256)":"ec38d5a0","getOrganizerEvents(address)":"ff9f5970","getRoleAdmin(bytes32)":"248a9ca3","grantRole(bytes32,address)":"2f2ff15d","hasRole(bytes32,address)":"91d14854","isEventCancelled(uint256)":"110f2697","isEventEnded(uint256)":"6ac59497","organizerEvents(address,uint256)":"e4aa47e3","pause()":"8456cb59","paused()":"5c975abb","registerEvent(uint256,address,address,uint256,uint256)":"85562f4e","renounceRole(bytes32,address)":"36568abe","revokeRole(bytes32,address)":"d547741f","stateTransitions(uint256,uint8)":"4c3d6bf5","supportsInterface(bytes4)":"01ffc9a7","totalEvents()":"ba870686","unpause()":"3f4ba83a","updateEventMetadata(uint256,uint256,uint256)":"361445c6","verifyEventState(uint256,uint8)":"93e1d098"},"id":44}