{"abi":[{"type":"constructor","inputs":[],"stateMutability":"nonpayable"},{"type":"function","name":"BADGE_ISSUER_ROLE","inputs":[],"outputs":[{"name":"","type":"bytes32","internalType":"bytes32"}],"stateMutability":"view"},{"type":"function","name":"DEFAULT_ADMIN_ROLE","inputs":[],"outputs":[{"name":"","type":"bytes32","internalType":"bytes32"}],"stateMutability":"view"},{"type":"function","name":"approve","inputs":[{"name":"to","type":"address","internalType":"address"},{"name":"tokenId","type":"uint256","internalType":"uint256"}],"outputs":[],"stateMutability":"nonpayable"},{"type":"function","name":"awardBadge","inputs":[{"name":"eventId","type":"uint256","internalType":"uint256"},{"name":"organizer","type":"address","internalType":"address"},{"name":"attendeeCount","type":"uint256","internalType":"uint256"},{"name":"encryptedData","type":"bytes32","internalType":"bytes32"}],"outputs":[],"stateMutability":"nonpayable"},{"type":"function","name":"badgeIssued","inputs":[{"name":"","type":"uint256","internalType":"uint256"},{"name":"","type":"address","internalType":"address"}],"outputs":[{"name":"","type":"bool","internalType":"bool"}],"stateMutability":"view"},{"type":"function","name":"badgeMetadata","inputs":[{"name":"","type":"uint256","internalType":"uint256"}],"outputs":[{"name":"eventId","type":"uint256","internalType":"uint256"},{"name":"issuedAt","type":"uint256","internalType":"uint256"},{"name":"attendeeCount","type":"uint256","internalType":"uint256"},{"name":"encryptedData","type":"bytes32","internalType":"bytes32"}],"stateMutability":"view"},{"type":"function","name":"balanceOf","inputs":[{"name":"owner","type":"address","internalType":"address"}],"outputs":[{"name":"","type":"uint256","internalType":"uint256"}],"stateMutability":"view"},{"type":"function","name":"getApproved","inputs":[{"name":"tokenId","type":"uint256","internalType":"uint256"}],"outputs":[{"name":"","type":"address","internalType":"address"}],"stateMutability":"view"},{"type":"function","name":"getOrganizerReputation","inputs":[{"name":"organizer","type":"address","internalType":"address"}],"outputs":[{"name":"","type":"uint256","internalType":"uint256"}],"stateMutability":"view"},{"type":"function","name":"getRoleAdmin","inputs":[{"name":"role","type":"bytes32","internalType":"bytes32"}],"outputs":[{"name":"","type":"bytes32","internalType":"bytes32"}],"stateMutability":"view"},{"type":"function","name":"grantRole","inputs":[{"name":"role","type":"bytes32","internalType":"bytes32"},{"name":"account","type":"address","internalType":"address"}],"outputs":[],"stateMutability":"nonpayable"},{"type":"function","name":"hasRole","inputs":[{"name":"role","type":"bytes32","internalType":"bytes32"},{"name":"account","type":"address","internalType":"address"}],"outputs":[{"name":"","type":"bool","internalType":"bool"}],"stateMutability":"view"},{"type":"function","name":"isApprovedForAll","inputs":[{"name":"owner","type":"address","internalType":"address"},{"name":"operator","type":"address","internalType":"address"}],"outputs":[{"name":"","type":"bool","internalType":"bool"}],"stateMutability":"view"},{"type":"function","name":"name","inputs":[],"outputs":[{"name":"","type":"string","internalType":"string"}],"stateMutability":"view"},{"type":"function","name":"ownerOf","inputs":[{"name":"tokenId","type":"uint256","internalType":"uint256"}],"outputs":[{"name":"","type":"address","internalType":"address"}],"stateMutability":"view"},{"type":"function","name":"renounceRole","inputs":[{"name":"role","type":"bytes32","internalType":"bytes32"},{"name":"callerConfirmation","type":"address","internalType":"address"}],"outputs":[],"stateMutability":"nonpayable"},{"type":"function","name":"revokeRole","inputs":[{"name":"role","type":"bytes32","internalType":"bytes32"},{"name":"account","type":"address","internalType":"address"}],"outputs":[],"stateMutability":"nonpayable"},{"type":"function","name":"safeTransferFrom","inputs":[{"name":"from","type":"address","internalType":"address"},{"name":"to","type":"address","internalType":"address"},{"name":"tokenId","type":"uint256","internalType":"uint256"}],"outputs":[],"stateMutability":"nonpayable"},{"type":"function","name":"safeTransferFrom","inputs":[{"name":"from","type":"address","internalType":"address"},{"name":"to","type":"address","internalType":"address"},{"name":"tokenId","type":"uint256","internalType":"uint256"},{"name":"data","type":"bytes","internalType":"bytes"}],"outputs":[],"stateMutability":"nonpayable"},{"type":"function","name":"setApprovalForAll","inputs":[{"name":"operator","type":"address","internalType":"address"},{"name":"approved","type":"bool","internalType":"bool"}],"outputs":[],"stateMutability":"nonpayable"},{"type":"function","name":"supportsInterface","inputs":[{"name":"interfaceId","type":"bytes4","internalType":"bytes4"}],"outputs":[{"name":"","type":"bool","internalType":"bool"}],"stateMutability":"view"},{"type":"function","name":"symbol","inputs":[],"outputs":[{"name":"","type":"string","internalType":"string"}],"stateMutability":"view"},{"type":"function","name":"tokenURI","inputs":[{"name":"tokenId","type":"uint256","internalType":"uint256"}],"outputs":[{"name":"","type":"string","internalType":"string"}],"stateMutability":"view"},{"type":"function","name":"transferFrom","inputs":[{"name":"from","type":"address","internalType":"address"},{"name":"to","type":"address","internalType":"address"},{"name":"tokenId","type":"uint256","internalType":"uint256"}],"outputs":[],"stateMutability":"nonpayable"},{"type":"event","name":"Approval","inputs":[{"name":"owner","type":"address","indexed":true,"internalType":"address"},{"name":"approved","type":"address","indexed":true,"internalType":"address"},{"name":"tokenId","type":"uint256","indexed":true,"internalType":"uint256"}],"anonymous":false},{"type":"event","name":"ApprovalForAll","inputs":[{"name":"owner","type":"address","indexed":true,"internalType":"address"},{"name":"operator","type":"address","indexed":true,"internalType":"address"},{"name":"approved","type":"bool","indexed":false,"internalType":"bool"}],"anonymous":false},{"type":"event","name":"BadgeAwarded","inputs":[{"name":"badgeId","type":"uint256","indexed":true,"internalType":"uint256"},{"name":"eventId","type":"uint256","indexed":true,"internalType":"uint256"},{"name":"organizer","type":"address","indexed":true,"internalType":"address"},{"name":"attendeeCount","type":"uint256","indexed":false,"internalType":"uint256"}],"anonymous":false},{"type":"event","name":"RoleAdminChanged","inputs":[{"name":"role","type":"bytes32","indexed":true,"internalType":"bytes32"},{"name":"previousAdminRole","type":"bytes32","indexed":true,"internalType":"bytes32"},{"name":"newAdminRole","type":"bytes32","indexed":true,"internalType":"bytes32"}],"anonymous":false},{"type":"event","name":"RoleGranted","inputs":[{"name":"role","type":"bytes32","indexed":true,"internalType":"bytes32"},{"name":"account","type":"address","indexed":true,"internalType":"address"},{"name":"sender","type":"address","indexed":true,"internalType":"address"}],"anonymous":false},{"type":"event","name":"RoleRevoked","inputs":[{"name":"role","type":"bytes32","indexed":true,"internalType":"bytes32"},{"name":"account","type":"address","indexed":true,"internalType":"address"},{"name":"sender","type":"address","indexed":true,"internalType":"address"}],"anonymous":false},{"type":"event","name":"Transfer","inputs":[{"name":"from","type":"address","indexed":true,"internalType":"address"},{"name":"to","type":"address","indexed":true,"internalType":"address"},{"name":"tokenId","type":"uint256","indexed":true,"internalType":"uint256"}],"anonymous":false},{"type":"error","name":"AccessControlBadConfirmation","inputs":[]},{"type":"error","name":"AccessControlUnauthorizedAccount","inputs":[{"name":"account","type":"address","internalType":"address"},{"name":"neededRole","type":"bytes32","internalType":"bytes32"}]},{"type":"error","name":"BadgeAlreadyIssued","inputs":[]},{"type":"error","name":"ERC721IncorrectOwner","inputs":[{"name":"sender","type":"address","internalType":"address"},{"name":"tokenId","type":"uint256","internalType":"uint256"},{"name":"owner","type":"address","internalType":"address"}]},{"type":"error","name":"ERC721InsufficientApproval","inputs":[{"name":"operator","type":"address","internalType":"address"},{"name":"tokenId","type":"uint256","internalType":"uint256"}]},{"type":"error","name":"ERC721InvalidApprover","inputs":[{"name":"approver","type":"address","internalType":"address"}]},{"type":"error","name":"ERC721InvalidOperator","inputs":[{"name":"operator","type":"address","internalType":"address"}]},{"type":"error","name":"ERC721InvalidOwner","inputs":[{"name":"owner","type":"address","internalType":"address"}]},{"type":"error","name":"ERC721InvalidReceiver","inputs":[{"name":"receiver","type":"address","internalType":"address"}]},{"type":"error","name":"ERC721InvalidSender","inputs":[{"name":"sender","type":"address","internalType":"address"}]},{"type":"error","name":"ERC721NonexistentToken","inputs":[{"name":"tokenId","type":"uint256","internalType":"uint256"}]}],"bytecode":{"object":"0x60806040523461034557604080519081016001600160401b03811182821017610250576040908152601582527f4576656e74566572736520486f73742042616467650000000000000000000000602083015280519081016001600160401b038111828210176102505760405260078152664556626164676560c81b602082015281516001600160401b038111610250575f54600181811c9116801561033b575b602082101461023257601f81116102ce575b50602092601f821160011461026f57928192935f92610264575b50508160011b915f199060031b1c1916175f555b80516001600160401b03811161025057600154600181811c91168015610246575b602082101461023257601f81116101c4575b50602091601f8211600114610164579181925f92610159575b50508160011b915f199060031b1c1916176001555b61014933610349565b506040516112b490816103d38239f35b015190505f8061012b565b601f1982169260015f52805f20915f5b8581106101ac57508360019510610194575b505050811b01600155610140565b01515f1960f88460031b161c191690555f8080610186565b91926020600181928685015181550194019201610174565b818111156101125760015f52601f820160051c7fb10e2d527612073b26eecdfd717e6a320cf44b4afac2b0732d9fcbe2b7fa0cf66020841061022a575b81601f9101920160051c03905f5b82811061021d575050610112565b5f8282015560010161020f565b5f9150610201565b634e487b7160e01b5f52602260045260245ffd5b90607f1690610100565b634e487b7160e01b5f52604160045260245ffd5b015190505f806100cb565b601f198216935f8052805f20915f5b8681106102b6575083600195961061029e575b505050811b015f556100df565b01515f1960f88460031b161c191690555f8080610291565b9192602060018192868501518155019401920161027e565b818111156100b1575f8052601f820160051c7f290decd9548b62a8d60345a988386fc84ba6bc95484008f6362f93160ef3e56360208410610333575b81601f9101920160051c03905f5b8281106103265750506100b1565b5f82820155600101610318565b5f915061030a565b90607f169061009f565b5f80fd5b6001600160a01b0381165f9081525f5160206116875f395f51905f52602052604090205460ff166103cd576001600160a01b03165f8181525f5160206116875f395f51905f5260205260408120805460ff191660011790553391907f2f8788117e7eff1d82e926ec794901d17c78024a50270940304540a733656f0d8180a4600190565b505f9056fe6080806040526004361015610012575f80fd5b5f905f3560e01c90816301ffc9a714610cbf5750806304e27f2b14610c8557806306fdde0314610bcd578063081812fc14610b91578063095ea7b314610aa7578063181eaa3114610a5e57806323b872dd14610a47578063248a9ca314610a1c5780632f2ff15d146109de57806336568abe1461099a57806342842e0e1461096b5780636352211e1461093b57806370a08231146104de5780637675b6dd1461055257806391d1485414610509578063952d13c3146104de57806395d89b41146103d6578063a217fddf146103bc578063a22cb46514610308578063b88d4fde14610272578063c87b56dd14610215578063d547741f146101cd578063e4de973d146101805763e985e9c514610126575f80fd5b3461017d57604036600319011261017d576040610141610d68565b9161014a610d7e565b9260018060a01b031681526005602052209060018060a01b03165f52602052602060ff60405f2054166040519015158152f35b80fd5b503461017d57602036600319011261017d57604060809160043581526009602052208054906001810154906003600282015491015491604051938452602084015260408301526060820152f35b503461017d57604036600319011261017d576102116004356101ed610d7e565b9061020c610207825f526006602052600160405f20015490565b610ffe565b6110c4565b5080f35b3461026e57602036600319011261026e57610231600435610fca565b505f604051610241602082610dce565b5261026a604051610253602082610dce565b5f8152604051918291602083526020830190610d44565b0390f35b5f80fd5b3461026e57608036600319011261026e5761028b610d68565b610293610d7e565b906044356064359267ffffffffffffffff841161026e573660238501121561026e578360040135926102c484610df0565b936102d26040519586610dce565b808552366024828801011161026e576020815f92602461030699018389013786010152610300838383610e0c565b33611148565b005b3461026e57604036600319011261026e57610321610d68565b6024359081151580920361026e5733156103a9576001600160a01b031690811561039657335f52600560205260405f20825f5260205260405f2060ff1981541660ff83161790556040519081527f17307eab39ab6107e8899845ad3d59bd9653f200f220920489ca2b5937696c3160203392a3005b50630b61174360e31b5f5260045260245ffd5b63a9fbf51f60e01b5f525f60045260245ffd5b3461026e575f36600319011261026e5760206040515f8152f35b3461026e575f36600319011261026e576040515f6001548060011c906001811680156104d4575b6020831081146104c05782855290811561049c575060011461043e575b61026a8361042a81850382610dce565b604051918291602083526020830190610d44565b91905060015f527fb10e2d527612073b26eecdfd717e6a320cf44b4afac2b0732d9fcbe2b7fa0cf6915f905b8082106104825750909150810160200161042a61041a565b91926001816020925483858801015201910190929161046a565b60ff191660208086019190915291151560051b8401909101915061042a905061041a565b634e487b7160e01b5f52602260045260245ffd5b91607f16916103fd565b3461026e57602036600319011261026e5760206105016104fc610d68565b610f99565b604051908152f35b3461026e57604036600319011261026e57610522610d7e565b6004355f52600660205260405f209060018060a01b03165f52602052602060ff60405f2054166040519015158152f35b3461026e57608036600319011261026e5760043561056e610d7e565b335f9081527fc8f666778301ef3ffe95b99e78a61103530eee0b35b17a75476f537e6a5c78ab602052604090205490916044359160ff161561090457805f52600860205260405f2060018060a01b0384165f5260205260ff60405f2054166108f5575f8181526008602090815260408083206001600160a01b03871684529091529020805460ff191660011790556007545f1981146108e157600101806007556040516080810181811067ffffffffffffffff8211176108cd576040528281526003602082014281526040830186815260608401916064358352855f52600960205260405f2094518555516001850155516002840155519101556020926040516106788582610dce565b5f81526001600160a01b0386169586156108ba575f8481526002875260409020546001600160a01b03168015159081610889575b885f526003885260405f2060018154019055855f526002885260405f20896bffffffffffffffffffffffff60a01b8254161790558589827fddf252ad1be2c89b69c2b068fc378daa952ba7f163c4a11628f55a4df523b3ef5f80a450610876573b610740575b5084937fcd3fc471c9021416b3369967ece66ef996a57ba754c0e1b3b35db4809415abcc91604051908152a4005b846107799160405180938192630a85bd0160e11b83523360048401525f6024840152876044840152608060648401526084830190610d44565b03815f8a5af15f9181610836575b506107dc5785853d156107d4573d9061079f82610df0565b916107ad6040519384610dce565b82523d5f8284013e5b815191826107d15783633250574960e11b5f5260045260245ffd5b01fd5b6060906107b6565b929391929091906001600160e01b03191663757a42ff60e11b01610823579291907fcd3fc471c9021416b3369967ece66ef996a57ba754c0e1b3b35db4809415abcc610712565b84633250574960e11b5f5260045260245ffd5b9091508581813d831161086f575b61084e8183610dce565b8101031261026e57516001600160e01b03198116810361026e579087610787565b503d610844565b6339e3563760e11b5f525f60045260245ffd5b5f8681526004602052604080822080546001600160a01b031916905582825260038a52902080545f190190556106ac565b633250574960e11b5f525f60045260245ffd5b634e487b7160e01b5f52604160045260245ffd5b634e487b7160e01b5f52601160045260245ffd5b633ef03ddf60e11b5f5260045ffd5b63e2517d3f60e01b5f52336004527fbad9bd8ea6da246af6ffc3e2b6ccee8b112f583c6316acd46d1b5308dfa39f3260245260445ffd5b3461026e57602036600319011261026e576020610959600435610fca565b6040516001600160a01b039091168152f35b3461026e5761030661097c36610d94565b906040519261098c602085610dce565b5f8452610300838383610e0c565b3461026e57604036600319011261026e576109b3610d7e565b336001600160a01b038216036109cf57610306906004356110c4565b63334bd91960e11b5f5260045ffd5b3461026e57604036600319011261026e576103066004356109fd610d7e565b90610a17610207825f526006602052600160405f20015490565b611038565b3461026e57602036600319011261026e5760206105016004355f526006602052600160405f20015490565b3461026e57610306610a5836610d94565b91610e0c565b3461026e57604036600319011261026e57610a77610d7e565b6004355f52600860205260405f209060018060a01b03165f52602052602060ff60405f2054166040519015158152f35b3461026e57604036600319011261026e57610ac0610d68565b602435610acc81610fca565b33151580610b7e575b80610b51575b610b3e5781906001600160a01b0384811691167f8c5be1e5ebec7d5bd14f71427d1e84f3dd0314c0f7b2291e5b200ac8c7c3b9255f80a45f90815260046020526040902080546001600160a01b0319166001600160a01b03909216919091179055005b63a9fbf51f60e01b5f523360045260245ffd5b506001600160a01b0381165f90815260056020908152604080832033845290915290205460ff1615610adb565b506001600160a01b038116331415610ad5565b3461026e57602036600319011261026e57600435610bae81610fca565b505f526004602052602060018060a01b0360405f205416604051908152f35b3461026e575f36600319011261026e576040515f5f548060011c90600181168015610c7b575b6020831081146104c05782855290811561049c5750600114610c1f5761026a8361042a81850382610dce565b5f8080527f290decd9548b62a8d60345a988386fc84ba6bc95484008f6362f93160ef3e563939250905b808210610c615750909150810160200161042a61041a565b919260018160209254838588010152019101909291610c49565b91607f1691610bf3565b3461026e575f36600319011261026e5760206040517fbad9bd8ea6da246af6ffc3e2b6ccee8b112f583c6316acd46d1b5308dfa39f328152f35b3461026e57602036600319011261026e576004359063ffffffff60e01b821680920361026e57602091637965db0b60e01b8114908115610d01575b5015158152f35b6380ac58cd60e01b811491508115610d33575b8115610d22575b5083610cfa565b6301ffc9a760e01b14905083610d1b565b635b5e139f60e01b81149150610d14565b805180835260209291819084018484015e5f828201840152601f01601f1916010190565b600435906001600160a01b038216820361026e57565b602435906001600160a01b038216820361026e57565b606090600319011261026e576004356001600160a01b038116810361026e57906024356001600160a01b038116810361026e579060443590565b90601f8019910116810190811067ffffffffffffffff8211176108cd57604052565b67ffffffffffffffff81116108cd57601f01601f191660200190565b6001600160a01b03909116919082156108ba575f828152600260205260409020546001600160a01b031692829033151580610f04575b5084610ed1575b805f52600360205260405f2060018154019055815f52600260205260405f20816bffffffffffffffffffffffff60a01b825416179055847fddf252ad1be2c89b69c2b068fc378daa952ba7f163c4a11628f55a4df523b3ef5f80a46001600160a01b0316808303610eb957505050565b6364283d7b60e01b5f5260045260245260445260645ffd5b5f82815260046020526040902080546001600160a01b0319169055845f52600360205260405f205f198154019055610e49565b90915080610f48575b15610f1a5782905f610e42565b8284610f3257637e27328960e01b5f5260045260245ffd5b63177e802f60e01b5f523360045260245260445ffd5b503384148015610f77575b80610f0d57505f838152600460205260409020546001600160a01b03163314610f0d565b505f84815260056020908152604080832033845290915290205460ff16610f53565b6001600160a01b03168015610fb7575f52600360205260405f205490565b6322718ad960e21b5f525f60045260245ffd5b5f818152600260205260409020546001600160a01b0316908115610fec575090565b637e27328960e01b5f5260045260245ffd5b5f81815260066020908152604080832033845290915290205460ff16156110225750565b63e2517d3f60e01b5f523360045260245260445ffd5b5f8181526006602090815260408083206001600160a01b038616845290915290205460ff166110be575f8181526006602090815260408083206001600160a01b0395909516808452949091528120805460ff19166001179055339291907f2f8788117e7eff1d82e926ec794901d17c78024a50270940304540a733656f0d9080a4600190565b50505f90565b5f8181526006602090815260408083206001600160a01b038616845290915290205460ff16156110be575f8181526006602090815260408083206001600160a01b0395909516808452949091528120805460ff19169055339291907ff6391f5c32d9c69d2a47ea670b442974b53935d1edc7fd64eb21e047a839171b9080a4600190565b823b611156575b5050505050565b604051630a85bd0160e11b81526001600160a01b0391821660048201529181166024830152604482019390935260806064820152911691602090829081906111a2906084830190610d44565b03815f865af15f9181611239575b5061120557503d156111fe573d6111c681610df0565b906111d46040519283610dce565b81523d5f602083013e5b805190816111f95782633250574960e11b5f5260045260245ffd5b602001fd5b60606111de565b6001600160e01b03191663757a42ff60e11b0161122757505f8080808061114f565b633250574960e11b5f5260045260245ffd5b9091506020813d602011611276575b8161125560209383610dce565b8101031261026e57516001600160e01b03198116810361026e57905f6111b0565b3d915061124856fea2646970667358221220685f4d70cf5d13d24dc27761071322d2d0735259e1f22147215904be98e0191164736f6c6343000821003354cdd369e4e8a8515e52ca72ec816c2101831ad1f18bf44102ed171459c9b4f8","linkReferences":{}},"methodIdentifiers":{"BADGE_ISSUER_ROLE()":"04e27f2b","DEFAULT_ADMIN_ROLE()":"a217fddf","approve(address,uint256)":"095ea7b3","awardBadge(uint256,address,uint256,bytes32)":"7675b6dd","badgeIssued(uint256,address)":"181eaa31","badgeMetadata(uint256)":"e4de973d","balanceOf(address)":"70a08231","getApproved(uint256)":"081812fc","getOrganizerReputation(address)":"952d13c3","getRoleAdmin(bytes32)":"248a9ca3","grantRole(bytes32,address)":"2f2ff15d","hasRole(bytes32,address)":"91d14854","isApprovedForAll(address,address)":"e985e9c5","name()":"06fdde03","ownerOf(uint256)":"6352211e","renounceRole(bytes32,address)":"36568abe","revokeRole(bytes32,address)":"d547741f","safeTransferFrom(address,address,uint256)":"42842e0e","safeTransferFrom(address,address,uint256,bytes)":"b88d4fde","setApprovalForAll(address,bool)":"a22cb465","supportsInterface(bytes4)":"01ffc9a7","symbol()":"95d89b41","tokenURI(uint256)":"c87b56dd","transferFrom(address,address,uint256)":"23b872dd"},"id":47}