{"abi":[{"type":"constructor","inputs":[],"stateMutability":"nonpayable"},{"type":"function","name":"DEFAULT_ADMIN_ROLE","inputs":[],"outputs":[{"name":"","type":"bytes32","internalType":"bytes32"}],"stateMutability":"view"},{"type":"function","name":"EVENT_ADMIN","inputs":[],"outputs":[{"name":"","type":"bytes32","internalType":"bytes32"}],"stateMutability":"view"},{"type":"function","name":"QR_VERIFY_TYPEHASH","inputs":[],"outputs":[{"name":"","type":"bytes32","internalType":"bytes32"}],"stateMutability":"view"},{"type":"function","name":"RATE_LIMIT","inputs":[],"outputs":[{"name":"","type":"uint256","internalType":"uint256"}],"stateMutability":"view"},{"type":"function","name":"VERIFIER_ROLE","inputs":[],"outputs":[{"name":"","type":"bytes32","internalType":"bytes32"}],"stateMutability":"view"},{"type":"function","name":"batchCheckIn","inputs":[{"name":"eventId","type":"uint256","internalType":"uint256"},{"name":"attendees","type":"address[]","internalType":"address[]"},{"name":"tierIds","type":"uint256[]","internalType":"uint256[]"}],"outputs":[],"stateMutability":"nonpayable"},{"type":"function","name":"canParticipate","inputs":[{"name":"eventId","type":"uint256","internalType":"uint256"},{"name":"user","type":"address","internalType":"address"}],"outputs":[{"name":"","type":"bool","internalType":"bool"}],"stateMutability":"view"},{"type":"function","name":"checkInHistory","inputs":[{"name":"","type":"uint256","internalType":"uint256"},{"name":"","type":"address","internalType":"address"},{"name":"","type":"uint256","internalType":"uint256"}],"outputs":[{"name":"eventId","type":"uint256","internalType":"uint256"},{"name":"attendee","type":"address","internalType":"address"},{"name":"tierId","type":"uint256","internalType":"uint256"},{"name":"timestamp","type":"uint256","internalType":"uint256"},{"name":"verifier","type":"address","internalType":"address"},{"name":"poapAwarded","type":"bool","internalType":"bool"}],"stateMutability":"view"},{"type":"function","name":"configureEventCheckIn","inputs":[{"name":"eventId","type":"uint256","internalType":"uint256"},{"name":"ticketContract","type":"address","internalType":"address"},{"name":"poapContract","type":"address","internalType":"address"},{"name":"startTime","type":"uint256","internalType":"uint256"},{"name":"endTime","type":"uint256","internalType":"uint256"}],"outputs":[],"stateMutability":"nonpayable"},{"type":"function","name":"eip712Domain","inputs":[],"outputs":[{"name":"fields","type":"bytes1","internalType":"bytes1"},{"name":"name","type":"string","internalType":"string"},{"name":"version","type":"string","internalType":"string"},{"name":"chainId","type":"uint256","internalType":"uint256"},{"name":"verifyingContract","type":"address","internalType":"address"},{"name":"salt","type":"bytes32","internalType":"bytes32"},{"name":"extensions","type":"uint256[]","internalType":"uint256[]"}],"stateMutability":"view"},{"type":"function","name":"eventCheckIns","inputs":[{"name":"","type":"uint256","internalType":"uint256"}],"outputs":[{"name":"ticketContract","type":"address","internalType":"address"},{"name":"poapContract","type":"address","internalType":"address"},{"name":"active","type":"bool","internalType":"bool"},{"name":"checkInCount","type":"uint256","internalType":"uint256"},{"name":"startTime","type":"uint256","internalType":"uint256"},{"name":"endTime","type":"uint256","internalType":"uint256"}],"stateMutability":"view"},{"type":"function","name":"eventManager","inputs":[],"outputs":[{"name":"","type":"address","internalType":"contract IEventManager"}],"stateMutability":"view"},{"type":"function","name":"getCheckInHistory","inputs":[{"name":"eventId","type":"uint256","internalType":"uint256"},{"name":"attendee","type":"address","internalType":"address"}],"outputs":[{"name":"","type":"tuple[]","internalType":"struct QRVerificationSystem.CheckInRecord[]","components":[{"name":"eventId","type":"uint256","internalType":"uint256"},{"name":"attendee","type":"address","internalType":"address"},{"name":"tierId","type":"uint256","internalType":"uint256"},{"name":"timestamp","type":"uint256","internalType":"uint256"},{"name":"verifier","type":"address","internalType":"address"},{"name":"poapAwarded","type":"bool","internalType":"bool"}]}],"stateMutability":"view"},{"type":"function","name":"getCheckInStatus","inputs":[{"name":"eventId","type":"uint256","internalType":"uint256"},{"name":"attendee","type":"address","internalType":"address"}],"outputs":[{"name":"checkedIn","type":"bool","internalType":"bool"},{"name":"checkInTime","type":"uint256","internalType":"uint256"},{"name":"poapAwarded","type":"bool","internalType":"bool"}],"stateMutability":"view"},{"type":"function","name":"getCurrentNonce","inputs":[{"name":"attendee","type":"address","internalType":"address"}],"outputs":[{"name":"","type":"uint256","internalType":"uint256"}],"stateMutability":"view"},{"type":"function","name":"getEventCheckInCount","inputs":[{"name":"eventId","type":"uint256","internalType":"uint256"}],"outputs":[{"name":"","type":"uint256","internalType":"uint256"}],"stateMutability":"view"},{"type":"function","name":"getRoleAdmin","inputs":[{"name":"role","type":"bytes32","internalType":"bytes32"}],"outputs":[{"name":"","type":"bytes32","internalType":"bytes32"}],"stateMutability":"view"},{"type":"function","name":"grantRole","inputs":[{"name":"role","type":"bytes32","internalType":"bytes32"},{"name":"account","type":"address","internalType":"address"}],"outputs":[],"stateMutability":"nonpayable"},{"type":"function","name":"hasCheckedIn","inputs":[{"name":"","type":"uint256","internalType":"uint256"},{"name":"","type":"address","internalType":"address"}],"outputs":[{"name":"","type":"bool","internalType":"bool"}],"stateMutability":"view"},{"type":"function","name":"hasRole","inputs":[{"name":"role","type":"bytes32","internalType":"bytes32"},{"name":"account","type":"address","internalType":"address"}],"outputs":[{"name":"","type":"bool","internalType":"bool"}],"stateMutability":"view"},{"type":"function","name":"lastCheckInTime","inputs":[{"name":"","type":"address","internalType":"address"}],"outputs":[{"name":"","type":"uint256","internalType":"uint256"}],"stateMutability":"view"},{"type":"function","name":"nonces","inputs":[{"name":"","type":"address","internalType":"address"}],"outputs":[{"name":"","type":"uint256","internalType":"uint256"}],"stateMutability":"view"},{"type":"function","name":"qrCodeUsed","inputs":[{"name":"","type":"bytes32","internalType":"bytes32"}],"outputs":[{"name":"","type":"bool","internalType":"bool"}],"stateMutability":"view"},{"type":"function","name":"renounceRole","inputs":[{"name":"role","type":"bytes32","internalType":"bytes32"},{"name":"callerConfirmation","type":"address","internalType":"address"}],"outputs":[],"stateMutability":"nonpayable"},{"type":"function","name":"reverseCheckIn","inputs":[{"name":"eventId","type":"uint256","internalType":"uint256"},{"name":"attendee","type":"address","internalType":"address"}],"outputs":[],"stateMutability":"nonpayable"},{"type":"function","name":"revokeRole","inputs":[{"name":"role","type":"bytes32","internalType":"bytes32"},{"name":"account","type":"address","internalType":"address"}],"outputs":[],"stateMutability":"nonpayable"},{"type":"function","name":"setCheckInActive","inputs":[{"name":"eventId","type":"uint256","internalType":"uint256"},{"name":"active","type":"bool","internalType":"bool"}],"outputs":[],"stateMutability":"nonpayable"},{"type":"function","name":"setEventManager","inputs":[{"name":"_eventManager","type":"address","internalType":"address"}],"outputs":[],"stateMutability":"nonpayable"},{"type":"function","name":"supportsInterface","inputs":[{"name":"interfaceId","type":"bytes4","internalType":"bytes4"}],"outputs":[{"name":"","type":"bool","internalType":"bool"}],"stateMutability":"view"},{"type":"function","name":"verifyAndCheckIn","inputs":[{"name":"eventId","type":"uint256","internalType":"uint256"},{"name":"attendee","type":"address","internalType":"address"},{"name":"tierId","type":"uint256","internalType":"uint256"},{"name":"nonce","type":"uint256","internalType":"uint256"},{"name":"timestamp","type":"uint256","internalType":"uint256"},{"name":"deadline","type":"uint256","internalType":"uint256"},{"name":"signature","type":"bytes","internalType":"bytes"}],"outputs":[],"stateMutability":"nonpayable"},{"type":"function","name":"verifyQRSignature","inputs":[{"name":"eventId","type":"uint256","internalType":"uint256"},{"name":"attendee","type":"address","internalType":"address"},{"name":"tierId","type":"uint256","internalType":"uint256"},{"name":"nonce","type":"uint256","internalType":"uint256"},{"name":"timestamp","type":"uint256","internalType":"uint256"},{"name":"deadline","type":"uint256","internalType":"uint256"},{"name":"signature","type":"bytes","internalType":"bytes"}],"outputs":[{"name":"valid","type":"bool","internalType":"bool"},{"name":"reason","type":"string","internalType":"string"}],"stateMutability":"view"},{"type":"event","name":"CheckInCompleted","inputs":[{"name":"eventId","type":"uint256","indexed":true,"internalType":"uint256"},{"name":"attendee","type":"address","indexed":true,"internalType":"address"},{"name":"tierId","type":"uint256","indexed":false,"internalType":"uint256"},{"name":"poapAwarded","type":"bool","indexed":false,"internalType":"bool"}],"anonymous":false},{"type":"event","name":"EIP712DomainChanged","inputs":[],"anonymous":false},{"type":"event","name":"EventCheckInConfigured","inputs":[{"name":"eventId","type":"uint256","indexed":true,"internalType":"uint256"},{"name":"ticketContract","type":"address","indexed":false,"internalType":"address"},{"name":"poapContract","type":"address","indexed":false,"internalType":"address"}],"anonymous":false},{"type":"event","name":"POAPAwarded","inputs":[{"name":"eventId","type":"uint256","indexed":true,"internalType":"uint256"},{"name":"attendee","type":"address","indexed":true,"internalType":"address"}],"anonymous":false},{"type":"event","name":"RoleAdminChanged","inputs":[{"name":"role","type":"bytes32","indexed":true,"internalType":"bytes32"},{"name":"previousAdminRole","type":"bytes32","indexed":true,"internalType":"bytes32"},{"name":"newAdminRole","type":"bytes32","indexed":true,"internalType":"bytes32"}],"anonymous":false},{"type":"event","name":"RoleGranted","inputs":[{"name":"role","type":"bytes32","indexed":true,"internalType":"bytes32"},{"name":"account","type":"address","indexed":true,"internalType":"address"},{"name":"sender","type":"address","indexed":true,"internalType":"address"}],"anonymous":false},{"type":"event","name":"RoleRevoked","inputs":[{"name":"role","type":"bytes32","indexed":true,"internalType":"bytes32"},{"name":"account","type":"address","indexed":true,"internalType":"address"},{"name":"sender","type":"address","indexed":true,"internalType":"address"}],"anonymous":false},{"type":"event","name":"TicketVerified","inputs":[{"name":"eventId","type":"uint256","indexed":true,"internalType":"uint256"},{"name":"attendee","type":"address","indexed":true,"internalType":"address"},{"name":"tierId","type":"uint256","indexed":false,"internalType":"uint256"},{"name":"verifier","type":"address","indexed":false,"internalType":"address"}],"anonymous":false},{"type":"error","name":"AccessControlBadConfirmation","inputs":[]},{"type":"error","name":"AccessControlUnauthorizedAccount","inputs":[{"name":"account","type":"address","internalType":"address"},{"name":"neededRole","type":"bytes32","internalType":"bytes32"}]},{"type":"error","name":"AlreadyCheckedIn","inputs":[]},{"type":"error","name":"CheckInNotActive","inputs":[]},{"type":"error","name":"DeadlineExpired","inputs":[]},{"type":"error","name":"ECDSAInvalidSignature","inputs":[]},{"type":"error","name":"ECDSAInvalidSignatureLength","inputs":[{"name":"length","type":"uint256","internalType":"uint256"}]},{"type":"error","name":"ECDSAInvalidSignatureS","inputs":[{"name":"s","type":"bytes32","internalType":"bytes32"}]},{"type":"error","name":"EventEnded","inputs":[]},{"type":"error","name":"EventNotConfigured","inputs":[]},{"type":"error","name":"EventNotStarted","inputs":[]},{"type":"error","name":"InvalidShortString","inputs":[]},{"type":"error","name":"InvalidSignature","inputs":[]},{"type":"error","name":"InvalidTimestamp","inputs":[]},{"type":"error","name":"NoTicketOwned","inputs":[]},{"type":"error","name":"NonceAlreadyUsed","inputs":[]},{"type":"error","name":"QRCodeAlreadyUsed","inputs":[]},{"type":"error","name":"RateLimitExceeded","inputs":[]},{"type":"error","name":"ReentrancyGuardReentrantCall","inputs":[]},{"type":"error","name":"StringTooLong","inputs":[{"name":"str","type":"string","internalType":"string"}]}],"bytecode":{"object":"0x6101606040523461017f57604051610018604082610183565b6014815260208101907f5152566572696669636174696f6e53797374656d000000000000000000000000825260405191610053604084610183565b600183526020830191603160f81b835261006c81610356565b61012052610079846104fd565b61014052519020918260e05251902080610100524660a0526040519060208201927f8b73c3c69bb8fe3d512ecc4cf759cc79239f7b179b0ffacaa9a75d522b39400f8452604083015260608201524660808201523060a082015260a081526100e260c082610183565b5190206080523060c05260017f9b779b17422d0df92223018b32b4d1fa46e071723d6817e2486d003becc55f0055610119336101ba565b5061012333610230565b5061012d336102c3565b506040516122869081610642823960805181611e04015260a05181611ec1015260c05181611dce015260e05181611e5301526101005181611e7901526101205181611081015261014051816110aa0152f35b5f80fd5b601f909101601f19168101906001600160401b038211908210176101a657604052565b634e487b7160e01b5f52604160045260245ffd5b6001600160a01b0381165f9081525f5160206129285f395f51905f52602052604090205460ff1661022b576001600160a01b03165f8181525f5160206129285f395f51905f5260205260408120805460ff191660011790553391905f5160206128c85f395f51905f528180a4600190565b505f90565b6001600160a01b0381165f9081525f5160206129085f395f51905f52602052604090205460ff1661022b576001600160a01b03165f8181525f5160206129085f395f51905f5260205260408120805460ff191660011790553391907fb5b47644c905f9c9f971bbb9c430fe3b99fe3674e04e8312af23bbb168c5deb0905f5160206128c85f395f51905f529080a4600190565b6001600160a01b0381165f9081525f5160206128e85f395f51905f52602052604090205460ff1661022b576001600160a01b03165f8181525f5160206128e85f395f51905f5260205260408120805460ff191660011790553391907fa48c898f5241be426b79d4b5a3c206f9c9a06576e1b72c338c3ec849771d5686905f5160206128c85f395f51905f529080a4600190565b908151602081105f146103d0575090601f815111610390576020815191015160208210610381571790565b5f198260200360031b1b161790565b604460209160405192839163305a27a960e01b83528160048401528051918291826024860152018484015e5f828201840152601f01601f19168101030190fd5b6001600160401b0381116101a657600154600181811c911680156104f3575b60208210146104df57601f81116104a0575b50602092601f821160011461043f57928192935f92610434575b50508160011b915f199060031b1c19161760015560ff90565b015190505f8061041b565b601f1982169360015f52805f20915f5b8681106104885750836001959610610470575b505050811b0160015560ff90565b01515f1960f88460031b161c191690555f8080610462565b9192602060018192868501518155019401920161044f565b818111156104015760015f5260205f20601f80840160051c809201920160051c03905f5b8281106104d2575050610401565b5f828201556001016104c4565b634e487b7160e01b5f52602260045260245ffd5b90607f16906103ef565b908151602081105f14610528575090601f815111610390576020815191015160208210610381571790565b6001600160401b0381116101a657600254600181811c91168015610637575b60208210146104df57601f81116105f8575b50602092601f821160011461059757928192935f9261058c575b50508160011b915f199060031b1c19161760025560ff90565b015190505f80610573565b601f1982169360025f52805f20915f5b8681106105e057508360019596106105c8575b505050811b0160025560ff90565b01515f1960f88460031b161c191690555f80806105ba565b919260206001819286850151815501940192016105a7565b818111156105595760025f5260205f20601f80840160051c809201920160051c03905f5b82811061062a575050610559565b5f8282015560010161061c565b90607f169061054756fe6080806040526004361015610012575f80fd5b5f3560e01c90816301ffc9a7146115ee575080630bd45b0b1461149b578063100e60b41461146c57806319a9026514611434578063248a9ca31461140257806325886a67146113d55780632f2ff15d14611398578063316e2c641461132457806336568abe146112e0578063596fd76e1461129d57806362b31d6f146112825780636b10e8da146111dc5780636dd1cdc31461119957806379192251146111615780637d042ddd146110205780637ecebe001461116157806384b0196e146110695780638c44506b146110205780638fd611be14610ff85780638fdd082114610c4157806391d1485414610bf9578063a217fddf14610bdf578063a81ab65314610b78578063b501ec9714610b3e578063b9ee18e014610559578063be257897146103e0578063c1e2b924146103a6578063c3d97f5c1461034d578063d547741f14610309578063e7705db6146102cf5763ee2b749914610171575f80fd5b346102cb5760403660031901126102cb5761018a611641565b6004355f52600560205260405f209060018060a01b03165f5260205260405f208054906101b682611a03565b916101c46040519384611784565b8083526020830180925f5260205f205f915b838310610264578486604051918291602083019060208452518091526040830191905f5b818110610208575050500390f35b91935091602060c060019260a08751805183528580831b0385820151168584015260408101516040840152606081015160608401528580831b0360808201511660808401520151151560a08201520194019101918493926101fa565b6005602060019260405161027781611754565b85548152848060a01b03858701541683820152600286015460408201526003860154606082015260ff6004870154868060a01b038116608084015260a01c16151560a08201528152019201920191906101d6565b5f80fd5b346102cb575f3660031901126102cb5760206040517fa48c898f5241be426b79d4b5a3c206f9c9a06576e1b72c338c3ec849771d56868152f35b346102cb5760403660031901126102cb5761034b600435610328611641565b90610346610341825f525f602052600160405f20015490565b611c2d565b611ced565b005b346102cb5760403660031901126102cb5760243580151581036102cb5761034b90610376611b00565b6004355f908152600360205260409020600101805460ff60a01b191691151560a01b60ff60a01b16919091179055565b346102cb575f3660031901126102cb5760206040517f44f4f4751bdb79e495de9aecc5ea0c8e34b38c5caa347ddeccea21fa221ee30f8152f35b346102cb5760403660031901126102cb576004356103fc611641565b5f8281526006602090815260408083206001600160a01b0390941680845293825280832054948352600582528083209383529290529081208054909260ff169190819061044881611a03565b946104566040519687611784565b81865260208601905f5260205f205f915b8383106104f25750505050835180610495575b50606093506040519215158352602083015215156040820152f35b5f1981019250821190506104de5782518110156104ca5760609260209160051b01015160a0838201519101511515908461047a565b634e487b7160e01b5f52603260045260245ffd5b634e487b7160e01b5f52601160045260245ffd5b6005602060019260405161050581611754565b85548152848060a01b03858701541683820152600286015460408201526003860154606082015260ff6004870154868060a01b038116608084015260a01c16151560a0820152815201920192019190610467565b346102cb5761056736611686565b9190936105779796959397611bbe565b61057f611d93565b865f52600360205260405f2091600183019560ff875460a01c1615610adc576004546001600160a01b03168015159081610aeb575b50610adc5760038401544210610acd5760048401544211610abe57814211610aaf57885f52600660205260405f2060018060a01b0389165f5260205260ff60405f205416610aa05760018060a01b038816998a5f52600960205260405f2054600a81018091116104de574210610a91578a5f52600760205260405f2054841115610a835760408051602081018c815260608c901b6001600160601b031916928201929092526054810189905260748101869052609481018390526106858160b481015b03601f198101835282611784565b51902095865f52600860205260ff60405f205416610a74576106d96106e8936106d18d8f976106c98f6106778f936106df9a8e60405196879560208701998a6117a6565b519020611d6d565b9236916117fc565b90611ee7565b90929192611f21565b6001600160a01b031603610a65578154604051627eeac760e11b81526001600160a01b038881166004830152602482018790529091169390602081604481885afa9081156109da575f91610a33575b5015610a24575f52600860205260405f20600160ff19825416179055875f52600760205260405f2055865f5260096020524260405f205586867fa099bd8dccd9bf1c195d29a5789cd946e1278bb1ee8d216612b2dfeeb664d65d604051806107b53389839092916020906040830194835260018060a01b0316910152565b0390a3813b156102cb57604051631733634d60e11b81526001600160a01b038616600482015260248101849052915f908390604490829084905af19182156109da57600292610a14575b50855f52600660205260405f20875f5260205260405f20600160ff198254161790550161082c8154611a2b565b905590546001600160a01b0316915f9190836108c5575b505f5160206122115f395f51905f529250835f52600560205260405f20855f526020526108a260405f206040519061087a82611754565b86825287602083015283604083015242606083015233608083015284151560a0830152611a51565b604080519182529115156020820152a360015f5160206122315f395f51905f5255005b60405163120aa87760e01b8152600481018690526001600160a01b0382166024820152602081604481885afa9081156109da575f916109e5575b5061084357909150604051602081019061093d8161067742868a87916054939183526001600160601b03199060601b16602083015260348201520190565b519020833b156102cb57604051636583a78f60e01b8152600481018690526001600160a01b039290921660248301526044820152915f908390606490829084905af19182156109da575f5160206122115f395f51905f52926109ca575b5060019084847fe08685d31d815221d26cbf03c4e901f81cce5e0fc8e19497244188c9b95f0a865f80a385610843565b5f6109d491611784565b8461099a565b6040513d5f823e3d90fd5b610a07915060203d602011610a0d575b6109ff8183611784565b810190611a39565b876108ff565b503d6109f5565b5f610a1e91611784565b876107ff565b630baa2bf560e01b5f5260045ffd5b90506020813d602011610a5d575b81610a4e60209383611784565b810103126102cb57518a610737565b3d9150610a41565b638baa579f60e01b5f5260045ffd5b634a7d05c160e11b5f5260045ffd5b623f613760e71b5f5260045ffd5b63a74c1c5f60e01b5f5260045ffd5b630c98289f60e41b5f5260045ffd5b631ab7da6b60e01b5f5260045ffd5b631963c37d60e01b5f5260045ffd5b63fc85733f60e01b5f5260045ffd5b637fefa6fb60e11b5f5260045ffd5b905060208a60246040518094819363110f269760e01b835260048301525afa9081156109da575f91610b1f575b508b6105b4565b610b38915060203d602011610a0d576109ff8183611784565b8b610b18565b346102cb575f3660031901126102cb5760206040517fb5b47644c905f9c9f971bbb9c430fe3b99fe3674e04e8312af23bbb168c5deb08152f35b346102cb5760403660031901126102cb57600435610b94611641565b610b9c611b6f565b815f52600660205260405f209060018060a01b03165f5260205260405f2060ff1981541690555f526003602052600260405f2001805480156104de575f19019055005b346102cb575f3660031901126102cb5760206040515f8152f35b346102cb5760403660031901126102cb57610c12611641565b6004355f525f60205260405f209060018060a01b03165f52602052602060ff60405f2054166040519015158152f35b346102cb5760603660031901126102cb5760043560243567ffffffffffffffff81116102cb57610c75903690600401611723565b9060443567ffffffffffffffff81116102cb57610c96903690600401611723565b939091610ca1611bbe565b610ca9611d93565b848403610fc157815f52600360205260405f2093600185019586549260ff8460a01c1615610adc57865490966001600160a01b0391821694909116926002909101905f5b818110610d075760015f5160206122315f395f51905f5255005b610d1281838b611a1b565b35906001600160a01b0382168083036102cb57610d3082878c611a1b565b3592895f52600660205260405f20825f5260205260ff60405f205416610f8557604051627eeac760e11b81526001600160a01b0382166004820152602481018590526020816044818d5afa9081156109da575f91610f90575b5015610f8557883b156102cb57604051631733634d60e11b81526001600160a01b038216600482015260248101859052905f82604481838e5af19081156109da578b928f92610f75575b50825f52600660205260405f20845f5260205260405f20600160ff19825416179055610dff8854611a2b565b885590545f91906001600160a01b0316610e64575b505f5160206122115f395f51905f5290600195835f52600560205260405f20855f52602052610e4d60405f206040519061087a82611754565b604080519182529115156020820152a35b01610ced565b60405163120aa87760e01b815260048101939093526001600160a01b03811660248401526020836044818d5afa80156109da578c935f91610f57575b50610e14576040805160208101948552606083901b6001600160601b0319169181019190915242605482015290929150610edd8160748101610677565b51902090883b156102cb57604051636583a78f60e01b8152600481018c90526001600160a01b0391909116602482015260448101919091525f81606481838c5af180156109da576001948b925f5160206122115f395f51905f5292610f47575b5085915094610e14565b5f610f5191611784565b8f610f3d565b610f6f915060203d8111610a0d576109ff8183611784565b5f610ea0565b5f610f7f91611784565b8f610dd3565b505060019150610e5e565b90506020813d8211610fb9575b81610faa60209383611784565b810103126102cb57518e610d89565b3d9150610f9d565b60405162461bcd60e51b815260206004820152600f60248201526e098cadccee8d040dad2e6dac2e8c6d608b1b6044820152606490fd5b346102cb575f3660031901126102cb576004546040516001600160a01b039091168152602090f35b346102cb5760403660031901126102cb57611039611641565b6004355f52600660205260405f209060018060a01b03165f52602052602060ff60405f2054166040519015158152f35b346102cb575f3660031901126102cb576111056110a57f0000000000000000000000000000000000000000000000000000000000000000611f95565b6110ce7f00000000000000000000000000000000000000000000000000000000000000006120be565b6020611113604051926110e18385611784565b5f84525f368137604051958695600f60f81b875260e08588015260e08701906116ff565b9085820360408701526116ff565b4660608501523060808501525f60a085015283810360c08501528180845192838152019301915f5b82811061114a57505050500390f35b83518552869550938101939281019260010161113b565b346102cb5760203660031901126102cb576001600160a01b03611182611657565b165f526007602052602060405f2054604051908152f35b346102cb576111b96111aa36611686565b96959095949194939293611842565b906111d8604051928392151583526040602084015260408301906116ff565b0390f35b346102cb5760603660031901126102cb576111f5611641565b604435906004355f52600560205260405f209060018060a01b03165f5260205260405f2080548210156102cb5760c09161122e9161166d565b5060ff81549160018060a01b03600182015416906002810154600460038301549201549260405195865260208601526040850152606084015260018060a01b038116608084015260a01c16151560a0820152f35b346102cb575f3660031901126102cb576020604051600a8152f35b346102cb5760203660031901126102cb576112b6611657565b6112be611b6f565b600480546001600160a01b0319166001600160a01b0392909216919091179055005b346102cb5760403660031901126102cb576112f9611641565b336001600160a01b038216036113155761034b90600435611ced565b63334bd91960e11b5f5260045ffd5b346102cb5760203660031901126102cb576004355f52600360205260c060405f2060018060a01b0381541690600181015490600281015460ff600460038401549301549360405195865260018060a01b038116602087015260a01c16151560408501526060840152608083015260a0820152f35b346102cb5760403660031901126102cb5761034b6004356113b7611641565b906113d0610341825f525f602052600160405f20015490565b611c65565b346102cb5760203660031901126102cb576004355f5260036020526020600260405f200154604051908152f35b346102cb5760203660031901126102cb57602061142c6004355f525f602052600160405f20015490565b604051908152f35b346102cb5760203660031901126102cb576001600160a01b03611455611657565b165f526009602052602060405f2054604051908152f35b346102cb5760203660031901126102cb576004355f526008602052602060ff60405f2054166040519015158152f35b346102cb5760a03660031901126102cb576004356114b7611641565b6044356001600160a01b038116908190036102cb57606435608435916114db611b00565b828210156115df577f4f64f1084cc85c1ecc80fb62684f00505d3ce8ad03be51b22123d1a3ad45324993600460409485519261151684611754565b60018060a01b031694858452602084018581526115c2888601916001835260608701925f84526080880194855260a088019586528c5f5260036020528a5f209760018060a01b039060018060a01b03905116166001600160601b0360a01b895416178855600188019160018060a01b039060018060a01b03905116166001600160601b0360a01b83541617825551151581549060ff60a01b90151560a01b169060ff60a01b1916179055565b5160028501555160038401555191015582519182526020820152a2005b63b7d0949760e01b5f5260045ffd5b346102cb5760203660031901126102cb576004359063ffffffff60e01b82168092036102cb57602091637965db0b60e01b8114908115611630575b5015158152f35b6301ffc9a760e01b14905083611629565b602435906001600160a01b03821682036102cb57565b600435906001600160a01b03821682036102cb57565b80548210156104ca575f52600560205f20910201905f90565b9060e06003198301126102cb57600435916024356001600160a01b03811681036102cb579160443591606435916084359160a4359160c43567ffffffffffffffff81116102cb57826023820112156102cb5780600401359267ffffffffffffffff84116102cb57602484830101116102cb576024019190565b805180835260209291819084018484015e5f828201840152601f01601f1916010190565b9181601f840112156102cb5782359167ffffffffffffffff83116102cb576020808501948460051b0101116102cb57565b60c0810190811067ffffffffffffffff82111761177057604052565b634e487b7160e01b5f52604160045260245ffd5b90601f8019910116810190811067ffffffffffffffff82111761177057604052565b9260c094919796959260e08501987f44f4f4751bdb79e495de9aecc5ea0c8e34b38c5caa347ddeccea21fa221ee30f8652602086015260018060a01b031660408501526060840152608083015260a08201520152565b92919267ffffffffffffffff82116117705760405191611826601f8201601f191660200184611784565b8294818452818301116102cb578281602093845f960137010152565b96939591969490948142116119cb576001600160a01b0386165f8181526007602052604090205490989085111561199057604080516020810184815260608a901b6001600160601b031916928201929092526054810183905260748101879052609481018a90526118b68160b48101610677565b5190205f52600860205260ff60405f205416611958576106c96106df976106776106d1956118f39b6106d99960405196879560208701998a6117a6565b6001600160a01b03160361192757600190604051611912604082611784565b600581526415985b1a5960da1b602082015290565b5f90604051611937604082611784565b6011815270496e76616c6964207369676e617475726560781b602082015290565b5050505050505050505f90604051611971604082611784565b600f81526e145488185b1c9958591e481d5cd959608a1b602082015290565b5050505050505050505f906040516119a9604082611784565b6012815271139bdb98d948185b1c9958591e481d5cd95960721b602082015290565b50505050505050505f906040516119e3604082611784565b601081526f111958591b1a5b9948195e1c1a5c995960821b602082015290565b67ffffffffffffffff81116117705760051b60200190565b91908110156104ca5760051b0190565b5f1981146104de5760010190565b908160209103126102cb575180151581036102cb5790565b80546801000000000000000081101561177057611a739160018201815561166d565b919091611aed578051825560208101516001830180546001600160a01b0319166001600160a01b0392831617905560408201516002840155606082015160038401556080820151600493909301805460a0938401516001600160a81b0319909116949092169390931790151590911b60ff60a01b16179055565b634e487b7160e01b5f525f60045260245ffd5b335f9081527f98d5eb94ef595559086d06064c5daead304c6018af9ea5d71aed54de1ad8d609602052604090205460ff1615611b3857565b63e2517d3f60e01b5f52336004527fb5b47644c905f9c9f971bbb9c430fe3b99fe3674e04e8312af23bbb168c5deb060245260445ffd5b335f9081527fad3228b676f7d3cd4284a5443f17f1962b36e491b30a40b2405849e597ba5fb5602052604090205460ff1615611ba757565b63e2517d3f60e01b5f52336004525f60245260445ffd5b335f9081527f47b209c9573d16f2ca15bdb23e32336b26a4895c2e8fadad21581ebf5c674b53602052604090205460ff1615611bf657565b63e2517d3f60e01b5f52336004527fa48c898f5241be426b79d4b5a3c206f9c9a06576e1b72c338c3ec849771d568660245260445ffd5b5f8181526020818152604080832033845290915290205460ff1615611c4f5750565b63e2517d3f60e01b5f523360045260245260445ffd5b5f818152602081815260408083206001600160a01b038616845290915290205460ff16611ce7575f818152602081815260408083206001600160a01b0395909516808452949091528120805460ff19166001179055339291907f2f8788117e7eff1d82e926ec794901d17c78024a50270940304540a733656f0d9080a4600190565b50505f90565b5f818152602081815260408083206001600160a01b038616845290915290205460ff1615611ce7575f818152602081815260408083206001600160a01b0395909516808452949091528120805460ff19169055339291907ff6391f5c32d9c69d2a47ea670b442974b53935d1edc7fd64eb21e047a839171b9080a4600190565b604290611d78611dcb565b906040519161190160f01b8352600283015260228201522090565b60025f5160206122315f395f51905f525414611dbc5760025f5160206122315f395f51905f5255565b633ee5aeb560e01b5f5260045ffd5b307f00000000000000000000000000000000000000000000000000000000000000006001600160a01b03161480611ebe575b15611e26577f000000000000000000000000000000000000000000000000000000000000000090565b60405160208101907f8b73c3c69bb8fe3d512ecc4cf759cc79239f7b179b0ffacaa9a75d522b39400f82527f000000000000000000000000000000000000000000000000000000000000000060408201527f000000000000000000000000000000000000000000000000000000000000000060608201524660808201523060a082015260a08152611eb860c082611784565b51902090565b507f00000000000000000000000000000000000000000000000000000000000000004614611dfd565b8151919060418303611f1757611f109250602082015190606060408401519301515f1a9061218e565b9192909190565b50505f9160029190565b6004811015611f815780611f33575050565b60018103611f4a5763f645eedf60e01b5f5260045ffd5b60028103611f65575063fce698f760e01b5f5260045260245ffd5b600314611f6f5750565b6335e2f38360e21b5f5260045260245ffd5b634e487b7160e01b5f52602160045260245ffd5b60ff8114611fdb5760ff811690601f8211611fcc5760405191611fb9604084611784565b6020808452838101919036833783525290565b632cd44ac360e21b5f5260045ffd5b506040515f6001548060011c91600182169182156120b4575b6020841083146120a05783855284929081156120815750600114612022575b61201f92500382611784565b90565b5060015f90815290917fb10e2d527612073b26eecdfd717e6a320cf44b4afac2b0732d9fcbe2b7fa0cf65b81831061206557505090602061201f92820101612013565b602091935080600191548385880101520191019091839261204d565b6020925061201f94915060ff191682840152151560051b820101612013565b634e487b7160e01b5f52602260045260245ffd5b92607f1692611ff4565b60ff81146120e25760ff811690601f8211611fcc5760405191611fb9604084611784565b506040515f6002548060011c9160018216918215612184575b6020841083146120a057838552849290811561208157506001146121255761201f92500382611784565b5060025f90815290917f405787fa12a823e0f2b7631cc41b3ba8828b3321ca811111fa75cd3aa3bb5ace5b81831061216857505090602061201f92820101612013565b6020919350806001915483858801015201910190918392612150565b92607f16926120fb565b91907f7fffffffffffffffffffffffffffffff5d576e7357a4501ddfe92f46681b20a08411612205579160209360809260ff5f9560405194855216868401526040830152606082015282805260015afa156109da575f516001600160a01b038116156121fb57905f905f90565b505f906001905f90565b5050505f916003919056fe387a49486403e45f0989193e9fcd8430cce938bf421861fe71728621389d83899b779b17422d0df92223018b32b4d1fa46e071723d6817e2486d003becc55f00a2646970667358221220352d25014fc0b130264a6592564297c901a6b7eeeb07eea7f1312b50244cc72364736f6c634300082100332f8788117e7eff1d82e926ec794901d17c78024a50270940304540a733656f0d47b209c9573d16f2ca15bdb23e32336b26a4895c2e8fadad21581ebf5c674b5398d5eb94ef595559086d06064c5daead304c6018af9ea5d71aed54de1ad8d609ad3228b676f7d3cd4284a5443f17f1962b36e491b30a40b2405849e597ba5fb5","linkReferences":{}},"methodIdentifiers":{"DEFAULT_ADMIN_ROLE()":"a217fddf","EVENT_ADMIN()":"b501ec97","QR_VERIFY_TYPEHASH()":"c1e2b924","RATE_LIMIT()":"62b31d6f","VERIFIER_ROLE()":"e7705db6","batchCheckIn(uint256,address[],uint256[])":"8fdd0821","canParticipate(uint256,address)":"8c44506b","checkInHistory(uint256,address,uint256)":"6b10e8da","configureEventCheckIn(uint256,address,address,uint256,uint256)":"0bd45b0b","eip712Domain()":"84b0196e","eventCheckIns(uint256)":"316e2c64","eventManager()":"8fd611be","getCheckInHistory(uint256,address)":"ee2b7499","getCheckInStatus(uint256,address)":"be257897","getCurrentNonce(address)":"79192251","getEventCheckInCount(uint256)":"25886a67","getRoleAdmin(bytes32)":"248a9ca3","grantRole(bytes32,address)":"2f2ff15d","hasCheckedIn(uint256,address)":"7d042ddd","hasRole(bytes32,address)":"91d14854","lastCheckInTime(address)":"19a90265","nonces(address)":"7ecebe00","qrCodeUsed(bytes32)":"100e60b4","renounceRole(bytes32,address)":"36568abe","reverseCheckIn(uint256,address)":"a81ab653","revokeRole(bytes32,address)":"d547741f","setCheckInActive(uint256,bool)":"c3d97f5c","setEventManager(address)":"596fd76e","supportsInterface(bytes4)":"01ffc9a7","verifyAndCheckIn(uint256,address,uint256,uint256,uint256,uint256,bytes)":"b9ee18e0","verifyQRSignature(uint256,address,uint256,uint256,uint256,uint256,bytes)":"6dd1cdc3"},"id":48}