{"abi":[{"type":"constructor","inputs":[],"stateMutability":"nonpayable"},{"type":"function","name":"DEFAULT_ADMIN_ROLE","inputs":[],"outputs":[{"name":"","type":"bytes32","internalType":"bytes32"}],"stateMutability":"view"},{"type":"function","name":"ORGANIZER_ROLE","inputs":[],"outputs":[{"name":"","type":"bytes32","internalType":"bytes32"}],"stateMutability":"view"},{"type":"function","name":"VERIFIER_ROLE","inputs":[],"outputs":[{"name":"","type":"bytes32","internalType":"bytes32"}],"stateMutability":"view"},{"type":"function","name":"acceptedTokens","inputs":[{"name":"","type":"address","internalType":"address"}],"outputs":[{"name":"","type":"bool","internalType":"bool"}],"stateMutability":"view"},{"type":"function","name":"addPaymentToken","inputs":[{"name":"token","type":"address","internalType":"address"}],"outputs":[],"stateMutability":"nonpayable"},{"type":"function","name":"balanceOf","inputs":[{"name":"account","type":"address","internalType":"address"},{"name":"id","type":"uint256","internalType":"uint256"}],"outputs":[{"name":"","type":"uint256","internalType":"uint256"}],"stateMutability":"view"},{"type":"function","name":"balanceOfBatch","inputs":[{"name":"accounts","type":"address[]","internalType":"address[]"},{"name":"ids","type":"uint256[]","internalType":"uint256[]"}],"outputs":[{"name":"","type":"uint256[]","internalType":"uint256[]"}],"stateMutability":"view"},{"type":"function","name":"cancelEvent","inputs":[],"outputs":[],"stateMutability":"nonpayable"},{"type":"function","name":"checkIn","inputs":[{"name":"user","type":"address","internalType":"address"},{"name":"tierId","type":"uint256","internalType":"uint256"}],"outputs":[],"stateMutability":"nonpayable"},{"type":"function","name":"claimRefund","inputs":[{"name":"tierId","type":"uint256","internalType":"uint256"}],"outputs":[],"stateMutability":"nonpayable"},{"type":"function","name":"createTier","inputs":[{"name":"tierId","type":"uint256","internalType":"uint256"},{"name":"maxSupply","type":"uint256","internalType":"uint256"},{"name":"price","type":"uint256","internalType":"uint256"}],"outputs":[],"stateMutability":"nonpayable"},{"type":"function","name":"createTiersBatch","inputs":[{"name":"tierIds","type":"uint256[]","internalType":"uint256[]"},{"name":"maxSupplies","type":"uint256[]","internalType":"uint256[]"},{"name":"prices","type":"uint256[]","internalType":"uint256[]"}],"outputs":[],"stateMutability":"nonpayable"},{"type":"function","name":"endEvent","inputs":[],"outputs":[],"stateMutability":"nonpayable"},{"type":"function","name":"eventDate","inputs":[],"outputs":[{"name":"","type":"uint256","internalType":"uint256"}],"stateMutability":"view"},{"type":"function","name":"eventId","inputs":[],"outputs":[{"name":"","type":"uint256","internalType":"uint256"}],"stateMutability":"view"},{"type":"function","name":"eventManager","inputs":[],"outputs":[{"name":"","type":"address","internalType":"contract IEventManager"}],"stateMutability":"view"},{"type":"function","name":"eventName","inputs":[],"outputs":[{"name":"","type":"string","internalType":"string"}],"stateMutability":"view"},{"type":"function","name":"factory","inputs":[],"outputs":[{"name":"","type":"address","internalType":"address"}],"stateMutability":"view"},{"type":"function","name":"getRoleAdmin","inputs":[{"name":"role","type":"bytes32","internalType":"bytes32"}],"outputs":[{"name":"","type":"bytes32","internalType":"bytes32"}],"stateMutability":"view"},{"type":"function","name":"goLive","inputs":[],"outputs":[],"stateMutability":"view"},{"type":"function","name":"grantRole","inputs":[{"name":"role","type":"bytes32","internalType":"bytes32"},{"name":"account","type":"address","internalType":"address"}],"outputs":[],"stateMutability":"nonpayable"},{"type":"function","name":"hasRole","inputs":[{"name":"role","type":"bytes32","internalType":"bytes32"},{"name":"account","type":"address","internalType":"address"}],"outputs":[{"name":"","type":"bool","internalType":"bool"}],"stateMutability":"view"},{"type":"function","name":"initialize","inputs":[{"name":"_organizer","type":"address","internalType":"address"},{"name":"_eventId","type":"uint256","internalType":"uint256"},{"name":"_eventDate","type":"uint256","internalType":"uint256"},{"name":"_eventName","type":"string","internalType":"string"},{"name":"baseURI","type":"string","internalType":"string"},{"name":"_marketplace","type":"address","internalType":"address"},{"name":"_eventManager","type":"address","internalType":"address"}],"outputs":[],"stateMutability":"nonpayable"},{"type":"function","name":"initialized","inputs":[],"outputs":[{"name":"","type":"bool","internalType":"bool"}],"stateMutability":"view"},{"type":"function","name":"isApprovedForAll","inputs":[{"name":"account","type":"address","internalType":"address"},{"name":"operator","type":"address","internalType":"address"}],"outputs":[{"name":"","type":"bool","internalType":"bool"}],"stateMutability":"view"},{"type":"function","name":"marketplace","inputs":[],"outputs":[{"name":"","type":"address","internalType":"address"}],"stateMutability":"view"},{"type":"function","name":"organizer","inputs":[],"outputs":[{"name":"","type":"address","internalType":"address"}],"stateMutability":"view"},{"type":"function","name":"pause","inputs":[],"outputs":[],"stateMutability":"nonpayable"},{"type":"function","name":"paused","inputs":[],"outputs":[{"name":"","type":"bool","internalType":"bool"}],"stateMutability":"view"},{"type":"function","name":"purchaseTicket","inputs":[{"name":"tierId","type":"uint256","internalType":"uint256"},{"name":"amount","type":"uint256","internalType":"uint256"}],"outputs":[],"stateMutability":"payable"},{"type":"function","name":"purchaseTicketWithToken","inputs":[{"name":"tierId","type":"uint256","internalType":"uint256"},{"name":"amount","type":"uint256","internalType":"uint256"},{"name":"token","type":"address","internalType":"address"}],"outputs":[],"stateMutability":"nonpayable"},{"type":"function","name":"refundClaims","inputs":[{"name":"","type":"address","internalType":"address"},{"name":"","type":"uint256","internalType":"uint256"}],"outputs":[{"name":"","type":"uint256","internalType":"uint256"}],"stateMutability":"view"},{"type":"function","name":"renounceRole","inputs":[{"name":"role","type":"bytes32","internalType":"bytes32"},{"name":"callerConfirmation","type":"address","internalType":"address"}],"outputs":[],"stateMutability":"nonpayable"},{"type":"function","name":"revokeRole","inputs":[{"name":"role","type":"bytes32","internalType":"bytes32"},{"name":"account","type":"address","internalType":"address"}],"outputs":[],"stateMutability":"nonpayable"},{"type":"function","name":"safeBatchTransferFrom","inputs":[{"name":"from","type":"address","internalType":"address"},{"name":"to","type":"address","internalType":"address"},{"name":"ids","type":"uint256[]","internalType":"uint256[]"},{"name":"values","type":"uint256[]","internalType":"uint256[]"},{"name":"data","type":"bytes","internalType":"bytes"}],"outputs":[],"stateMutability":"nonpayable"},{"type":"function","name":"safeTransferFrom","inputs":[{"name":"from","type":"address","internalType":"address"},{"name":"to","type":"address","internalType":"address"},{"name":"id","type":"uint256","internalType":"uint256"},{"name":"value","type":"uint256","internalType":"uint256"},{"name":"data","type":"bytes","internalType":"bytes"}],"outputs":[],"stateMutability":"nonpayable"},{"type":"function","name":"setApprovalForAll","inputs":[{"name":"operator","type":"address","internalType":"address"},{"name":"approved","type":"bool","internalType":"bool"}],"outputs":[],"stateMutability":"nonpayable"},{"type":"function","name":"supportsInterface","inputs":[{"name":"interfaceId","type":"bytes4","internalType":"bytes4"}],"outputs":[{"name":"","type":"bool","internalType":"bool"}],"stateMutability":"view"},{"type":"function","name":"tiers","inputs":[{"name":"","type":"uint256","internalType":"uint256"}],"outputs":[{"name":"maxSupply","type":"uint256","internalType":"uint256"},{"name":"minted","type":"uint256","internalType":"uint256"},{"name":"price","type":"uint256","internalType":"uint256"},{"name":"exists","type":"bool","internalType":"bool"}],"stateMutability":"view"},{"type":"function","name":"unpause","inputs":[],"outputs":[],"stateMutability":"nonpayable"},{"type":"function","name":"uri","inputs":[{"name":"","type":"uint256","internalType":"uint256"}],"outputs":[{"name":"","type":"string","internalType":"string"}],"stateMutability":"view"},{"type":"function","name":"usedTickets","inputs":[{"name":"","type":"address","internalType":"address"},{"name":"","type":"uint256","internalType":"uint256"}],"outputs":[{"name":"","type":"uint256","internalType":"uint256"}],"stateMutability":"view"},{"type":"function","name":"withdraw","inputs":[],"outputs":[],"stateMutability":"nonpayable"},{"type":"event","name":"ApprovalForAll","inputs":[{"name":"account","type":"address","indexed":true,"internalType":"address"},{"name":"operator","type":"address","indexed":true,"internalType":"address"},{"name":"approved","type":"bool","indexed":false,"internalType":"bool"}],"anonymous":false},{"type":"event","name":"Paused","inputs":[{"name":"account","type":"address","indexed":false,"internalType":"address"}],"anonymous":false},{"type":"event","name":"RefundProcessed","inputs":[{"name":"user","type":"address","indexed":true,"internalType":"address"},{"name":"tierId","type":"uint256","indexed":true,"internalType":"uint256"},{"name":"amount","type":"uint256","indexed":true,"internalType":"uint256"}],"anonymous":false},{"type":"event","name":"RoleAdminChanged","inputs":[{"name":"role","type":"bytes32","indexed":true,"internalType":"bytes32"},{"name":"previousAdminRole","type":"bytes32","indexed":true,"internalType":"bytes32"},{"name":"newAdminRole","type":"bytes32","indexed":true,"internalType":"bytes32"}],"anonymous":false},{"type":"event","name":"RoleGranted","inputs":[{"name":"role","type":"bytes32","indexed":true,"internalType":"bytes32"},{"name":"account","type":"address","indexed":true,"internalType":"address"},{"name":"sender","type":"address","indexed":true,"internalType":"address"}],"anonymous":false},{"type":"event","name":"RoleRevoked","inputs":[{"name":"role","type":"bytes32","indexed":true,"internalType":"bytes32"},{"name":"account","type":"address","indexed":true,"internalType":"address"},{"name":"sender","type":"address","indexed":true,"internalType":"address"}],"anonymous":false},{"type":"event","name":"TicketCheckedIn","inputs":[{"name":"user","type":"address","indexed":true,"internalType":"address"},{"name":"tierId","type":"uint256","indexed":false,"internalType":"uint256"}],"anonymous":false},{"type":"event","name":"TicketPurchased","inputs":[{"name":"buyer","type":"address","indexed":true,"internalType":"address"},{"name":"tierId","type":"uint256","indexed":true,"internalType":"uint256"},{"name":"amount","type":"uint256","indexed":false,"internalType":"uint256"},{"name":"token","type":"address","indexed":false,"internalType":"address"}],"anonymous":false},{"type":"event","name":"TicketTierCreated","inputs":[{"name":"tierId","type":"uint256","indexed":true,"internalType":"uint256"},{"name":"maxSupply","type":"uint256","indexed":false,"internalType":"uint256"},{"name":"price","type":"uint256","indexed":false,"internalType":"uint256"}],"anonymous":false},{"type":"event","name":"TransferBatch","inputs":[{"name":"operator","type":"address","indexed":true,"internalType":"address"},{"name":"from","type":"address","indexed":true,"internalType":"address"},{"name":"to","type":"address","indexed":true,"internalType":"address"},{"name":"ids","type":"uint256[]","indexed":false,"internalType":"uint256[]"},{"name":"values","type":"uint256[]","indexed":false,"internalType":"uint256[]"}],"anonymous":false},{"type":"event","name":"TransferSingle","inputs":[{"name":"operator","type":"address","indexed":true,"internalType":"address"},{"name":"from","type":"address","indexed":true,"internalType":"address"},{"name":"to","type":"address","indexed":true,"internalType":"address"},{"name":"id","type":"uint256","indexed":false,"internalType":"uint256"},{"name":"value","type":"uint256","indexed":false,"internalType":"uint256"}],"anonymous":false},{"type":"event","name":"URI","inputs":[{"name":"value","type":"string","indexed":false,"internalType":"string"},{"name":"id","type":"uint256","indexed":true,"internalType":"uint256"}],"anonymous":false},{"type":"event","name":"Unpaused","inputs":[{"name":"account","type":"address","indexed":false,"internalType":"address"}],"anonymous":false},{"type":"error","name":"AccessControlBadConfirmation","inputs":[]},{"type":"error","name":"AccessControlUnauthorizedAccount","inputs":[{"name":"account","type":"address","internalType":"address"},{"name":"neededRole","type":"bytes32","internalType":"bytes32"}]},{"type":"error","name":"AlreadyInitialized","inputs":[]},{"type":"error","name":"ERC1155InsufficientBalance","inputs":[{"name":"sender","type":"address","internalType":"address"},{"name":"balance","type":"uint256","internalType":"uint256"},{"name":"needed","type":"uint256","internalType":"uint256"},{"name":"tokenId","type":"uint256","internalType":"uint256"}]},{"type":"error","name":"ERC1155InvalidApprover","inputs":[{"name":"approver","type":"address","internalType":"address"}]},{"type":"error","name":"ERC1155InvalidArrayLength","inputs":[{"name":"idsLength","type":"uint256","internalType":"uint256"},{"name":"valuesLength","type":"uint256","internalType":"uint256"}]},{"type":"error","name":"ERC1155InvalidOperator","inputs":[{"name":"operator","type":"address","internalType":"address"}]},{"type":"error","name":"ERC1155InvalidReceiver","inputs":[{"name":"receiver","type":"address","internalType":"address"}]},{"type":"error","name":"ERC1155InvalidSender","inputs":[{"name":"sender","type":"address","internalType":"address"}]},{"type":"error","name":"ERC1155MissingApprovalForAll","inputs":[{"name":"operator","type":"address","internalType":"address"},{"name":"owner","type":"address","internalType":"address"}]},{"type":"error","name":"EnforcedPause","inputs":[]},{"type":"error","name":"EventPassed","inputs":[]},{"type":"error","name":"ExpectedPause","inputs":[]},{"type":"error","name":"InsufficientPayment","inputs":[]},{"type":"error","name":"NoUnusedTickets","inputs":[]},{"type":"error","name":"ReentrancyGuardReentrantCall","inputs":[]},{"type":"error","name":"RefundNotAvailable","inputs":[]},{"type":"error","name":"SafeERC20FailedOperation","inputs":[{"name":"token","type":"address","internalType":"address"}]},{"type":"error","name":"SoldOut","inputs":[]},{"type":"error","name":"TierExists","inputs":[]},{"type":"error","name":"TierNotFound","inputs":[]},{"type":"error","name":"TokenNotAccepted","inputs":[]}],"bytecode":{"object":"0x60803460d75760208101906001600160401b0382118183101760c3575f9160405252600254600181811c9116801560ba575b602082101460a657601f81116078575b5f60025560017f9b779b17422d0df92223018b32b4d1fa46e071723d6817e2486d003becc55f005560405161311090816100dc8239f35b801560415760025f52601f60205f20910160051c5f5b818110609a5750506041565b5f83820155600101608e565b634e487b7160e01b5f52602260045260245ffd5b90607f16906031565b634e487b7160e01b5f52604160045260245ffd5b5f80fdfe60806040526004361015610011575f80fd5b5f3560e01c8062fdd58e146102be57806301ffc9a7146102b9578063039af9eb146102b4578063064ed686146102af578063089cdd0c146102aa5780630e89341c146102a557806313cbbcc3146102a0578063158ef93e1461029b578063248a9ca3146102965780632af1b804146102915780632c28f5791461028c5780632e66c69a146102875780632eb2c2d6146102825780632f2ff15d1461027d57806336568abe146102785780633ccfd60b146102735780633f4ba83a1461026e5780634a7dc8e0146102695780634bfbe5df146102645780634e1273f41461025f5780635b7baf641461025a5780635c975abb1461025557806361203265146102505780637909cb591461024b5780638043c9c01461024657806382dc4a05146102415780638456cb591461023c5780638591ed341461023757806386ec6177146101f15780638fd611be1461023257806391d148541461022d578063a217fddf14610228578063a22cb46514610223578063abc8c7af1461021e578063bdb756b914610219578063bdbbb0cb14610214578063c45a01551461020f578063c88371c01461020a578063d547741f14610205578063e7705db614610200578063e985e9c5146101fb578063f242432a146101f65763fb6c9537146101f1575f80fd5b6113fc565b6119cc565b61197c565b611942565b611904565b6118bf565b611893565b6117d0565b6115d4565b61157c565b6114af565b61148b565b61143c565b611414565b6112c9565b611270565b611233565b61118e565b61111c565b6110f4565b6110d2565b610f2e565b610e6f565b610e0e565b610dca565b610d64565b610cda565b610c96565b610c53565b610bc9565b6108f5565b610850565b61080b565b6107d8565b6107b6565b61072c565b610624565b6105cf565b610467565b610416565b61038d565b610333565b600435906001600160a01b03821682036102d957565b5f80fd5b604435906001600160a01b03821682036102d957565b60c435906001600160a01b03821682036102d957565b602435906001600160a01b03821682036102d957565b35906001600160a01b03821682036102d957565b346102d95760403660031901126102d95760206103726103516102c3565b6024355f525f835260405f209060018060a01b03165f5260205260405f2090565b54604051908152f35b6001600160e01b03198116036102d957565b346102d95760203660031901126102d9576004356103aa8161037b565b63ffffffff60e01b16637965db0b60e01b81149081156103d3575b506040519015158152602090f35b636cdb3d1360e11b811491508115610405575b81156103f4575b505f6103c5565b6301ffc9a760e01b1490505f6103ed565b6303a24d0760e21b811491506103e6565b346102d95760203660031901126102d9576004355f52600c602052608060405f2080549060018101549060ff6003600283015492015416916040519384526020840152604083015215156060820152f35b346102d95760603660031901126102d9576024356004356104866102dd565b61048e6121f6565b61049661222e565b6007546104b3906001600160a01b03165b6001600160a01b031690565b6001600160a01b03811615801561055d575b6104cf9150611ab5565b6001600160a01b0381165f908152600b602052604090205460ff16156104f4565b1590565b61054e578261051b610536946002610514865f52600c60205260405f2090565b0154611b07565b926105318430336001600160a01b038716612249565b61241e565b61054c60015f5160206130bb5f395f51905f5255565b005b63e51cf7bf60e01b5f5260045ffd5b5060085460405163110f269760e01b8152600481019190915290602090829060249082905afa80156105ca576104cf915f9161059b575b50156104c5565b6105bd915060203d6020116105c3575b6105b58183610ab2565b810190611a95565b5f610594565b503d6105ab565b611aaa565b346102d9575f3660031901126102d9576020600854604051908152f35b805180835260209291819084018484015e5f828201840152601f01601f1916010190565b9060206106219281815201906105ec565b90565b346102d95760203660031901126102d9576040515f60025461064581611156565b80845290600181169081156106db575060011461067d575b6106798361066d81850382610ab2565b60405191829182610610565b0390f35b60025f9081527f405787fa12a823e0f2b7631cc41b3ba8828b3321ca811111fa75cd3aa3bb5ace939250905b8082106106c15750909150810160200161066d61065d565b9192600181602092548385880101520191019092916106a9565b60ff191660208086019190915291151560051b8401909101915061066d905061065d565b9181601f840112156102d9578235916001600160401b0383116102d957602083818601950101116102d957565b346102d95760e03660031901126102d9576107456102c3565b602435906044356064356001600160401b0381116102d95761076b9036906004016106ff565b906084356001600160401b0381116102d95761078b9036906004016106ff565b60a4359490939192906001600160a01b03861686036102d95761054c976107b06102f3565b97611cbd565b346102d9575f3660031901126102d957602060ff600f54166040519015158152f35b346102d95760203660031901126102d95760206108036004355f526003602052600160405f20015490565b604051908152f35b346102d95760403660031901126102d9576108246102c3565b6024359060018060a01b03165f52600d60205260405f20905f52602052602060405f2054604051908152f35b346102d9575f3660031901126102d95761086861281c565b60075461087d906001600160a01b03166104a7565b6001600160a01b038116158015610898575b61054c90611ab5565b5060085460405163110f269760e01b8152600481019190915290602090829060249082905afa80156105ca5761054c915f916108d6575b501561088f565b6108ef915060203d6020116105c3576105b58183610ab2565b5f6108cf565b346102d95760403660031901126102d95761090e6102c3565b6024359061091a6121f6565b610922612889565b600754610937906001600160a01b03166104a7565b6001600160a01b038116158015610a41575b6109539150611ab5565b61097d81610968845f525f60205260405f2090565b9060018060a01b03165f5260205260405f2090565b546001600160a01b0382165f908152600d602052604090206109a99084905b905f5260205260405f2090565b541015610a3257610a19816109f38461099c7f91436f5292e799e10595d7ca27d2cef541b70e42a3b900430d60344be07e3b9a9560018060a01b03165f52600d60205260405f2090565b6109fd8154611df3565b90556040519384526001600160a01b0316929081906020820190565b0390a261054c60015f5160206130bb5f395f51905f5255565b63a53c6c4f60e01b5f5260045ffd5b5060085460405163110f269760e01b8152600481019190915290602090829060249082905afa80156105ca57610953915f91610a7f575b5015610949565b610a98915060203d6020116105c3576105b58183610ab2565b5f610a78565b634e487b7160e01b5f52604160045260245ffd5b90601f801991011681019081106001600160401b03821117610ad357604052565b610a9e565b60405190610ae7608083610ab2565b565b6001600160401b038111610ad35760051b60200190565b9080601f830112156102d9578135610b1781610ae9565b92610b256040519485610ab2565b81845260208085019260051b8201019283116102d957602001905b828210610b4d5750505090565b8135815260209182019101610b40565b6001600160401b038111610ad357601f01601f191660200190565b929192610b8482610b5d565b91610b926040519384610ab2565b8294818452818301116102d9578281602093845f960137010152565b9080601f830112156102d95781602061062193359101610b78565b346102d95760a03660031901126102d957610be26102c3565b610bea610309565b906044356001600160401b0381116102d957610c0a903690600401610b00565b6064356001600160401b0381116102d957610c29903690600401610b00565b90608435936001600160401b0385116102d957610c4d61054c953690600401610bae565b93611e01565b346102d95760403660031901126102d95761054c600435610c72610309565b90610c91610c8c825f526003602052600160405f20015490565b6128f8565b61278c565b346102d95760403660031901126102d957600435610cb2610309565b336001600160a01b03821603610ccb5761054c91612998565b63334bd91960e11b5f5260045ffd5b346102d9575f3660031901126102d957610cf261281c565b610cfa6121f6565b5f8080804760018060a01b03600554165af1610d14611f8a565b5015610d2d5760015f5160206130bb5f395f51905f5255005b60405162461bcd60e51b815260206004820152600f60248201526e15da5d1a191c985dc819985a5b1959608a1b6044820152606490fd5b346102d9575f3660031901126102d957610d7c61281c565b60045460ff811615610dbb5760ff19166004557f5db9ee0a495bf2e6ff9c91a7834c1ba4fdd244a5e8aa4e537bd38aeae4b073aa6020604051338152a1005b638dfc202b60e01b5f5260045ffd5b346102d95760203660031901126102d957610de36102c3565b610deb61281c565b6001600160a01b03165f908152600b60205260409020805460ff19166001179055005b346102d9575f3660031901126102d9576020600954604051908152f35b90602080835192838152019201905f5b818110610e485750505090565b8251845260209384019390920191600101610e3b565b906020610621928181520190610e2b565b346102d95760403660031901126102d9576004356001600160401b0381116102d957366023820112156102d957806004013590610eab82610ae9565b91610eb96040519384610ab2565b8083526024602084019160051b830101913683116102d957602401905b828210610f1657836024356001600160401b0381116102d95761067991610f04610f0a923690600401610b00565b90611fe6565b60405191829182610e5e565b60208091610f238461031f565b815201910190610ed6565b346102d95760203660031901126102d957600435610f4a6121f6565b600754610f5f906001600160a01b03166104a7565b6001600160a01b038116151580611076575b610f7b915061209a565b610f9033610968835f525f60205260405f2090565b54335f908152600e60205260409020909190610fad90829061099c565b54808311156110675761100c81610fe6610fca61101394876120dc565b6002610fde875f52600c60205260405f2090565b015490611b07565b94806110068661099c3360018060a01b03165f52600e60205260405f2090565b556120dc565b8233612a20565b61102c5f80808086335af1611026611f8a565b506120e9565b337fa5411d116afcb8415f0019792cccf595f94852ba82886dacbf756d9c3ce85f3f5f80a461054c60015f5160206130bb5f395f51905f5255565b630b4d698160e01b5f5260045ffd5b5060085460405163110f269760e01b8152600481019190915290602090829060249082905afa80156105ca57610f7b915f916110b3575b50610f71565b6110cc915060203d6020116105c3576105b58183610ab2565b5f6110ad565b346102d9575f3660031901126102d957602060ff600454166040519015158152f35b346102d9575f3660031901126102d9576005546040516001600160a01b039091168152602090f35b346102d9575f3660031901126102d95760206040517f5dd10662f89eb5beab8229dc002469949533556d433e73af3981b3939fb8d4368152f35b90600182811c92168015611184575b602083101461117057565b634e487b7160e01b5f52602260045260245ffd5b91607f1691611165565b346102d9575f3660031901126102d9576040515f600a546111ae81611156565b80845290600181169081156106db57506001146111d5576106798361066d81850382610ab2565b600a5f9081527fc65a7bb8d6351c1cf70c95a316cc6a92839c986682d98bc35f958f4883f9d2a8939250905b8082106112195750909150810160200161066d61065d565b919260018160209254838588010152019101909291611201565b346102d95760203660031901126102d9576001600160a01b036112546102c3565b165f52600b602052602060ff60405f2054166040519015158152f35b346102d9575f3660031901126102d95761128861281c565b61129061222e565b600160ff1960045416176004557f62e78cea01bee320cd4e420270b5ea74000d11b0c9f74754ebdbfc544b05a2586020604051338152a1005b346102d95760603660031901126102d9576004356024356044356112eb61281c565b61130a6003611302855f52600c60205260405f2090565b015460ff1690565b6113ed577ffa0b139df20a8f84da17e221cbb5c3381654f1dc988d7b9fe7e0015a9435c9df9161136e61133b610ad8565b8281525f60208201528360408201526113576060820160019052565b611369865f52600c60205260405f2090565b612125565b6006546001600160a01b031680611393575b50604080519182526020820192909252a2005b604051636a5f6fb760e11b6020820190815260248201879052604482018590526113e7925f9283929083906113d581606481015b03601f198101835282610ab2565b51925af16113e1611f8a565b5061215c565b5f611380565b63536a109d60e11b5f5260045ffd5b346102d9575f3660031901126102d95761054c61281c565b346102d9575f3660031901126102d9576007546040516001600160a01b039091168152602090f35b346102d95760403660031901126102d957602060ff61147f60043561145f610309565b905f526003845260405f209060018060a01b03165f5260205260405f2090565b54166040519015158152f35b346102d9575f3660031901126102d95760206040515f8152f35b801515036102d957565b346102d95760403660031901126102d9576114c86102c3565b6024356114d4816114a5565b3315611569576001600160a01b038216918215611557578161151461152592335f52600160205260405f209060018060a01b03165f5260205260405f2090565b9060ff801983541691151516179055565b604051901515815233907f17307eab39ab6107e8899845ad3d59bd9653f200f220920489ca2b5937696c3190602090a3005b62ced3e160e81b5f525f60045260245ffd5b631f18c42760e11b5f525f60045260245ffd5b346102d9575f3660031901126102d9576006546040516001600160a01b039091168152602090f35b9181601f840112156102d9578235916001600160401b0383116102d9576020808501948460051b0101116102d957565b346102d95760603660031901126102d9576004356001600160401b0381116102d9576116049036906004016115a4565b6024356001600160401b0381116102d9576116239036906004016115a4565b916044356001600160401b0381116102d9576116439036906004016115a4565b9461164c6121f6565b61165461281c565b848314806117c7575b611666906121a8565b5f5b8381106116855761054c60015f5160206130bb5f395f51905f5255565b6116a760036113026116988488876121e6565b355f52600c60205260405f2090565b6113ed57806116f46116bc60019389896121e6565b356116c8838b886121e6565b356116d1610ad8565b9182525f60208301526040820152600160608201526113696116988489886121e6565b6006548890869085906001600160a01b031687858261176c575b939291505061171d93506121e6565b357ffa0b139df20a8f84da17e221cbb5c3381654f1dc988d7b9fe7e0015a9435c9df61174a838a8a6121e6565b35611756848c896121e6565b604080519283529035602083015290a201611668565b6113c76113d5611791836117bc9961178a5f9a968b9a978b986121e6565b35966121e6565b604051636a5f6fb760e11b602082019081526024820196909652903560448201529182906064820190565b8785845f878561170e565b5082861461165d565b60403660031901126102d9576024356004356117ea6121f6565b6117f261222e565b600754611807906001600160a01b03166104a7565b6001600160a01b038116159290831561182f575b5061182861053693611ab5565b34916122e3565b60085460405163110f269760e01b815260048101919091529350602090849060249082905afa9283156105ca5761053693611828915f91611874575b5015935061181b565b61188d915060203d6020116105c3576105b58183610ab2565b5f61186b565b346102d9575f3660031901126102d95760045460405160089190911c6001600160a01b03168152602090f35b346102d95760403660031901126102d9576118d86102c3565b6024359060018060a01b03165f52600e60205260405f20905f52602052602060405f2054604051908152f35b346102d95760403660031901126102d95761054c600435611923610309565b9061193d610c8c825f526003602052600160405f20015490565b612998565b346102d9575f3660031901126102d95760206040517fa48c898f5241be426b79d4b5a3c206f9c9a06576e1b72c338c3ec849771d56868152f35b346102d95760403660031901126102d957602060ff61147f61199c6102c3565b6119a4610309565b6001600160a01b039182165f9081526001865260408082209290931681526020919091522090565b346102d95760a03660031901126102d9576119e56102c3565b6119ed610309565b60443590606435926084356001600160401b0381116102d957611a14903690600401610bae565b92611a1f8233612932565b6001600160a01b03831615611a82576001600160a01b03821615611a705761054c94611a6860405192600184526020840152604083019160018352606084015260808301604052565b929091612c8a565b626a0d4560e21b5f525f60045260245ffd5b632bfa23e760e11b5f525f60045260245ffd5b908160209103126102d95751610621816114a5565b6040513d5f823e3d90fd5b15611abc57565b60405162461bcd60e51b815260206004820152600f60248201526e115d995b9d0818d85b98d95b1b1959608a1b6044820152606490fd5b634e487b7160e01b5f52601160045260245ffd5b81810292918115918404141715611b1a57565b611af3565b90601f8211611b2c575050565b808211611b37575050565b60025f5260205f206020601f830160051c9210611b76575b81601f9101920160051c03905f5b828110611b6957505050565b5f82820155600101611b5d565b5f9150611b4f565b919091601f8311611b8f575b505050565b818311611b9b57505050565b5f5260205f206020601f830160051c9210611bd4575b81601f9101920160051c03905f5b82811015611b8a575f82820155600101611bbf565b5f9150611bb1565b91906001600160401b038111610ad357611c0281611bfb600a54611156565b600a611b7e565b5f601f8211600114611c40578190611c3093945f92611c35575b50508160011b915f199060031b1c19161790565b600a55565b013590505f80611c1c565b600a5f52601f198216937fc65a7bb8d6351c1cf70c95a316cc6a92839c986682d98bc35f958f4883f9d2a8915f5b868110611ca55750836001959610611c8c575b505050811b01600a55565b01355f19600384901b60f8161c191690555f8080611c81565b90926020600181928686013581550194019101611c6e565b969790919592949395600f549860ff8a16611de55760ff19909916600117600f5560048054610100600160a81b03191633600890811b610100600160a81b031691909117909155600580546001600160a01b0319166001600160a01b038b1617905592909255611dab97611d9c96611d9796611d9094611d6e9392611d4c929091611d4790600955565b611bdc565b60018060a01b03166bffffffffffffffffffffffff60a01b6006541617600655565b600780546001600160a01b0319166001600160a01b0392909216919091179055565b3691610b78565b612529565b611da581612609565b506126b8565b505f8052600b602052610ae77fdf7de25b7f1fd6d0b5205f0e18f1f35bd7b8d84cce336588d184533ce43a6f76805460ff19166001179055565b62dc149f60e41b5f5260045ffd5b5f198114611b1a5760010190565b92919094611e0f8433612932565b6001600160a01b038616948515611a82576001600160a01b038516958615611a70578351855190818103611f615750505f5b8451811015611ef6578060051b6020808288010151918801015190611e7189610968835f525f60205260405f2090565b54828110611ebf57611eaf8c61096885948d611ea160019998611eb7970391610968845f525f60205260405f2090565b555f525f60205260405f2090565b9182546122d6565b905501611e41565b6040516303dee4c560e01b81526001600160a01b038b16600482015260248101919091526044810183905260648101829052608490fd5b50610ae79697929795919560018551145f14611f3a5760208581015187820151604080519283529282015233915f51602061309b5f395f51905f5291a45b33612fdc565b6040515f51602061307b5f395f51905f52339180611f598a8a83612e20565b0390a4611f34565b635b05999160e01b5f5260045260245260445ffd5b60405190611f85602083610ab2565b5f8252565b3d15611fb4573d90611f9b82610b5d565b91611fa96040519384610ab2565b82523d5f602084013e565b606090565b634e487b7160e01b5f52603260045260245ffd5b8051821015611fe15760209160051b010190565b611fb9565b9190918051835180820361208557505080519061200282610ae9565b916120106040519384610ab2565b80835261201f601f1991610ae9565b013660208401375f5b815181101561207e578061206d60019260051b60208082870101519189010151905f918252602082815260408084206001600160a01b03909316845291905290205490565b6120778286611fcd565b5201612028565b5090925050565b635b05999160e01b5f5260045260245260445ffd5b156120a157565b60405162461bcd60e51b8152602060048201526013602482015272115d995b9d081b9bdd0818d85b98d95b1b1959606a1b6044820152606490fd5b91908203918211611b1a57565b156120f057565b60405162461bcd60e51b815260206004820152600d60248201526c1499599d5b990819985a5b1959609a1b6044820152606490fd5b60036060610ae7938051845560208101516001850155604081015160028501550151151591019060ff801983541691151516179055565b1561216357565b60405162461bcd60e51b815260206004820152601760248201527f4d61726b6574706c6163652063616c6c206661696c65640000000000000000006044820152606490fd5b156121af57565b60405162461bcd60e51b815260206004820152600f60248201526e098cadccee8d040dad2e6dac2e8c6d608b1b6044820152606490fd5b9190811015611fe15760051b0190565b60025f5160206130bb5f395f51905f52541461221f5760025f5160206130bb5f395f51905f5255565b633ee5aeb560e01b5f5260045ffd5b60ff6004541661223a57565b63d93c066560e01b5f5260045ffd5b6040516323b872dd60e01b5f9081526001600160a01b039384166004529290931660245260449390935260209060648180865af160015f51148116156122b7575b6040919091525f6060521561229c5750565b635274afe760e01b5f526001600160a01b031660045260245ffd5b60018115166122cd573d15833b1515161661228a565b503d5f823e3d90fd5b91908201809211611b1a57565b916122fe6104f06003611302865f52600c60205260405f2090565b61240f576009544210156124005761231e835f52600c60205260405f2090565b906001820180549261233085856122d6565b8154106123f157846002612345920154611b07565b928383106123e25784612357916122d6565b905561236c612364611f76565b848633612b75565b818111806123da575b6123b7575b5050604080519182525f602083015233917f4cf695110eb016237150bbbf930c9f2377261d25c912abc9aaf6ae0834ddd3cb91819081015b0390a3565b5f80806123c86123d39582956120dc565b335af1611026611f8a565b5f8061237a565b506001612375565b63cd1c886760e01b5f5260045ffd5b6352df9fe560e01b5f5260045ffd5b633ae6211360e11b5f5260045ffd5b63b4bcd5a960e01b5f5260045ffd5b92909161243b6104f06003611302875f52600c60205260405f2090565b61240f576009544210156124005761245b845f52600c60205260405f2090565b90600182019283549261246e86856122d6565b8154106123f157856002612483920154611b07565b908181106123e2577f4cf695110eb016237150bbbf930c9f2377261d25c912abc9aaf6ae0834ddd3cb946124ba876123b2966122d6565b90556124cf6124c7611f76565b878933612b75565b81811180612518575b612500575b5050604080519485526001600160a01b0390911660208501523393918291820190565b5f80806123c86125119582956120dc565b5f806124dd565b506001600160a01b038316156124d8565b9081516001600160401b038111610ad35761254e81612549600254611156565b611b1f565b602092601f821160011461258d5761257d929382915f926125825750508160011b915f199060031b1c19161790565b600255565b015190505f80611c1c565b60025f52601f198216937f405787fa12a823e0f2b7631cc41b3ba8828b3321ca811111fa75cd3aa3bb5ace915f5b8681106125f157508360019596106125d9575b505050811b01600255565b01515f1960f88460031b161c191690555f80806125ce565b919260206001819286850151815501940192016125bb565b6001600160a01b0381165f9081527f3617319a054d772f909f7c479a2cebe5066e836a939412e32403c99029b92eff602052604090205460ff166126b3576001600160a01b03165f8181527f3617319a054d772f909f7c479a2cebe5066e836a939412e32403c99029b92eff60205260408120805460ff191660011790553391907f2f8788117e7eff1d82e926ec794901d17c78024a50270940304540a733656f0d8180a4600190565b505f90565b6001600160a01b0381165f9081527f468f96d11c191f23f4ba3e37f8d0d5796d22a5250691c44cc50d80d307a534a1602052604090205460ff166126b3576001600160a01b0381165f9081527f468f96d11c191f23f4ba3e37f8d0d5796d22a5250691c44cc50d80d307a534a160205260409020805460ff1916600117905533906001600160a01b03167f5dd10662f89eb5beab8229dc002469949533556d433e73af3981b3939fb8d4367f2f8788117e7eff1d82e926ec794901d17c78024a50270940304540a733656f0d5f80a4600190565b5f8181526003602090815260408083206001600160a01b038616845290915290205460ff16612816575f8181526003602090815260408083206001600160a01b03861684529091529020805460ff1916600117905533916001600160a01b0316907f2f8788117e7eff1d82e926ec794901d17c78024a50270940304540a733656f0d5f80a4600190565b50505f90565b335f9081527f468f96d11c191f23f4ba3e37f8d0d5796d22a5250691c44cc50d80d307a534a1602052604090205460ff161561285457565b60405162461bcd60e51b815260206004820152600d60248201526c2737ba1037b933b0b734bd32b960991b6044820152606490fd5b335f9081527fe6201b578b12afe10100ceef227ea294fd9f6db11f395517571c215c1f70bed8602052604090205460ff16156128c157565b63e2517d3f60e01b5f52336004527fa48c898f5241be426b79d4b5a3c206f9c9a06576e1b72c338c3ec849771d568660245260445ffd5b5f81815260036020908152604080832033845290915290205460ff161561291c5750565b63e2517d3f60e01b5f523360045260245260445ffd5b6001600160a01b039182169181169082821415908161296a575b50612955575050565b63711bec9160e11b5f5260045260245260445ffd5b5f8481526001602090815260408083206001600160a01b0390941683529290522060ff91505416155f61294c565b5f8181526003602090815260408083206001600160a01b038616845290915290205460ff1615612816575f8181526003602090815260408083206001600160a01b03861684529091529020805460ff1916905533916001600160a01b0316907ff6391f5c32d9c69d2a47ea670b442974b53935d1edc7fd64eb21e047a839171b5f80a4600190565b926001600160a01b038416929091908315611a7057612a5c60405192600184526020840152604083019160018352606084015260808301604052565b91906020915f604051612a6f8582610ab2565b528151845190818103611f615750505f5b8251811015612b10578060051b848082860101519187010151612aae89610968845f525f60205260405f2090565b54818110612ad957896109686001959493612ad29303935f525f60205260405f2090565b5501612a80565b6040516303dee4c560e01b81526001600160a01b038b16600482015260248101919091526044810182905260648101839052608490fd5b50945090915f939260018351148514612b54579182015191015160408051928352602083019190915233915f51602061309b5f395f51905f5291819081015b0390a4565b50612b4f5f51602061307b5f395f51905f5291604051918291339583612e20565b92936001600160a01b0384169390929091908415611a8257612bb460405192600184526020840152604083019160018352606084015260808301604052565b9290948551845190818103611f615750505f5b8651811015612c05578087612bfd611eaf8761096860208060019860051b8097010151958c010151945f525f60205260405f2090565b905501612bc7565b5092909460208091610ae79660018251145f14612c62575f838301515f51602061309b5f395f51905f52612c518689015160405191829133958360209093929193604081019481520152565b0390a45b0151910151915f33612e93565b5f6040515f51602061307b5f395f51905f52339180612c828a8883612e20565b0390a4612c55565b9493929091938451825190818103611f615750506001600160a01b038681169586151595918516801515939192905f5b8451811015612d93578060051b90898988602080868b010151958c01015192612d12575b93600194612cf0575b50505001612cba565b612d0891610968611eaf925f525f60205260405f2090565b90555f8981612ce7565b50509091612d2b8d610968835f525f60205260405f2090565b54828110612d5c578291898f612d53600197968f950391610968855f525f60205260405f2090565b55909450612cde565b6040516303dee4c560e01b81526001600160a01b038f16600482015260248101919091526044810183905260648101829052608490fd5b5091989593929790965060018851145f14612df95760208881015186820151604080519283529282015233915f51602061309b5f395f51905f5291a45b612ddc575b5050505050565b602080612def9601519201519233612e93565b5f80808080612dd5565b6040515f51602061307b5f395f51905f52339180612e18898d83612e20565b0390a4612dd0565b9091612e3761062193604084526040840190610e2b565b916020818403910152610e2b565b908160209103126102d957516106218161037b565b6001600160a01b039182168152911660208201526040810191909152606081019190915260a060808201819052610621929101906105ec565b9091949293853b612ea7575b505050505050565b602093612ec991604051968795869563f23a6e6160e01b875260048701612e5a565b03815f6001600160a01b0387165af15f9181612f58575b50612f1a5750612eee611f8a565b8051919082612f1357632bfa23e760e11b5f526001600160a01b03821660045260245ffd5b6020915001fd5b6001600160e01b031916630dc5919f60e01b01612f3d57505f8080808080612e9f565b632bfa23e760e11b5f526001600160a01b031660045260245ffd5b612f7b91925060203d602011612f82575b612f738183610ab2565b810190612e45565b905f612ee0565b503d612f69565b6001600160a01b0391821681529116602082015260a0604082018190526106219491939192612fce9291612fc09190860190610e2b565b908482036060860152610e2b565b9160808184039101526105ec565b9091949293853b612fef57505050505050565b60209361301191604051968795869563bc197c8160e01b875260048701612f89565b03815f6001600160a01b0387165af15f9181613059575b506130365750612eee611f8a565b6001600160e01b0319166343e6837f60e01b01612f3d57505f8080808080612e9f565b61307391925060203d602011612f8257612f738183610ab2565b905f61302856fe4a39dc06d4c0dbc64b70af90fd698a233a518aa5d07e595d983b8c0526c8f7fbc3d58168c5ae7397731d063d5bbf3d657854427343f4c083240f7aacaa2d0f629b779b17422d0df92223018b32b4d1fa46e071723d6817e2486d003becc55f00a26469706673582212203a67aae97b20b3589a4fbc66e366120b1e7b1dcb5a39696f7d12ca6b8e592f2764736f6c63430008210033","linkReferences":{}},"methodIdentifiers":{"DEFAULT_ADMIN_ROLE()":"a217fddf","ORGANIZER_ROLE()":"7909cb59","VERIFIER_ROLE()":"e7705db6","acceptedTokens(address)":"82dc4a05","addPaymentToken(address)":"4a7dc8e0","balanceOf(address,uint256)":"00fdd58e","balanceOfBatch(address[],uint256[])":"4e1273f4","cancelEvent()":"fb6c9537","checkIn(address,uint256)":"2e66c69a","claimRefund(uint256)":"5b7baf64","createTier(uint256,uint256,uint256)":"8591ed34","createTiersBatch(uint256[],uint256[],uint256[])":"bdb756b9","endEvent()":"86ec6177","eventDate()":"4bfbe5df","eventId()":"089cdd0c","eventManager()":"8fd611be","eventName()":"8043c9c0","factory()":"c45a0155","getRoleAdmin(bytes32)":"248a9ca3","goLive()":"2c28f579","grantRole(bytes32,address)":"2f2ff15d","hasRole(bytes32,address)":"91d14854","initialize(address,uint256,uint256,string,string,address,address)":"13cbbcc3","initialized()":"158ef93e","isApprovedForAll(address,address)":"e985e9c5","marketplace()":"abc8c7af","organizer()":"61203265","pause()":"8456cb59","paused()":"5c975abb","purchaseTicket(uint256,uint256)":"bdbbb0cb","purchaseTicketWithToken(uint256,uint256,address)":"064ed686","refundClaims(address,uint256)":"c88371c0","renounceRole(bytes32,address)":"36568abe","revokeRole(bytes32,address)":"d547741f","safeBatchTransferFrom(address,address,uint256[],uint256[],bytes)":"2eb2c2d6","safeTransferFrom(address,address,uint256,uint256,bytes)":"f242432a","setApprovalForAll(address,bool)":"a22cb465","supportsInterface(bytes4)":"01ffc9a7","tiers(uint256)":"039af9eb","unpause()":"3f4ba83a","uri(uint256)":"0e89341c","usedTickets(address,uint256)":"2af1b804","withdraw()":"3ccfd60b"},"id":25}